{
  "contractName": "CadastralContract",
  "abi": [
    {
      "inputs": [],
      "stateMutability": "nonpayable",
      "type": "constructor"
    },
    {
      "anonymous": false,
      "inputs": [
        {
          "indexed": false,
          "internalType": "string",
          "name": "Id",
          "type": "string"
        },
        {
          "indexed": false,
          "internalType": "string",
          "name": "createDate",
          "type": "string"
        },
        {
          "indexed": false,
          "internalType": "string",
          "name": "endDate",
          "type": "string"
        },
        {
          "indexed": false,
          "internalType": "string",
          "name": "county",
          "type": "string"
        },
        {
          "indexed": false,
          "internalType": "uint256",
          "name": "townShip",
          "type": "uint256"
        },
        {
          "indexed": false,
          "internalType": "uint256",
          "name": "reason",
          "type": "uint256"
        },
        {
          "indexed": false,
          "internalType": "uint256",
          "name": "changedTag",
          "type": "uint256"
        },
        {
          "components": [
            {
              "internalType": "string",
              "name": "x",
              "type": "string"
            },
            {
              "internalType": "string",
              "name": "y",
              "type": "string"
            }
          ],
          "indexed": false,
          "internalType": "struct Point[100]",
          "name": "pList",
          "type": "tuple[100]"
        },
        {
          "indexed": false,
          "internalType": "uint256",
          "name": "numOfPoint",
          "type": "uint256"
        },
        {
          "indexed": false,
          "internalType": "uint256",
          "name": "functional",
          "type": "uint256"
        },
        {
          "indexed": false,
          "internalType": "string",
          "name": "eventdata",
          "type": "string"
        },
        {
          "indexed": false,
          "internalType": "string[]",
          "name": "other",
          "type": "string[]"
        }
      ],
      "name": "eventCreate",
      "type": "event"
    },
    {
      "anonymous": false,
      "inputs": [
        {
          "indexed": false,
          "internalType": "string",
          "name": "Id",
          "type": "string"
        },
        {
          "indexed": false,
          "internalType": "string",
          "name": "begDate",
          "type": "string"
        },
        {
          "indexed": false,
          "internalType": "string",
          "name": "endDate",
          "type": "string"
        },
        {
          "indexed": false,
          "internalType": "string",
          "name": "data",
          "type": "string"
        }
      ],
      "name": "eventDelete",
      "type": "event"
    },
    {
      "anonymous": false,
      "inputs": [
        {
          "indexed": false,
          "internalType": "string",
          "name": "childId",
          "type": "string"
        },
        {
          "indexed": false,
          "internalType": "string[]",
          "name": "parentId",
          "type": "string[]"
        },
        {
          "indexed": false,
          "internalType": "string",
          "name": "changeDate",
          "type": "string"
        }
      ],
      "name": "eventMerge",
      "type": "event"
    },
    {
      "anonymous": false,
      "inputs": [
        {
          "indexed": false,
          "internalType": "string[]",
          "name": "parentId",
          "type": "string[]"
        },
        {
          "indexed": false,
          "internalType": "string[]",
          "name": "childId",
          "type": "string[]"
        },
        {
          "indexed": false,
          "internalType": "string",
          "name": "changeDate",
          "type": "string"
        }
      ],
      "name": "eventSplit",
      "type": "event"
    },
    {
      "inputs": [
        {
          "internalType": "string",
          "name": "id",
          "type": "string"
        },
        {
          "components": [
            {
              "internalType": "string",
              "name": "pcno",
              "type": "string"
            },
            {
              "internalType": "string",
              "name": "pmno",
              "type": "string"
            },
            {
              "internalType": "string",
              "name": "scno",
              "type": "string"
            },
            {
              "internalType": "string",
              "name": "county",
              "type": "string"
            },
            {
              "internalType": "uint256",
              "name": "townShip",
              "type": "uint256"
            },
            {
              "internalType": "string",
              "name": "begDate",
              "type": "string"
            },
            {
              "internalType": "string",
              "name": "endDate",
              "type": "string"
            },
            {
              "internalType": "uint256",
              "name": "reason",
              "type": "uint256"
            },
            {
              "internalType": "uint256",
              "name": "changeTag",
              "type": "uint256"
            }
          ],
          "internalType": "struct Data",
          "name": "data",
          "type": "tuple"
        },
        {
          "components": [
            {
              "components": [
                {
                  "internalType": "string",
                  "name": "x",
                  "type": "string"
                },
                {
                  "internalType": "string",
                  "name": "y",
                  "type": "string"
                }
              ],
              "internalType": "struct Point[100]",
              "name": "pList",
              "type": "tuple[100]"
            },
            {
              "internalType": "uint256",
              "name": "numOfPoint",
              "type": "uint256"
            }
          ],
          "internalType": "struct Polygon",
          "name": "poly",
          "type": "tuple"
        },
        {
          "internalType": "string[]",
          "name": "pa",
          "type": "string[]"
        },
        {
          "internalType": "uint256",
          "name": "functional",
          "type": "uint256"
        },
        {
          "internalType": "string",
          "name": "eventdata",
          "type": "string"
        },
        {
          "internalType": "string[]",
          "name": "other",
          "type": "string[]"
        }
      ],
      "name": "create",
      "outputs": [],
      "stateMutability": "payable",
      "type": "function",
      "payable": true
    },
    {
      "inputs": [
        {
          "internalType": "string",
          "name": "Id",
          "type": "string"
        },
        {
          "internalType": "string",
          "name": "begDate",
          "type": "string"
        },
        {
          "internalType": "string",
          "name": "endDate",
          "type": "string"
        },
        {
          "internalType": "string",
          "name": "data",
          "type": "string"
        }
      ],
      "name": "deleteEst",
      "outputs": [],
      "stateMutability": "payable",
      "type": "function",
      "payable": true
    },
    {
      "inputs": [
        {
          "internalType": "string[]",
          "name": "sId",
          "type": "string[]"
        },
        {
          "internalType": "string[]",
          "name": "newIdList",
          "type": "string[]"
        },
        {
          "components": [
            {
              "internalType": "string",
              "name": "pcno",
              "type": "string"
            },
            {
              "internalType": "string",
              "name": "pmno",
              "type": "string"
            },
            {
              "internalType": "string",
              "name": "scno",
              "type": "string"
            },
            {
              "internalType": "string",
              "name": "county",
              "type": "string"
            },
            {
              "internalType": "uint256",
              "name": "townShip",
              "type": "uint256"
            },
            {
              "internalType": "string",
              "name": "begDate",
              "type": "string"
            },
            {
              "internalType": "string",
              "name": "endDate",
              "type": "string"
            },
            {
              "internalType": "uint256",
              "name": "reason",
              "type": "uint256"
            },
            {
              "internalType": "uint256",
              "name": "changeTag",
              "type": "uint256"
            }
          ],
          "internalType": "struct Data[]",
          "name": "newDataList",
          "type": "tuple[]"
        },
        {
          "components": [
            {
              "components": [
                {
                  "internalType": "string",
                  "name": "x",
                  "type": "string"
                },
                {
                  "internalType": "string",
                  "name": "y",
                  "type": "string"
                }
              ],
              "internalType": "struct Point[100]",
              "name": "pList",
              "type": "tuple[100]"
            },
            {
              "internalType": "uint256",
              "name": "numOfPoint",
              "type": "uint256"
            }
          ],
          "internalType": "struct Polygon[]",
          "name": "polygonList",
          "type": "tuple[]"
        },
        {
          "internalType": "uint256",
          "name": "numOfnewEstate",
          "type": "uint256"
        },
        {
          "internalType": "uint256",
          "name": "functional",
          "type": "uint256"
        },
        {
          "internalType": "string",
          "name": "eventdata",
          "type": "string"
        }
      ],
      "name": "split",
      "outputs": [],
      "stateMutability": "payable",
      "type": "function",
      "payable": true
    },
    {
      "inputs": [
        {
          "internalType": "string[]",
          "name": "mIdList",
          "type": "string[]"
        },
        {
          "internalType": "string",
          "name": "newId",
          "type": "string"
        },
        {
          "components": [
            {
              "internalType": "string",
              "name": "pcno",
              "type": "string"
            },
            {
              "internalType": "string",
              "name": "pmno",
              "type": "string"
            },
            {
              "internalType": "string",
              "name": "scno",
              "type": "string"
            },
            {
              "internalType": "string",
              "name": "county",
              "type": "string"
            },
            {
              "internalType": "uint256",
              "name": "townShip",
              "type": "uint256"
            },
            {
              "internalType": "string",
              "name": "begDate",
              "type": "string"
            },
            {
              "internalType": "string",
              "name": "endDate",
              "type": "string"
            },
            {
              "internalType": "uint256",
              "name": "reason",
              "type": "uint256"
            },
            {
              "internalType": "uint256",
              "name": "changeTag",
              "type": "uint256"
            }
          ],
          "internalType": "struct Data",
          "name": "data",
          "type": "tuple"
        },
        {
          "components": [
            {
              "components": [
                {
                  "internalType": "string",
                  "name": "x",
                  "type": "string"
                },
                {
                  "internalType": "string",
                  "name": "y",
                  "type": "string"
                }
              ],
              "internalType": "struct Point[100]",
              "name": "pList",
              "type": "tuple[100]"
            },
            {
              "internalType": "uint256",
              "name": "numOfPoint",
              "type": "uint256"
            }
          ],
          "internalType": "struct Polygon",
          "name": "polygon",
          "type": "tuple"
        },
        {
          "internalType": "uint256",
          "name": "numOfMergeEstate",
          "type": "uint256"
        },
        {
          "internalType": "uint256",
          "name": "functional",
          "type": "uint256"
        },
        {
          "internalType": "string",
          "name": "eventdata",
          "type": "string"
        }
      ],
      "name": "merge",
      "outputs": [],
      "stateMutability": "payable",
      "type": "function",
      "payable": true
    },
    {
      "inputs": [
        {
          "internalType": "string",
          "name": "Id",
          "type": "string"
        }
      ],
      "name": "getEstateData",
      "outputs": [
        {
          "components": [
            {
              "internalType": "string",
              "name": "pcno",
              "type": "string"
            },
            {
              "internalType": "string",
              "name": "pmno",
              "type": "string"
            },
            {
              "internalType": "string",
              "name": "scno",
              "type": "string"
            },
            {
              "internalType": "string",
              "name": "county",
              "type": "string"
            },
            {
              "internalType": "uint256",
              "name": "townShip",
              "type": "uint256"
            },
            {
              "internalType": "string",
              "name": "begDate",
              "type": "string"
            },
            {
              "internalType": "string",
              "name": "endDate",
              "type": "string"
            },
            {
              "internalType": "uint256",
              "name": "reason",
              "type": "uint256"
            },
            {
              "internalType": "uint256",
              "name": "changeTag",
              "type": "uint256"
            }
          ],
          "internalType": "struct Data",
          "name": "",
          "type": "tuple"
        },
        {
          "components": [
            {
              "components": [
                {
                  "internalType": "string",
                  "name": "x",
                  "type": "string"
                },
                {
                  "internalType": "string",
                  "name": "y",
                  "type": "string"
                }
              ],
              "internalType": "struct Point[100]",
              "name": "pList",
              "type": "tuple[100]"
            },
            {
              "internalType": "uint256",
              "name": "numOfPoint",
              "type": "uint256"
            }
          ],
          "internalType": "struct Polygon",
          "name": "",
          "type": "tuple"
        },
        {
          "internalType": "string[]",
          "name": "",
          "type": "string[]"
        },
        {
          "internalType": "string[]",
          "name": "",
          "type": "string[]"
        }
      ],
      "stateMutability": "view",
      "type": "function",
      "constant": true
    }
  ],
  "bytecode": "0x608060405234801561001057600080fd5b506000600181905550600060028190555060006003819055506147f4806100386000396000f3fe608060405260043610620000505760003560e01c806323a7ea1414620000555780636c0cbdb614620000755780637093ff5b146200009557806373d47bec14620000dc5780637bcb4dbb14620000fc575b600080fd5b6200007360048036038101906200006d919062000c74565b6200011c565b005b6200009360048036038101906200008d919062001248565b6200017c565b005b348015620000a257600080fd5b50620000c16004803603810190620000bb919062001396565b62000347565b604051620000d39493929190620017a2565b60405180910390f35b620000fa6004803603810190620000f491906200180b565b620005a6565b005b6200011a600480360381019062000114919062001b66565b62000706565b005b600180600082825462000130919062001ce3565b925050819055507f67353cf6935565a9bc7526705c708ffeac343fc4e00d4e4fe67163082f2fb082848484846040516200016e949392919062001d70565b60405180910390a150505050565b60008360058190555060005b84811015620002ea576000898281518110620001a957620001a862001dd9565b5b6020026020010151604051620001c0919062001e4a565b908152602001604051809103902060009054906101000a900473ffffffffffffffffffffffffffffffffffffffff1691508173ffffffffffffffffffffffffffffffffffffffff1663940944208860a001516040518263ffffffff1660e01b815260040162000230919062001e63565b600060405180830381600087803b1580156200024b57600080fd5b505af115801562000260573d6000803e3d6000fd5b505050508173ffffffffffffffffffffffffffffffffffffffff16636d8012b760046040518263ffffffff1660e01b8152600401620002a0919062002050565b600060405180830381600087803b158015620002bb57600080fd5b505af1158015620002d0573d6000803e3d6000fd5b505050508080620002e19062002074565b91505062000188565b50620002fc8787878b87878e620005a6565b7f4ac7b3b1e0edde35545a278f8e2cb30a266dd5f5f27131f8279ad7af56acc18487898860a001516040516200033593929190620020c2565b60405180910390a15050505050505050565b6200035162000a37565b6200035b62000a83565b6060806000808660405162000371919062001e4a565b908152602001604051809103902060009054906101000a900473ffffffffffffffffffffffffffffffffffffffff16905060008173ffffffffffffffffffffffffffffffffffffffff16633bc5de306040518163ffffffff1660e01b8152600401600060405180830381865afa158015620003f0573d6000803e3d6000fd5b505050506040513d6000823e3d601f19601f820116820180604052508101906200041b91906200235a565b905060008273ffffffffffffffffffffffffffffffffffffffff166313d743bc6040518163ffffffff1660e01b8152600401600060405180830381865afa1580156200046b573d6000803e3d6000fd5b505050506040513d6000823e3d601f19601f8201168201806040525081019062000496919062002576565b905060008373ffffffffffffffffffffffffffffffffffffffff1663dd6133b56040518163ffffffff1660e01b8152600401600060405180830381865afa158015620004e6573d6000803e3d6000fd5b505050506040513d6000823e3d601f19601f820116820180604052508101906200051191906200268f565b905060008473ffffffffffffffffffffffffffffffffffffffff16634892e8e86040518163ffffffff1660e01b8152600401600060405180830381865afa15801562000561573d6000803e3d6000fd5b505050506040513d6000823e3d601f19601f820116820180604052508101906200058c91906200268f565b905083838383985098509850985050505050509193509193565b600087878787604051620005ba9062000aa5565b620005c99493929190620026e0565b604051809103906000f080158015620005e6573d6000803e3d6000fd5b50905080600089604051620005fc919062001e4a565b908152602001604051809103902060006101000a81548173ffffffffffffffffffffffffffffffffffffffff021916908373ffffffffffffffffffffffffffffffffffffffff16021790555060018060008282546200065c919062002749565b9250508190555060016002600082825462000678919062002749565b9250508190555060006003541415620006fc577f473a2a2d532f9b19c68cf5bf34ddf8f5be280d70461550f48c361760b41960c7888860a001518960c001518a606001518b608001518c60e001518d61010001518d600001518e602001518d8d8d604051620006f39c9b9a9998979695949392919062002843565b60405180910390a15b5050505050505050565b6000808860008151811062000720576200071f62001dd9565b5b602002602001015160405162000737919062001e4a565b908152602001604051809103902060009054906101000a900473ffffffffffffffffffffffffffffffffffffffff1690508073ffffffffffffffffffffffffffffffffffffffff166394094420876000815181106200079b576200079a62001dd9565b5b602002602001015160a001516040518263ffffffff1660e01b8152600401620007c5919062001e63565b600060405180830381600087803b158015620007e057600080fd5b505af1158015620007f5573d6000803e3d6000fd5b505050508073ffffffffffffffffffffffffffffffffffffffff16636d8012b7886040518263ffffffff1660e01b815260040162000834919062002946565b600060405180830381600087803b1580156200084f57600080fd5b505af115801562000864573d6000803e3d6000fd5b5050505060005b84811015620009cd57620009b78882815181106200088e576200088d62001dd9565b5b6020026020010151888381518110620008ac57620008ab62001dd9565b5b6020026020010151888481518110620008ca57620008c962001dd9565b5b60200260200101516004805480602002602001604051908101604052809291908181526020016000905b82821015620009aa578382906000526020600020018054620009169062001ed6565b80601f0160208091040260200160405190810160405280929190818152602001828054620009449062001ed6565b8015620009955780601f10620009695761010080835404028352916020019162000995565b820191906000526020600020905b8154815290600101906020018083116200097757829003601f168201915b505050505081526020019060010190620008f4565b5050505088888f620005a6565b8080620009c49062002074565b9150506200086b565b507f54f08ded47adbb3750d1ca4cd66fefb946e372a233b07cb54067c27694dc61fd88888860008151811062000a085762000a0762001dd9565b5b602002602001015160a0015160405162000a25939291906200296a565b60405180910390a15050505050505050565b6040518061012001604052806060815260200160608152602001606081526020016060815260200160008152602001606081526020016060815260200160008152602001600081525090565b604051806040016040528062000a9862000ab3565b8152602001600081525090565b611e0280620029bd83390190565b60405180610c8001604052806064905b62000acd62000ae4565b81526020019060019003908162000ac35790505090565b604051806040016040528060608152602001606081525090565b6000604051905090565b600080fd5b600080fd5b600080fd5b600080fd5b6000601f19601f8301169050919050565b7f4e487b7100000000000000000000000000000000000000000000000000000000600052604160045260246000fd5b62000b678262000b1c565b810181811067ffffffffffffffff8211171562000b895762000b8862000b2d565b5b80604052505050565b600062000b9e62000afe565b905062000bac828262000b5c565b919050565b600067ffffffffffffffff82111562000bcf5762000bce62000b2d565b5b62000bda8262000b1c565b9050602081019050919050565b82818337600083830152505050565b600062000c0d62000c078462000bb1565b62000b92565b90508281526020810184848401111562000c2c5762000c2b62000b17565b5b62000c3984828562000be7565b509392505050565b600082601f83011262000c595762000c5862000b12565b5b813562000c6b84826020860162000bf6565b91505092915050565b6000806000806080858703121562000c915762000c9062000b08565b5b600085013567ffffffffffffffff81111562000cb25762000cb162000b0d565b5b62000cc08782880162000c41565b945050602085013567ffffffffffffffff81111562000ce45762000ce362000b0d565b5b62000cf28782880162000c41565b935050604085013567ffffffffffffffff81111562000d165762000d1562000b0d565b5b62000d248782880162000c41565b925050606085013567ffffffffffffffff81111562000d485762000d4762000b0d565b5b62000d568782880162000c41565b91505092959194509250565b600067ffffffffffffffff82111562000d805762000d7f62000b2d565b5b602082029050602081019050919050565b600080fd5b600062000dad62000da78462000d62565b62000b92565b9050808382526020820190506020840283018581111562000dd35762000dd262000d91565b5b835b8181101562000e2157803567ffffffffffffffff81111562000dfc5762000dfb62000b12565b5b80860162000e0b898262000c41565b8552602085019450505060208101905062000dd5565b5050509392505050565b600082601f83011262000e435762000e4262000b12565b5b813562000e5584826020860162000d96565b91505092915050565b600080fd5b600080fd5b6000819050919050565b62000e7d8162000e68565b811462000e8957600080fd5b50565b60008135905062000e9d8162000e72565b92915050565b6000610120828403121562000ebd5762000ebc62000e5e565b5b62000eca61012062000b92565b9050600082013567ffffffffffffffff81111562000eed5762000eec62000e63565b5b62000efb8482850162000c41565b600083015250602082013567ffffffffffffffff81111562000f225762000f2162000e63565b5b62000f308482850162000c41565b602083015250604082013567ffffffffffffffff81111562000f575762000f5662000e63565b5b62000f658482850162000c41565b604083015250606082013567ffffffffffffffff81111562000f8c5762000f8b62000e63565b5b62000f9a8482850162000c41565b606083015250608062000fb08482850162000e8c565b60808301525060a082013567ffffffffffffffff81111562000fd75762000fd662000e63565b5b62000fe58482850162000c41565b60a08301525060c082013567ffffffffffffffff8111156200100c576200100b62000e63565b5b6200101a8482850162000c41565b60c08301525060e0620010308482850162000e8c565b60e083015250610100620010478482850162000e8c565b6101008301525092915050565b600067ffffffffffffffff82111562001072576200107162000b2d565b5b602082029050919050565b60006040828403121562001096576200109562000e5e565b5b620010a2604062000b92565b9050600082013567ffffffffffffffff811115620010c557620010c462000e63565b5b620010d38482850162000c41565b600083015250602082013567ffffffffffffffff811115620010fa57620010f962000e63565b5b620011088482850162000c41565b60208301525092915050565b60006200112b620011258462001054565b62000b92565b9050806020840283018581111562001148576200114762000d91565b5b835b818110156200119657803567ffffffffffffffff81111562001171576200117062000b12565b5b8086016200118089826200107d565b855260208501945050506020810190506200114a565b5050509392505050565b600082601f830112620011b857620011b762000b12565b5b6064620011c784828562001114565b91505092915050565b600060408284031215620011e957620011e862000e5e565b5b620011f5604062000b92565b9050600082013567ffffffffffffffff81111562001218576200121762000e63565b5b6200122684828501620011a0565b60008301525060206200123c8482850162000e8c565b60208301525092915050565b600080600080600080600060e0888a0312156200126a576200126962000b08565b5b600088013567ffffffffffffffff8111156200128b576200128a62000b0d565b5b620012998a828b0162000e2b565b975050602088013567ffffffffffffffff811115620012bd57620012bc62000b0d565b5b620012cb8a828b0162000c41565b965050604088013567ffffffffffffffff811115620012ef57620012ee62000b0d565b5b620012fd8a828b0162000ea3565b955050606088013567ffffffffffffffff81111562001321576200132062000b0d565b5b6200132f8a828b01620011d0565b9450506080620013428a828b0162000e8c565b93505060a0620013558a828b0162000e8c565b92505060c088013567ffffffffffffffff81111562001379576200137862000b0d565b5b620013878a828b0162000c41565b91505092959891949750929550565b600060208284031215620013af57620013ae62000b08565b5b600082013567ffffffffffffffff811115620013d057620013cf62000b0d565b5b620013de8482850162000c41565b91505092915050565b600081519050919050565b600082825260208201905092915050565b60005b838110156200142357808201518184015260208101905062001406565b8381111562001433576000848401525b50505050565b60006200144682620013e7565b620014528185620013f2565b93506200146481856020860162001403565b6200146f8162000b1c565b840191505092915050565b620014858162000e68565b82525050565b6000610120830160008301518482036000860152620014ab828262001439565b91505060208301518482036020860152620014c7828262001439565b91505060408301518482036040860152620014e3828262001439565b91505060608301518482036060860152620014ff828262001439565b91505060808301516200151660808601826200147a565b5060a083015184820360a086015262001530828262001439565b91505060c083015184820360c08601526200154c828262001439565b91505060e08301516200156360e08601826200147a565b506101008301516200157a6101008601826200147a565b508091505092915050565b600060649050919050565b600081905092915050565b6000819050919050565b60006040830160008301518482036000860152620015c4828262001439565b91505060208301518482036020860152620015e0828262001439565b9150508091505092915050565b6000620015fb8383620015a5565b905092915050565b6000602082019050919050565b60006200161d8262001585565b62001629818562001590565b9350836020820285016200163d856200159b565b8060005b858110156200167f57848403895281516200165d8582620015ed565b94506200166a8362001603565b925060208a0199505060018101905062001641565b50829750879550505050505092915050565b60006040830160008301518482036000860152620016b0828262001610565b9150506020830151620016c760208601826200147a565b508091505092915050565b600081519050919050565b600082825260208201905092915050565b6000819050602082019050919050565b60006200170c838362001439565b905092915050565b6000602082019050919050565b60006200172e82620016d2565b6200173a8185620016dd565b9350836020820285016200174e85620016ee565b8060005b858110156200179057848403895281516200176e8582620016fe565b94506200177b8362001714565b925060208a0199505060018101905062001752565b50829750879550505050505092915050565b60006080820190508181036000830152620017be81876200148b565b90508181036020830152620017d4818662001691565b90508181036040830152620017ea818562001721565b9050818103606083015262001800818462001721565b905095945050505050565b600080600080600080600060e0888a0312156200182d576200182c62000b08565b5b600088013567ffffffffffffffff8111156200184e576200184d62000b0d565b5b6200185c8a828b0162000c41565b975050602088013567ffffffffffffffff81111562001880576200187f62000b0d565b5b6200188e8a828b0162000ea3565b965050604088013567ffffffffffffffff811115620018b257620018b162000b0d565b5b620018c08a828b01620011d0565b955050606088013567ffffffffffffffff811115620018e457620018e362000b0d565b5b620018f28a828b0162000e2b565b9450506080620019058a828b0162000e8c565b93505060a088013567ffffffffffffffff81111562001929576200192862000b0d565b5b620019378a828b0162000c41565b92505060c088013567ffffffffffffffff8111156200195b576200195a62000b0d565b5b620019698a828b0162000e2b565b91505092959891949750929550565b600067ffffffffffffffff82111562001996576200199562000b2d565b5b602082029050602081019050919050565b6000620019be620019b88462001978565b62000b92565b90508083825260208201905060208402830185811115620019e457620019e362000d91565b5b835b8181101562001a3257803567ffffffffffffffff81111562001a0d5762001a0c62000b12565b5b80860162001a1c898262000ea3565b85526020850194505050602081019050620019e6565b5050509392505050565b600082601f83011262001a545762001a5362000b12565b5b813562001a66848260208601620019a7565b91505092915050565b600067ffffffffffffffff82111562001a8d5762001a8c62000b2d565b5b602082029050602081019050919050565b600062001ab562001aaf8462001a6f565b62000b92565b9050808382526020820190506020840283018581111562001adb5762001ada62000d91565b5b835b8181101562001b2957803567ffffffffffffffff81111562001b045762001b0362000b12565b5b80860162001b138982620011d0565b8552602085019450505060208101905062001add565b5050509392505050565b600082601f83011262001b4b5762001b4a62000b12565b5b813562001b5d84826020860162001a9e565b91505092915050565b600080600080600080600060e0888a03121562001b885762001b8762000b08565b5b600088013567ffffffffffffffff81111562001ba95762001ba862000b0d565b5b62001bb78a828b0162000e2b565b975050602088013567ffffffffffffffff81111562001bdb5762001bda62000b0d565b5b62001be98a828b0162000e2b565b965050604088013567ffffffffffffffff81111562001c0d5762001c0c62000b0d565b5b62001c1b8a828b0162001a3c565b955050606088013567ffffffffffffffff81111562001c3f5762001c3e62000b0d565b5b62001c4d8a828b0162001b33565b945050608062001c608a828b0162000e8c565b93505060a062001c738a828b0162000e8c565b92505060c088013567ffffffffffffffff81111562001c975762001c9662000b0d565b5b62001ca58a828b0162000c41565b91505092959891949750929550565b7f4e487b7100000000000000000000000000000000000000000000000000000000600052601160045260246000fd5b600062001cf08262000e68565b915062001cfd8362000e68565b92508282101562001d135762001d1262001cb4565b5b828203905092915050565b600082825260208201905092915050565b600062001d3c82620013e7565b62001d48818562001d1e565b935062001d5a81856020860162001403565b62001d658162000b1c565b840191505092915050565b6000608082019050818103600083015262001d8c818762001d2f565b9050818103602083015262001da2818662001d2f565b9050818103604083015262001db8818562001d2f565b9050818103606083015262001dce818462001d2f565b905095945050505050565b7f4e487b7100000000000000000000000000000000000000000000000000000000600052603260045260246000fd5b600081905092915050565b600062001e2082620013e7565b62001e2c818562001e08565b935062001e3e81856020860162001403565b80840191505092915050565b600062001e58828462001e13565b915081905092915050565b6000602082019050818103600083015262001e7f818462001d2f565b905092915050565b600081549050919050565b60008190508160005260206000209050919050565b7f4e487b7100000000000000000000000000000000000000000000000000000000600052602260045260246000fd5b6000600282049050600182168062001eef57607f821691505b6020821081141562001f065762001f0562001ea7565b5b50919050565b60008190508160005260206000209050919050565b6000815462001f308162001ed6565b62001f3c8186620013f2565b9450600182166000811462001f5a576001811462001f6d5762001fa4565b60ff198316865260208601935062001fa4565b62001f788562001f0c565b60005b8381101562001f9c5781548189015260018201915060208101905062001f7b565b808801955050505b50505092915050565b600062001fbb838362001f21565b905092915050565b6000600182019050919050565b600062001fdd8262001e87565b62001fe98185620016dd565b93508360208202850162001ffd8562001e92565b8060005b858110156200203e578484038952816200201c858262001fad565b9450620020298362001fc3565b925060208a0199505060018101905062002001565b50829750879550505050505092915050565b600060208201905081810360008301526200206c818462001fd0565b905092915050565b6000620020818262000e68565b91507fffffffffffffffffffffffffffffffffffffffffffffffffffffffffffffffff821415620020b757620020b662001cb4565b5b600182019050919050565b60006060820190508181036000830152620020de818662001d2f565b90508181036020830152620020f4818562001721565b905081810360408301526200210a818462001d2f565b9050949350505050565b60006200212b620021258462000bb1565b62000b92565b9050828152602081018484840111156200214a576200214962000b17565b5b6200215784828562001403565b509392505050565b600082601f83011262002177576200217662000b12565b5b81516200218984826020860162002114565b91505092915050565b600081519050620021a38162000e72565b92915050565b60006101208284031215620021c357620021c262000e5e565b5b620021d061012062000b92565b9050600082015167ffffffffffffffff811115620021f357620021f262000e63565b5b62002201848285016200215f565b600083015250602082015167ffffffffffffffff81111562002228576200222762000e63565b5b62002236848285016200215f565b602083015250604082015167ffffffffffffffff8111156200225d576200225c62000e63565b5b6200226b848285016200215f565b604083015250606082015167ffffffffffffffff81111562002292576200229162000e63565b5b620022a0848285016200215f565b6060830152506080620022b68482850162002192565b60808301525060a082015167ffffffffffffffff811115620022dd57620022dc62000e63565b5b620022eb848285016200215f565b60a08301525060c082015167ffffffffffffffff81111562002312576200231162000e63565b5b62002320848285016200215f565b60c08301525060e0620023368482850162002192565b60e0830152506101006200234d8482850162002192565b6101008301525092915050565b60006020828403121562002373576200237262000b08565b5b600082015167ffffffffffffffff81111562002394576200239362000b0d565b5b620023a284828501620021a9565b91505092915050565b600060408284031215620023c457620023c362000e5e565b5b620023d0604062000b92565b9050600082015167ffffffffffffffff811115620023f357620023f262000e63565b5b62002401848285016200215f565b600083015250602082015167ffffffffffffffff81111562002428576200242762000e63565b5b62002436848285016200215f565b60208301525092915050565b600062002459620024538462001054565b62000b92565b9050806020840283018581111562002476576200247562000d91565b5b835b81811015620024c457805167ffffffffffffffff8111156200249f576200249e62000b12565b5b808601620024ae8982620023ab565b8552602085019450505060208101905062002478565b5050509392505050565b600082601f830112620024e657620024e562000b12565b5b6064620024f584828562002442565b91505092915050565b60006040828403121562002517576200251662000e5e565b5b62002523604062000b92565b9050600082015167ffffffffffffffff81111562002546576200254562000e63565b5b6200255484828501620024ce565b60008301525060206200256a8482850162002192565b60208301525092915050565b6000602082840312156200258f576200258e62000b08565b5b600082015167ffffffffffffffff811115620025b057620025af62000b0d565b5b620025be84828501620024fe565b91505092915050565b6000620025de620025d88462000d62565b62000b92565b9050808382526020820190506020840283018581111562002604576200260362000d91565b5b835b818110156200265257805167ffffffffffffffff8111156200262d576200262c62000b12565b5b8086016200263c89826200215f565b8552602085019450505060208101905062002606565b5050509392505050565b600082601f83011262002674576200267362000b12565b5b815162002686848260208601620025c7565b91505092915050565b600060208284031215620026a857620026a762000b08565b5b600082015167ffffffffffffffff811115620026c957620026c862000b0d565b5b620026d7848285016200265c565b91505092915050565b60006080820190508181036000830152620026fc818762001d2f565b905081810360208301526200271281866200148b565b9050818103604083015262002728818562001691565b905081810360608301526200273e818462001721565b905095945050505050565b6000620027568262000e68565b9150620027638362000e68565b9250827fffffffffffffffffffffffffffffffffffffffffffffffffffffffffffffffff038211156200279b576200279a62001cb4565b5b828201905092915050565b620027b18162000e68565b82525050565b600081905092915050565b6000620027cf8262001585565b620027db8185620027b7565b935083602082028501620027ef856200159b565b8060005b858110156200283157848403895281516200280f8582620015ed565b94506200281c8362001603565b925060208a01995050600181019050620027f3565b50829750879550505050505092915050565b600061018082019050818103600083015262002860818f62001d2f565b9050818103602083015262002876818e62001d2f565b905081810360408301526200288c818d62001d2f565b90508181036060830152620028a2818c62001d2f565b9050620028b3608083018b620027a6565b620028c260a083018a620027a6565b620028d160c0830189620027a6565b81810360e0830152620028e58188620027c2565b9050620028f7610100830187620027a6565b62002907610120830186620027a6565b8181036101408301526200291c818562001d2f565b905081810361016083015262002933818462001721565b90509d9c50505050505050505050505050565b6000602082019050818103600083015262002962818462001721565b905092915050565b6000606082019050818103600083015262002986818662001721565b905081810360208301526200299c818562001721565b90508181036040830152620029b2818462001d2f565b905094935050505056fe60806040523480156200001157600080fd5b5060405162001e0238038062001e02833981810160405281019062000037919062000a4e565b8260000151600160000190805190602001906200005692919062000246565b508260400151600160020190805190602001906200007692919062000246565b5082602001516001800190805190602001906200009592919062000246565b50826060015160016003019080519060200190620000b592919062000246565b5082608001516001600401819055508260a0015160016005019080519060200190620000e392919062000246565b508260c00151600160060190805190602001906200010392919062000246565b508260e0015160016007018190555082610100015160016008018190555060005b8260200151811015620001fb57826000015181606481106200014b576200014a62000b3c565b5b602002015160000151600a60000182606481106200016e576200016d62000b3c565b5b6002020160000190805190602001906200018a92919062000246565b5082600001518160648110620001a557620001a462000b3c565b5b602002015160200151600a6000018260648110620001c857620001c762000b3c565b5b600202016001019080519060200190620001e492919062000246565b508080620001f29062000b9a565b91505062000124565b508160200151600a60c801819055508060d3908051906020019062000222929190620002d7565b5083600090805190602001906200023b92919062000246565b505050505062000c4d565b828054620002549062000c17565b90600052602060002090601f016020900481019282620002785760008555620002c4565b82601f106200029357805160ff1916838001178555620002c4565b82800160010185558215620002c4579182015b82811115620002c3578251825591602001919060010190620002a6565b5b509050620002d391906200033e565b5090565b8280548282559060005260206000209081019282156200032b579160200282015b828111156200032a5782518290805190602001906200031992919062000246565b5091602001919060010190620002f8565b5b5090506200033a91906200035d565b5090565b5b80821115620003595760008160009055506001016200033f565b5090565b5b8082111562000381576000818162000377919062000385565b506001016200035e565b5090565b508054620003939062000c17565b6000825580601f10620003a75750620003c8565b601f016020900490600052602060002090810190620003c791906200033e565b5b50565b6000604051905090565b600080fd5b600080fd5b600080fd5b600080fd5b6000601f19601f8301169050919050565b7f4e487b7100000000000000000000000000000000000000000000000000000000600052604160045260246000fd5b6200043482620003e9565b810181811067ffffffffffffffff82111715620004565762000455620003fa565b5b80604052505050565b60006200046b620003cb565b905062000479828262000429565b919050565b600067ffffffffffffffff8211156200049c576200049b620003fa565b5b620004a782620003e9565b9050602081019050919050565b60005b83811015620004d4578082015181840152602081019050620004b7565b83811115620004e4576000848401525b50505050565b600062000501620004fb846200047e565b6200045f565b90508281526020810184848401111562000520576200051f620003e4565b5b6200052d848285620004b4565b509392505050565b600082601f8301126200054d576200054c620003df565b5b81516200055f848260208601620004ea565b91505092915050565b600080fd5b600080fd5b6000819050919050565b620005878162000572565b81146200059357600080fd5b50565b600081519050620005a7816200057c565b92915050565b60006101208284031215620005c757620005c662000568565b5b620005d46101206200045f565b9050600082015167ffffffffffffffff811115620005f757620005f66200056d565b5b620006058482850162000535565b600083015250602082015167ffffffffffffffff8111156200062c576200062b6200056d565b5b6200063a8482850162000535565b602083015250604082015167ffffffffffffffff8111156200066157620006606200056d565b5b6200066f8482850162000535565b604083015250606082015167ffffffffffffffff8111156200069657620006956200056d565b5b620006a48482850162000535565b6060830152506080620006ba8482850162000596565b60808301525060a082015167ffffffffffffffff811115620006e157620006e06200056d565b5b620006ef8482850162000535565b60a08301525060c082015167ffffffffffffffff8111156200071657620007156200056d565b5b620007248482850162000535565b60c08301525060e06200073a8482850162000596565b60e083015250610100620007518482850162000596565b6101008301525092915050565b600067ffffffffffffffff8211156200077c576200077b620003fa565b5b602082029050919050565b600080fd5b600060408284031215620007a557620007a462000568565b5b620007b160406200045f565b9050600082015167ffffffffffffffff811115620007d457620007d36200056d565b5b620007e28482850162000535565b600083015250602082015167ffffffffffffffff8111156200080957620008086200056d565b5b620008178482850162000535565b60208301525092915050565b60006200083a62000834846200075e565b6200045f565b9050806020840283018581111562000857576200085662000787565b5b835b81811015620008a557805167ffffffffffffffff81111562000880576200087f620003df565b5b8086016200088f89826200078c565b8552602085019450505060208101905062000859565b5050509392505050565b600082601f830112620008c757620008c6620003df565b5b6064620008d684828562000823565b91505092915050565b600060408284031215620008f857620008f762000568565b5b6200090460406200045f565b9050600082015167ffffffffffffffff8111156200092757620009266200056d565b5b6200093584828501620008af565b60008301525060206200094b8482850162000596565b60208301525092915050565b600067ffffffffffffffff821115620009755762000974620003fa565b5b602082029050602081019050919050565b60006200099d620009978462000957565b6200045f565b90508083825260208201905060208402830185811115620009c357620009c262000787565b5b835b8181101562000a1157805167ffffffffffffffff811115620009ec57620009eb620003df565b5b808601620009fb898262000535565b85526020850194505050602081019050620009c5565b5050509392505050565b600082601f83011262000a335762000a32620003df565b5b815162000a4584826020860162000986565b91505092915050565b6000806000806080858703121562000a6b5762000a6a620003d5565b5b600085015167ffffffffffffffff81111562000a8c5762000a8b620003da565b5b62000a9a8782880162000535565b945050602085015167ffffffffffffffff81111562000abe5762000abd620003da565b5b62000acc87828801620005ad565b935050604085015167ffffffffffffffff81111562000af05762000aef620003da565b5b62000afe87828801620008df565b925050606085015167ffffffffffffffff81111562000b225762000b21620003da565b5b62000b308782880162000a1b565b91505092959194509250565b7f4e487b7100000000000000000000000000000000000000000000000000000000600052603260045260246000fd5b7f4e487b7100000000000000000000000000000000000000000000000000000000600052601160045260246000fd5b600062000ba78262000572565b91507fffffffffffffffffffffffffffffffffffffffffffffffffffffffffffffffff82141562000bdd5762000bdc62000b6b565b5b600182019050919050565b7f4e487b7100000000000000000000000000000000000000000000000000000000600052602260045260246000fd5b6000600282049050600182168062000c3057607f821691505b6020821081141562000c475762000c4662000be8565b5b50919050565b6111a58062000c5d6000396000f3fe608060405234801561001057600080fd5b50600436106100625760003560e01c806313d743bc146100675780633bc5de30146100855780634892e8e8146100a35780636d8012b7146100c157806394094420146100dd578063dd6133b5146100f9575b600080fd5b61006f610117565b60405161007c9190610c3d565b60405180910390f35b61008d6102ab565b60405161009a9190610d47565b60405180910390f35b6100ab610650565b6040516100b89190610e2b565b60405180910390f35b6100db60048036038101906100d6919061107c565b610729565b005b6100f760048036038101906100f291906110c5565b610743565b005b610101610760565b60405161010e9190610e2b565b60405180910390f35b61011f610839565b600a60405180604001604052908160008201606480602002604051908101604052809291906000905b82821015610294578382600202016040518060400160405290816000820180546101719061113d565b80601f016020809104026020016040519081016040528092919081815260200182805461019d9061113d565b80156101ea5780601f106101bf576101008083540402835291602001916101ea565b820191906000526020600020905b8154815290600101906020018083116101cd57829003601f168201915b505050505081526020016001820180546102039061113d565b80601f016020809104026020016040519081016040528092919081815260200182805461022f9061113d565b801561027c5780601f106102515761010080835404028352916020019161027c565b820191906000526020600020905b81548152906001019060200180831161025f57829003601f168201915b50505050508152505081526020019060010190610148565b50505050815260200160c882015481525050905090565b6102b3610859565b6001604051806101200160405290816000820180546102d19061113d565b80601f01602080910402602001604051908101604052809291908181526020018280546102fd9061113d565b801561034a5780601f1061031f5761010080835404028352916020019161034a565b820191906000526020600020905b81548152906001019060200180831161032d57829003601f168201915b505050505081526020016001820180546103639061113d565b80601f016020809104026020016040519081016040528092919081815260200182805461038f9061113d565b80156103dc5780601f106103b1576101008083540402835291602001916103dc565b820191906000526020600020905b8154815290600101906020018083116103bf57829003601f168201915b505050505081526020016002820180546103f59061113d565b80601f01602080910402602001604051908101604052809291908181526020018280546104219061113d565b801561046e5780601f106104435761010080835404028352916020019161046e565b820191906000526020600020905b81548152906001019060200180831161045157829003601f168201915b505050505081526020016003820180546104879061113d565b80601f01602080910402602001604051908101604052809291908181526020018280546104b39061113d565b80156105005780601f106104d557610100808354040283529160200191610500565b820191906000526020600020905b8154815290600101906020018083116104e357829003601f168201915b50505050508152602001600482015481526020016005820180546105239061113d565b80601f016020809104026020016040519081016040528092919081815260200182805461054f9061113d565b801561059c5780601f106105715761010080835404028352916020019161059c565b820191906000526020600020905b81548152906001019060200180831161057f57829003601f168201915b505050505081526020016006820180546105b59061113d565b80601f01602080910402602001604051908101604052809291908181526020018280546105e19061113d565b801561062e5780601f106106035761010080835404028352916020019161062e565b820191906000526020600020905b81548152906001019060200180831161061157829003601f168201915b5050505050815260200160078201548152602001600882015481525050905090565b606060d4805480602002602001604051908101604052809291908181526020016000905b828210156107205783829060005260206000200180546106939061113d565b80601f01602080910402602001604051908101604052809291908181526020018280546106bf9061113d565b801561070c5780601f106106e15761010080835404028352916020019161070c565b820191906000526020600020905b8154815290600101906020018083116106ef57829003601f168201915b505050505081526020019060010190610674565b50505050905090565b8060d4908051906020019061073f9291906108a5565b5050565b806001600601908051906020019061075c929190610905565b5050565b606060d3805480602002602001604051908101604052809291908181526020016000905b828210156108305783829060005260206000200180546107a39061113d565b80601f01602080910402602001604051908101604052809291908181526020018280546107cf9061113d565b801561081c5780601f106107f15761010080835404028352916020019161081c565b820191906000526020600020905b8154815290600101906020018083116107ff57829003601f168201915b505050505081526020019060010190610784565b50505050905090565b604051806040016040528061084c61098b565b8152602001600081525090565b6040518061012001604052806060815260200160608152602001606081526020016060815260200160008152602001606081526020016060815260200160008152602001600081525090565b8280548282559060005260206000209081019282156108f4579160200282015b828111156108f35782518290805190602001906108e3929190610905565b50916020019190600101906108c5565b5b50905061090191906109b9565b5090565b8280546109119061113d565b90600052602060002090601f016020900481019282610933576000855561097a565b82601f1061094c57805160ff191683800117855561097a565b8280016001018555821561097a579182015b8281111561097957825182559160200191906001019061095e565b5b50905061098791906109dd565b5090565b60405180610c8001604052806064905b6109a36109fa565b81526020019060019003908161099b5790505090565b5b808211156109d957600081816109d09190610a14565b506001016109ba565b5090565b5b808211156109f65760008160009055506001016109de565b5090565b604051806040016040528060608152602001606081525090565b508054610a209061113d565b6000825580601f10610a325750610a51565b601f016020900490600052602060002090810190610a5091906109dd565b5b50565b600060649050919050565b600081905092915050565b6000819050919050565b600081519050919050565b600082825260208201905092915050565b60005b83811015610aae578082015181840152602081019050610a93565b83811115610abd576000848401525b50505050565b6000601f19601f8301169050919050565b6000610adf82610a74565b610ae98185610a7f565b9350610af9818560208601610a90565b610b0281610ac3565b840191505092915050565b60006040830160008301518482036000860152610b2a8282610ad4565b91505060208301518482036020860152610b448282610ad4565b9150508091505092915050565b6000610b5d8383610b0d565b905092915050565b6000602082019050919050565b6000610b7d82610a54565b610b878185610a5f565b935083602082028501610b9985610a6a565b8060005b85811015610bd55784840389528151610bb68582610b51565b9450610bc183610b65565b925060208a01995050600181019050610b9d565b50829750879550505050505092915050565b6000819050919050565b610bfa81610be7565b82525050565b60006040830160008301518482036000860152610c1d8282610b72565b9150506020830151610c326020860182610bf1565b508091505092915050565b60006020820190508181036000830152610c578184610c00565b905092915050565b6000610120830160008301518482036000860152610c7d8282610ad4565b91505060208301518482036020860152610c978282610ad4565b91505060408301518482036040860152610cb18282610ad4565b91505060608301518482036060860152610ccb8282610ad4565b9150506080830151610ce06080860182610bf1565b5060a083015184820360a0860152610cf88282610ad4565b91505060c083015184820360c0860152610d128282610ad4565b91505060e0830151610d2760e0860182610bf1565b50610100830151610d3c610100860182610bf1565b508091505092915050565b60006020820190508181036000830152610d618184610c5f565b905092915050565b600081519050919050565b600082825260208201905092915050565b6000819050602082019050919050565b6000610da18383610ad4565b905092915050565b6000602082019050919050565b6000610dc182610d69565b610dcb8185610d74565b935083602082028501610ddd85610d85565b8060005b85811015610e195784840389528151610dfa8582610d95565b9450610e0583610da9565b925060208a01995050600181019050610de1565b50829750879550505050505092915050565b60006020820190508181036000830152610e458184610db6565b905092915050565b6000604051905090565b600080fd5b600080fd5b600080fd5b7f4e487b7100000000000000000000000000000000000000000000000000000000600052604160045260246000fd5b610e9e82610ac3565b810181811067ffffffffffffffff82111715610ebd57610ebc610e66565b5b80604052505050565b6000610ed0610e4d565b9050610edc8282610e95565b919050565b600067ffffffffffffffff821115610efc57610efb610e66565b5b602082029050602081019050919050565b600080fd5b600080fd5b600067ffffffffffffffff821115610f3257610f31610e66565b5b610f3b82610ac3565b9050602081019050919050565b82818337600083830152505050565b6000610f6a610f6584610f17565b610ec6565b905082815260208101848484011115610f8657610f85610f12565b5b610f91848285610f48565b509392505050565b600082601f830112610fae57610fad610e61565b5b8135610fbe848260208601610f57565b91505092915050565b6000610fda610fd584610ee1565b610ec6565b90508083825260208201905060208402830185811115610ffd57610ffc610f0d565b5b835b8181101561104457803567ffffffffffffffff81111561102257611021610e61565b5b80860161102f8982610f99565b85526020850194505050602081019050610fff565b5050509392505050565b600082601f83011261106357611062610e61565b5b8135611073848260208601610fc7565b91505092915050565b60006020828403121561109257611091610e57565b5b600082013567ffffffffffffffff8111156110b0576110af610e5c565b5b6110bc8482850161104e565b91505092915050565b6000602082840312156110db576110da610e57565b5b600082013567ffffffffffffffff8111156110f9576110f8610e5c565b5b61110584828501610f99565b91505092915050565b7f4e487b7100000000000000000000000000000000000000000000000000000000600052602260045260246000fd5b6000600282049050600182168061115557607f821691505b602082108114156111695761116861110e565b5b5091905056fea2646970667358221220a78325f5a9e955b9d2f8e0fe8ebc8da059c8a31049bf5292444efec30aa8029564736f6c634300080b0033a2646970667358221220564065a2cf2989c8b1db996b0959085f747f94e5de244dd515a941a1a985da5d64736f6c634300080b0033",
  "immutableReferences": {},
  "source": "// SPDX-License-Identifier: MIT\npragma solidity >=0.6.0;\npragma experimental ABIEncoderV2;\n\nimport \"./DataStruct.sol\";\nimport \"./EsToken.sol\";\n\n\ncontract CadastralContract{\n    mapping(string => EsToken) nowEstateList;\n    uint esCount;\n    uint totalCount;\n    uint flag;\n    string [] temp;\n    uint tes;\n\n    constructor() {\n        esCount = 0;\n        totalCount = 0;\n        flag = 0;\n    }\n\n    event eventSplit(\n        string [] parentId,\n        string [] childId,\n        string changeDate\n    );\n\n    event eventCreate(\n        string Id,\n        string createDate,\n        string endDate,\n        string county,\n        uint townShip,\n        uint reason,\n        uint changedTag,\n        Point [100] pList,\n        uint numOfPoint,\n        uint functional,\n        string eventdata,\n        string [] other\n    );\n\n    event eventMerge(\n        string childId,\n        string [] parentId,\n        string changeDate\n    );\n\n    event eventDelete(\n        string Id,\n        string begDate,\n        string endDate,\n        string data\n    );\n\n    // function create(string memory id,Data memory data,Polygon memory poly,string [] memory pa) public  payable{\n    function create(\n        string memory id,\n        Data memory data,\n        Polygon memory poly,\n        string [] memory pa,\n        uint functional,\n        string memory eventdata,\n        string [] memory other\n    ) \n        public  \n        payable\n    {\n        EsToken estate = new EsToken(id,data,poly,pa);\n        nowEstateList[id] = estate;\n        esCount += 1;\n        totalCount += 1;\n        if(flag == 0){\n            emit eventCreate(id,data.begDate,data.endDate,data.county,data.townShip,data.reason,data.changeTag,poly.pList,poly.numOfPoint,functional,eventdata,other);\n        }\n    }\n\n\n    function deleteEst(\n        string memory Id,\n        string memory begDate,\n        string memory endDate,\n        string memory data\n    ) \n        public\n        payable\n    {\n        esCount -=1;\n        emit eventDelete(Id,begDate,endDate,data);\n    }\n\n\n    function split(\n        string [] memory sId,\n        string [] memory newIdList,\n        Data [] memory newDataList,\n        Polygon [] memory polygonList,\n        uint numOfnewEstate,\n        uint functional,\n        string memory eventdata\n    )\n        public\n        payable\n    {\n        EsToken estate = nowEstateList[sId[0]];\n        estate.setEndDate(newDataList[0].begDate);\n        estate.setChildren(newIdList);\n\n        for(uint i = 0;i < numOfnewEstate;i++){\n            create(newIdList[i],newDataList[i],polygonList[i],temp,functional,eventdata,sId);\n        }\n\n        emit eventSplit(sId,newIdList,newDataList[0].begDate);\n    }\n\n    function merge(\n        string [] memory mIdList,\n        string memory newId,\n        Data memory data,\n        Polygon memory polygon,\n        uint numOfMergeEstate,\n        uint functional,\n        string memory eventdata\n    ) \n        public\n        payable\n    {\n        EsToken estate;\n        tes = numOfMergeEstate;\n        for(uint i = 0;i < numOfMergeEstate;i++){\n            estate = nowEstateList[mIdList[i]];\n            estate.setEndDate(data.begDate);\n            estate.setChildren(temp);\n        }\n        create(newId,data,polygon,mIdList,functional,eventdata,mIdList);\n        emit eventMerge(newId,mIdList,data.begDate);\n    }\n\n    // function getEstateAddress(string memory id) public view returns(address){\n    //     string memory tmp = \"\";\n    //     if(keccak256(abi.encodePacked(changeIdList[id])) != keccak256(abi.encodePacked(tmp))){\n    //         return address(nowEstateList[changeIdList[id]]);\n    //     }\n    //     else{\n    //         return address(nowEstateList[id]);\n    //     }\n    // }\n    function getEstateData(string memory Id)\n        public \n        view \n        returns(\n            Data memory,\n            Polygon memory,\n            string [] memory,\n            string [] memory\n        )\n    {\n        EsToken estate = nowEstateList[Id];\n        Data memory data = estate.getData();\n        Polygon memory poly = estate.getPolygon();\n        string [] memory pa = estate.getParents();\n        string [] memory chi = estate.getChildren();\n        return (\n            data,\n            poly,\n            pa,\n            chi\n        );\n    }    \n}",
  "sourcePath": "/home/mozixreality/Documents/Collage/Project/estate_blockchain/contracts/CadastralContract.sol",
  "compiler": {
    "name": "solc",
    "version": "0.8.11+commit.d7f03943.Emscripten.clang"
  },
  "schemaVersion": "3.4.5",
  "updatedAt": "2022-05-08T13:18:20.456Z",
  "networkType": "ethereum",
  "devdoc": {
    "kind": "dev",
    "methods": {},
    "version": 1
  },
  "userdoc": {
    "kind": "user",
    "methods": {},
    "version": 1
  }
}