{
  "contractName": "CadastralContract",
  "abi": [
    {
      "inputs": [],
      "stateMutability": "nonpayable",
      "type": "constructor"
    },
    {
      "anonymous": false,
      "inputs": [
        {
          "components": [
            {
              "internalType": "string",
              "name": "Id",
              "type": "string"
            },
            {
              "internalType": "string",
              "name": "createDate",
              "type": "string"
            },
            {
              "internalType": "string",
              "name": "endDate",
              "type": "string"
            },
            {
              "internalType": "string",
              "name": "county",
              "type": "string"
            },
            {
              "internalType": "uint256",
              "name": "townShip",
              "type": "uint256"
            },
            {
              "internalType": "uint256",
              "name": "reason",
              "type": "uint256"
            },
            {
              "internalType": "uint256",
              "name": "changedTag",
              "type": "uint256"
            },
            {
              "components": [
                {
                  "internalType": "string",
                  "name": "x",
                  "type": "string"
                },
                {
                  "internalType": "string",
                  "name": "y",
                  "type": "string"
                }
              ],
              "internalType": "struct Point[100]",
              "name": "pList",
              "type": "tuple[100]"
            },
            {
              "internalType": "uint256",
              "name": "numOfPoint",
              "type": "uint256"
            },
            {
              "internalType": "uint256",
              "name": "functional",
              "type": "uint256"
            },
            {
              "internalType": "string",
              "name": "enventdata",
              "type": "string"
            },
            {
              "internalType": "string[]",
              "name": "other",
              "type": "string[]"
            }
          ],
          "indexed": false,
          "internalType": "struct EventCreateParam",
          "name": "param",
          "type": "tuple"
        },
        {
          "indexed": false,
          "internalType": "uint256",
          "name": "entityId",
          "type": "uint256"
        },
        {
          "indexed": false,
          "internalType": "string",
          "name": "entityType",
          "type": "string"
        }
      ],
      "name": "eventCreate",
      "type": "event"
    },
    {
      "anonymous": false,
      "inputs": [
        {
          "indexed": false,
          "internalType": "string",
          "name": "Id",
          "type": "string"
        },
        {
          "indexed": false,
          "internalType": "string",
          "name": "begDate",
          "type": "string"
        },
        {
          "indexed": false,
          "internalType": "string",
          "name": "endDate",
          "type": "string"
        },
        {
          "indexed": false,
          "internalType": "string",
          "name": "data",
          "type": "string"
        },
        {
          "indexed": false,
          "internalType": "uint256",
          "name": "entityId",
          "type": "uint256"
        },
        {
          "indexed": false,
          "internalType": "string",
          "name": "entityType",
          "type": "string"
        }
      ],
      "name": "eventDelete",
      "type": "event"
    },
    {
      "anonymous": false,
      "inputs": [
        {
          "indexed": false,
          "internalType": "string",
          "name": "childId",
          "type": "string"
        },
        {
          "indexed": false,
          "internalType": "string[]",
          "name": "parentId",
          "type": "string[]"
        },
        {
          "indexed": false,
          "internalType": "string",
          "name": "changeDate",
          "type": "string"
        },
        {
          "indexed": false,
          "internalType": "uint256",
          "name": "entityId",
          "type": "uint256"
        },
        {
          "indexed": false,
          "internalType": "string",
          "name": "entityType",
          "type": "string"
        }
      ],
      "name": "eventMerge",
      "type": "event"
    },
    {
      "anonymous": false,
      "inputs": [
        {
          "indexed": false,
          "internalType": "string[]",
          "name": "parentId",
          "type": "string[]"
        },
        {
          "indexed": false,
          "internalType": "string[]",
          "name": "childId",
          "type": "string[]"
        },
        {
          "indexed": false,
          "internalType": "string",
          "name": "changeDate",
          "type": "string"
        },
        {
          "indexed": false,
          "internalType": "uint256",
          "name": "entityId",
          "type": "uint256"
        },
        {
          "indexed": false,
          "internalType": "string",
          "name": "entityType",
          "type": "string"
        }
      ],
      "name": "eventSplit",
      "type": "event"
    },
    {
      "inputs": [
        {
          "components": [
            {
              "internalType": "string",
              "name": "id",
              "type": "string"
            },
            {
              "components": [
                {
                  "internalType": "string",
                  "name": "pcno",
                  "type": "string"
                },
                {
                  "internalType": "string",
                  "name": "pmno",
                  "type": "string"
                },
                {
                  "internalType": "string",
                  "name": "scno",
                  "type": "string"
                },
                {
                  "internalType": "string",
                  "name": "county",
                  "type": "string"
                },
                {
                  "internalType": "uint256",
                  "name": "townShip",
                  "type": "uint256"
                },
                {
                  "internalType": "string",
                  "name": "begDate",
                  "type": "string"
                },
                {
                  "internalType": "string",
                  "name": "endDate",
                  "type": "string"
                },
                {
                  "internalType": "uint256",
                  "name": "reason",
                  "type": "uint256"
                },
                {
                  "internalType": "uint256",
                  "name": "changeTag",
                  "type": "uint256"
                }
              ],
              "internalType": "struct Data",
              "name": "data",
              "type": "tuple"
            },
            {
              "components": [
                {
                  "components": [
                    {
                      "internalType": "string",
                      "name": "x",
                      "type": "string"
                    },
                    {
                      "internalType": "string",
                      "name": "y",
                      "type": "string"
                    }
                  ],
                  "internalType": "struct Point[100]",
                  "name": "pList",
                  "type": "tuple[100]"
                },
                {
                  "internalType": "uint256",
                  "name": "numOfPoint",
                  "type": "uint256"
                }
              ],
              "internalType": "struct Polygon",
              "name": "poly",
              "type": "tuple"
            },
            {
              "internalType": "string[]",
              "name": "pa",
              "type": "string[]"
            },
            {
              "internalType": "uint256",
              "name": "functional",
              "type": "uint256"
            },
            {
              "internalType": "string",
              "name": "eventdata",
              "type": "string"
            },
            {
              "internalType": "string[]",
              "name": "other",
              "type": "string[]"
            }
          ],
          "internalType": "struct FunctionCreateParam",
          "name": "param",
          "type": "tuple"
        },
        {
          "internalType": "uint256",
          "name": "entityId",
          "type": "uint256"
        },
        {
          "internalType": "string",
          "name": "entityType",
          "type": "string"
        }
      ],
      "name": "create",
      "outputs": [],
      "stateMutability": "payable",
      "type": "function",
      "payable": true
    },
    {
      "inputs": [
        {
          "internalType": "string",
          "name": "id",
          "type": "string"
        },
        {
          "internalType": "string",
          "name": "begDate",
          "type": "string"
        },
        {
          "internalType": "string",
          "name": "endDate",
          "type": "string"
        },
        {
          "internalType": "string",
          "name": "data",
          "type": "string"
        },
        {
          "internalType": "uint256",
          "name": "entityId",
          "type": "uint256"
        },
        {
          "internalType": "string",
          "name": "entityType",
          "type": "string"
        }
      ],
      "name": "deleteEst",
      "outputs": [],
      "stateMutability": "payable",
      "type": "function",
      "payable": true
    },
    {
      "inputs": [
        {
          "internalType": "string[]",
          "name": "sId",
          "type": "string[]"
        },
        {
          "internalType": "string[]",
          "name": "newIdList",
          "type": "string[]"
        },
        {
          "components": [
            {
              "internalType": "string",
              "name": "pcno",
              "type": "string"
            },
            {
              "internalType": "string",
              "name": "pmno",
              "type": "string"
            },
            {
              "internalType": "string",
              "name": "scno",
              "type": "string"
            },
            {
              "internalType": "string",
              "name": "county",
              "type": "string"
            },
            {
              "internalType": "uint256",
              "name": "townShip",
              "type": "uint256"
            },
            {
              "internalType": "string",
              "name": "begDate",
              "type": "string"
            },
            {
              "internalType": "string",
              "name": "endDate",
              "type": "string"
            },
            {
              "internalType": "uint256",
              "name": "reason",
              "type": "uint256"
            },
            {
              "internalType": "uint256",
              "name": "changeTag",
              "type": "uint256"
            }
          ],
          "internalType": "struct Data[]",
          "name": "newDataList",
          "type": "tuple[]"
        },
        {
          "components": [
            {
              "components": [
                {
                  "internalType": "string",
                  "name": "x",
                  "type": "string"
                },
                {
                  "internalType": "string",
                  "name": "y",
                  "type": "string"
                }
              ],
              "internalType": "struct Point[100]",
              "name": "pList",
              "type": "tuple[100]"
            },
            {
              "internalType": "uint256",
              "name": "numOfPoint",
              "type": "uint256"
            }
          ],
          "internalType": "struct Polygon[]",
          "name": "polygonList",
          "type": "tuple[]"
        },
        {
          "internalType": "uint256",
          "name": "numOfnewEstate",
          "type": "uint256"
        },
        {
          "internalType": "uint256",
          "name": "functional",
          "type": "uint256"
        },
        {
          "internalType": "string",
          "name": "eventdata",
          "type": "string"
        },
        {
          "internalType": "uint256",
          "name": "entityId",
          "type": "uint256"
        },
        {
          "internalType": "string",
          "name": "entityType",
          "type": "string"
        }
      ],
      "name": "split",
      "outputs": [],
      "stateMutability": "payable",
      "type": "function",
      "payable": true
    },
    {
      "inputs": [
        {
          "internalType": "string[]",
          "name": "mIdList",
          "type": "string[]"
        },
        {
          "internalType": "string",
          "name": "newId",
          "type": "string"
        },
        {
          "components": [
            {
              "internalType": "string",
              "name": "pcno",
              "type": "string"
            },
            {
              "internalType": "string",
              "name": "pmno",
              "type": "string"
            },
            {
              "internalType": "string",
              "name": "scno",
              "type": "string"
            },
            {
              "internalType": "string",
              "name": "county",
              "type": "string"
            },
            {
              "internalType": "uint256",
              "name": "townShip",
              "type": "uint256"
            },
            {
              "internalType": "string",
              "name": "begDate",
              "type": "string"
            },
            {
              "internalType": "string",
              "name": "endDate",
              "type": "string"
            },
            {
              "internalType": "uint256",
              "name": "reason",
              "type": "uint256"
            },
            {
              "internalType": "uint256",
              "name": "changeTag",
              "type": "uint256"
            }
          ],
          "internalType": "struct Data",
          "name": "data",
          "type": "tuple"
        },
        {
          "components": [
            {
              "components": [
                {
                  "internalType": "string",
                  "name": "x",
                  "type": "string"
                },
                {
                  "internalType": "string",
                  "name": "y",
                  "type": "string"
                }
              ],
              "internalType": "struct Point[100]",
              "name": "pList",
              "type": "tuple[100]"
            },
            {
              "internalType": "uint256",
              "name": "numOfPoint",
              "type": "uint256"
            }
          ],
          "internalType": "struct Polygon",
          "name": "polygon",
          "type": "tuple"
        },
        {
          "internalType": "uint256",
          "name": "numOfMergeEstate",
          "type": "uint256"
        },
        {
          "internalType": "uint256",
          "name": "functional",
          "type": "uint256"
        },
        {
          "internalType": "string",
          "name": "eventdata",
          "type": "string"
        },
        {
          "internalType": "uint256",
          "name": "entityId",
          "type": "uint256"
        },
        {
          "internalType": "string",
          "name": "entityType",
          "type": "string"
        }
      ],
      "name": "merge",
      "outputs": [],
      "stateMutability": "payable",
      "type": "function",
      "payable": true
    },
    {
      "inputs": [
        {
          "internalType": "string",
          "name": "Id",
          "type": "string"
        }
      ],
      "name": "getEstateData",
      "outputs": [
        {
          "components": [
            {
              "internalType": "string",
              "name": "pcno",
              "type": "string"
            },
            {
              "internalType": "string",
              "name": "pmno",
              "type": "string"
            },
            {
              "internalType": "string",
              "name": "scno",
              "type": "string"
            },
            {
              "internalType": "string",
              "name": "county",
              "type": "string"
            },
            {
              "internalType": "uint256",
              "name": "townShip",
              "type": "uint256"
            },
            {
              "internalType": "string",
              "name": "begDate",
              "type": "string"
            },
            {
              "internalType": "string",
              "name": "endDate",
              "type": "string"
            },
            {
              "internalType": "uint256",
              "name": "reason",
              "type": "uint256"
            },
            {
              "internalType": "uint256",
              "name": "changeTag",
              "type": "uint256"
            }
          ],
          "internalType": "struct Data",
          "name": "",
          "type": "tuple"
        },
        {
          "components": [
            {
              "components": [
                {
                  "internalType": "string",
                  "name": "x",
                  "type": "string"
                },
                {
                  "internalType": "string",
                  "name": "y",
                  "type": "string"
                }
              ],
              "internalType": "struct Point[100]",
              "name": "pList",
              "type": "tuple[100]"
            },
            {
              "internalType": "uint256",
              "name": "numOfPoint",
              "type": "uint256"
            }
          ],
          "internalType": "struct Polygon",
          "name": "",
          "type": "tuple"
        },
        {
          "internalType": "string[]",
          "name": "",
          "type": "string[]"
        },
        {
          "internalType": "string[]",
          "name": "",
          "type": "string[]"
        }
      ],
      "stateMutability": "view",
      "type": "function",
      "constant": true
    }
  ],
  "bytecode": "0x608060405234801561001057600080fd5b50600060018190555060006002819055506000600381905550614c39806100386000396000f3fe608060405260043610620000505760003560e01c806307cf50de14620000555780631c91ad42146200007557806320bd4be614620000955780637093ff5b14620000b5578063f935205514620000fc575b600080fd5b6200007360048036038101906200006d9190620012b9565b6200011c565b005b6200009360048036038101906200008d9190620015d8565b6200031f565b005b620000b36004803603810190620000ad919062001865565b62000501565b005b348015620000c257600080fd5b50620000e16004803603810190620000db919062001a03565b6200086a565b604051620000f3949392919062001e0f565b60405180910390f35b6200011a600480360381019062000114919062001e78565b62000ac9565b005b60008660058190555060005b878110156200028a5760008c828151811062000149576200014862001fb5565b5b602002602001015160405162000160919062002026565b908152602001604051809103902060009054906101000a900473ffffffffffffffffffffffffffffffffffffffff1691508173ffffffffffffffffffffffffffffffffffffffff1663940944208b60a001516040518263ffffffff1660e01b8152600401620001d0919062002091565b600060405180830381600087803b158015620001eb57600080fd5b505af115801562000200573d6000803e3d6000fd5b505050508173ffffffffffffffffffffffffffffffffffffffff16636d8012b760046040518263ffffffff1660e01b81526004016200024091906200227e565b600060405180830381600087803b1580156200025b57600080fd5b505af115801562000270573d6000803e3d6000fd5b5050505080806200028190620022d1565b91505062000128565b50620002cb6040518060e001604052808c81526020018b81526020018a81526020018d81526020018881526020018781526020018d8152508585856200031f565b7f9007a1b8fcb6d4eca2bbdd6749ed26d4aa30ebf57c0c99f09b6cd25d9db2479b8a8c8b60a001518787876040516200030a9695949392919062002363565b60405180910390a15050505050505050505050565b60008460000151856020015186604001518760600151604051620003439062000b32565b620003529493929190620023de565b604051809103906000f0801580156200036f573d6000803e3d6000fd5b509050806000866000015160405162000389919062002026565b908152602001604051809103902060006101000a81548173ffffffffffffffffffffffffffffffffffffffff021916908373ffffffffffffffffffffffffffffffffffffffff1602179055506001806000828254620003e9919062002447565b9250508190555060016002600082825462000405919062002447565b9250508190555060006003541415620004fa577f421b91c0d5b9aa936b4ede139c32bc61a07416fde6226e795644f2922a98f1b760405180610180016040528087600001518152602001876020015160a001518152602001876020015160c00151815260200187602001516060015181526020018760200151608001518152602001876020015160e00151815260200187602001516101000151815260200187604001516000015181526020018760400151602001518152602001876080015181526020018760a0015181526020018760c00151815250858585604051620004f194939291906200267c565b60405180910390a15b5050505050565b6000808b6000815181106200051b576200051a62001fb5565b5b602002602001015160405162000532919062002026565b908152602001604051809103902060009054906101000a900473ffffffffffffffffffffffffffffffffffffffff1690508073ffffffffffffffffffffffffffffffffffffffff1663940944208a60008151811062000596576200059562001fb5565b5b602002602001015160a001516040518263ffffffff1660e01b8152600401620005c0919062002091565b600060405180830381600087803b158015620005db57600080fd5b505af1158015620005f0573d6000803e3d6000fd5b505050508073ffffffffffffffffffffffffffffffffffffffff16636d8012b78b6040518263ffffffff1660e01b81526004016200062f9190620026c9565b600060405180830381600087803b1580156200064a57600080fd5b505af11580156200065f573d6000803e3d6000fd5b5050505060005b87811015620007f757620007e16040518060e001604052808d848151811062000694576200069362001fb5565b5b602002602001015181526020018c8481518110620006b757620006b662001fb5565b5b602002602001015181526020018b8481518110620006da57620006d962001fb5565b5b602002602001015181526020016004805480602002602001604051908101604052809291908181526020016000905b82821015620007bf5783829060005260206000200180546200072b9062002104565b80601f0160208091040260200160405190810160405280929190818152602001828054620007599062002104565b8015620007aa5780601f106200077e57610100808354040283529160200191620007aa565b820191906000526020600020905b8154815290600101906020018083116200078c57829003601f168201915b50505050508152602001906001019062000709565b5050505081526020018981526020018881526020018e8152508686866200031f565b8080620007ee90620022d1565b91505062000666565b507f567477d027bc1a56a6b49edaefccb83b30b86ed9044702fccabc15beed5d1bb68b8b8b60008151811062000832576200083162001fb5565b5b602002602001015160a001518787876040516200085596959493929190620026ed565b60405180910390a15050505050505050505050565b6200087462000b40565b6200087e62000b8c565b6060806000808660405162000894919062002026565b908152602001604051809103902060009054906101000a900473ffffffffffffffffffffffffffffffffffffffff16905060008173ffffffffffffffffffffffffffffffffffffffff16633bc5de306040518163ffffffff1660e01b8152600401600060405180830381865afa15801562000913573d6000803e3d6000fd5b505050506040513d6000823e3d601f19601f820116820180604052508101906200093e9190620029ae565b905060008273ffffffffffffffffffffffffffffffffffffffff166313d743bc6040518163ffffffff1660e01b8152600401600060405180830381865afa1580156200098e573d6000803e3d6000fd5b505050506040513d6000823e3d601f19601f82011682018060405250810190620009b9919062002bca565b905060008373ffffffffffffffffffffffffffffffffffffffff1663dd6133b56040518163ffffffff1660e01b8152600401600060405180830381865afa15801562000a09573d6000803e3d6000fd5b505050506040513d6000823e3d601f19601f8201168201806040525081019062000a34919062002ce3565b905060008473ffffffffffffffffffffffffffffffffffffffff16634892e8e86040518163ffffffff1660e01b8152600401600060405180830381865afa15801562000a84573d6000803e3d6000fd5b505050506040513d6000823e3d601f19601f8201168201806040525081019062000aaf919062002ce3565b905083838383985098509850985050505050509193509193565b600180600082825462000add919062002d34565b925050819055507fea21ea0a94b464b1a2c4415dbefa465d3cae3c46b94855bc72116b4286e510d78787878787878760405162000b21979695949392919062002d6f565b60405180910390a150505050505050565b611e028062002e0283390190565b6040518061012001604052806060815260200160608152602001606081526020016060815260200160008152602001606081526020016060815260200160008152602001600081525090565b604051806040016040528062000ba162000bae565b8152602001600081525090565b60405180610c8001604052806064905b62000bc862000bdf565b81526020019060019003908162000bbe5790505090565b604051806040016040528060608152602001606081525090565b6000604051905090565b600080fd5b600080fd5b600080fd5b6000601f19601f8301169050919050565b7f4e487b7100000000000000000000000000000000000000000000000000000000600052604160045260246000fd5b62000c5d8262000c12565b810181811067ffffffffffffffff8211171562000c7f5762000c7e62000c23565b5b80604052505050565b600062000c9462000bf9565b905062000ca2828262000c52565b919050565b600067ffffffffffffffff82111562000cc55762000cc462000c23565b5b602082029050602081019050919050565b600080fd5b600080fd5b600067ffffffffffffffff82111562000cfe5762000cfd62000c23565b5b62000d098262000c12565b9050602081019050919050565b82818337600083830152505050565b600062000d3c62000d368462000ce0565b62000c88565b90508281526020810184848401111562000d5b5762000d5a62000cdb565b5b62000d6884828562000d16565b509392505050565b600082601f83011262000d885762000d8762000c0d565b5b813562000d9a84826020860162000d25565b91505092915050565b600062000dba62000db48462000ca7565b62000c88565b9050808382526020820190506020840283018581111562000de05762000ddf62000cd6565b5b835b8181101562000e2e57803567ffffffffffffffff81111562000e095762000e0862000c0d565b5b80860162000e18898262000d70565b8552602085019450505060208101905062000de2565b5050509392505050565b600082601f83011262000e505762000e4f62000c0d565b5b813562000e6284826020860162000da3565b91505092915050565b600080fd5b600080fd5b6000819050919050565b62000e8a8162000e75565b811462000e9657600080fd5b50565b60008135905062000eaa8162000e7f565b92915050565b6000610120828403121562000eca5762000ec962000e6b565b5b62000ed761012062000c88565b9050600082013567ffffffffffffffff81111562000efa5762000ef962000e70565b5b62000f088482850162000d70565b600083015250602082013567ffffffffffffffff81111562000f2f5762000f2e62000e70565b5b62000f3d8482850162000d70565b602083015250604082013567ffffffffffffffff81111562000f645762000f6362000e70565b5b62000f728482850162000d70565b604083015250606082013567ffffffffffffffff81111562000f995762000f9862000e70565b5b62000fa78482850162000d70565b606083015250608062000fbd8482850162000e99565b60808301525060a082013567ffffffffffffffff81111562000fe45762000fe362000e70565b5b62000ff28482850162000d70565b60a08301525060c082013567ffffffffffffffff81111562001019576200101862000e70565b5b620010278482850162000d70565b60c08301525060e06200103d8482850162000e99565b60e083015250610100620010548482850162000e99565b6101008301525092915050565b600067ffffffffffffffff8211156200107f576200107e62000c23565b5b602082029050919050565b600060408284031215620010a357620010a262000e6b565b5b620010af604062000c88565b9050600082013567ffffffffffffffff811115620010d257620010d162000e70565b5b620010e08482850162000d70565b600083015250602082013567ffffffffffffffff81111562001107576200110662000e70565b5b620011158482850162000d70565b60208301525092915050565b600062001138620011328462001061565b62000c88565b9050806020840283018581111562001155576200115462000cd6565b5b835b81811015620011a357803567ffffffffffffffff8111156200117e576200117d62000c0d565b5b8086016200118d89826200108a565b8552602085019450505060208101905062001157565b5050509392505050565b600082601f830112620011c557620011c462000c0d565b5b6064620011d484828562001121565b91505092915050565b600060408284031215620011f657620011f562000e6b565b5b62001202604062000c88565b9050600082013567ffffffffffffffff81111562001225576200122462000e70565b5b6200123384828501620011ad565b6000830152506020620012498482850162000e99565b60208301525092915050565b600080fd5b60008083601f84011262001273576200127262000c0d565b5b8235905067ffffffffffffffff81111562001293576200129262001255565b5b602083019150836001820283011115620012b257620012b162000cd6565b5b9250929050565b6000806000806000806000806000806101208b8d031215620012e057620012df62000c03565b5b60008b013567ffffffffffffffff81111562001301576200130062000c08565b5b6200130f8d828e0162000e38565b9a505060208b013567ffffffffffffffff81111562001333576200133262000c08565b5b620013418d828e0162000d70565b99505060408b013567ffffffffffffffff81111562001365576200136462000c08565b5b620013738d828e0162000eb0565b98505060608b013567ffffffffffffffff81111562001397576200139662000c08565b5b620013a58d828e01620011dd565b9750506080620013b88d828e0162000e99565b96505060a0620013cb8d828e0162000e99565b95505060c08b013567ffffffffffffffff811115620013ef57620013ee62000c08565b5b620013fd8d828e0162000d70565b94505060e0620014108d828e0162000e99565b9350506101008b013567ffffffffffffffff81111562001435576200143462000c08565b5b620014438d828e016200125a565b92509250509295989b9194979a5092959850565b600060e0828403121562001470576200146f62000e6b565b5b6200147c60e062000c88565b9050600082013567ffffffffffffffff8111156200149f576200149e62000e70565b5b620014ad8482850162000d70565b600083015250602082013567ffffffffffffffff811115620014d457620014d362000e70565b5b620014e28482850162000eb0565b602083015250604082013567ffffffffffffffff81111562001509576200150862000e70565b5b6200151784828501620011dd565b604083015250606082013567ffffffffffffffff8111156200153e576200153d62000e70565b5b6200154c8482850162000e38565b6060830152506080620015628482850162000e99565b60808301525060a082013567ffffffffffffffff81111562001589576200158862000e70565b5b620015978482850162000d70565b60a08301525060c082013567ffffffffffffffff811115620015be57620015bd62000e70565b5b620015cc8482850162000e38565b60c08301525092915050565b60008060008060608587031215620015f557620015f462000c03565b5b600085013567ffffffffffffffff81111562001616576200161562000c08565b5b620016248782880162001457565b9450506020620016378782880162000e99565b935050604085013567ffffffffffffffff8111156200165b576200165a62000c08565b5b62001669878288016200125a565b925092505092959194509250565b600067ffffffffffffffff82111562001695576200169462000c23565b5b602082029050602081019050919050565b6000620016bd620016b78462001677565b62000c88565b90508083825260208201905060208402830185811115620016e357620016e262000cd6565b5b835b818110156200173157803567ffffffffffffffff8111156200170c576200170b62000c0d565b5b8086016200171b898262000eb0565b85526020850194505050602081019050620016e5565b5050509392505050565b600082601f83011262001753576200175262000c0d565b5b813562001765848260208601620016a6565b91505092915050565b600067ffffffffffffffff8211156200178c576200178b62000c23565b5b602082029050602081019050919050565b6000620017b4620017ae846200176e565b62000c88565b90508083825260208201905060208402830185811115620017da57620017d962000cd6565b5b835b818110156200182857803567ffffffffffffffff81111562001803576200180262000c0d565b5b808601620018128982620011dd565b85526020850194505050602081019050620017dc565b5050509392505050565b600082601f8301126200184a576200184962000c0d565b5b81356200185c8482602086016200179d565b91505092915050565b6000806000806000806000806000806101208b8d0312156200188c576200188b62000c03565b5b60008b013567ffffffffffffffff811115620018ad57620018ac62000c08565b5b620018bb8d828e0162000e38565b9a505060208b013567ffffffffffffffff811115620018df57620018de62000c08565b5b620018ed8d828e0162000e38565b99505060408b013567ffffffffffffffff81111562001911576200191062000c08565b5b6200191f8d828e016200173b565b98505060608b013567ffffffffffffffff81111562001943576200194262000c08565b5b620019518d828e0162001832565b9750506080620019648d828e0162000e99565b96505060a0620019778d828e0162000e99565b95505060c08b013567ffffffffffffffff8111156200199b576200199a62000c08565b5b620019a98d828e0162000d70565b94505060e0620019bc8d828e0162000e99565b9350506101008b013567ffffffffffffffff811115620019e157620019e062000c08565b5b620019ef8d828e016200125a565b92509250509295989b9194979a5092959850565b60006020828403121562001a1c5762001a1b62000c03565b5b600082013567ffffffffffffffff81111562001a3d5762001a3c62000c08565b5b62001a4b8482850162000d70565b91505092915050565b600081519050919050565b600082825260208201905092915050565b60005b8381101562001a9057808201518184015260208101905062001a73565b8381111562001aa0576000848401525b50505050565b600062001ab38262001a54565b62001abf818562001a5f565b935062001ad181856020860162001a70565b62001adc8162000c12565b840191505092915050565b62001af28162000e75565b82525050565b600061012083016000830151848203600086015262001b18828262001aa6565b9150506020830151848203602086015262001b34828262001aa6565b9150506040830151848203604086015262001b50828262001aa6565b9150506060830151848203606086015262001b6c828262001aa6565b915050608083015162001b83608086018262001ae7565b5060a083015184820360a086015262001b9d828262001aa6565b91505060c083015184820360c086015262001bb9828262001aa6565b91505060e083015162001bd060e086018262001ae7565b5061010083015162001be761010086018262001ae7565b508091505092915050565b600060649050919050565b600081905092915050565b6000819050919050565b6000604083016000830151848203600086015262001c31828262001aa6565b9150506020830151848203602086015262001c4d828262001aa6565b9150508091505092915050565b600062001c68838362001c12565b905092915050565b6000602082019050919050565b600062001c8a8262001bf2565b62001c96818562001bfd565b93508360208202850162001caa8562001c08565b8060005b8581101562001cec578484038952815162001cca858262001c5a565b945062001cd78362001c70565b925060208a0199505060018101905062001cae565b50829750879550505050505092915050565b6000604083016000830151848203600086015262001d1d828262001c7d565b915050602083015162001d34602086018262001ae7565b508091505092915050565b600081519050919050565b600082825260208201905092915050565b6000819050602082019050919050565b600062001d79838362001aa6565b905092915050565b6000602082019050919050565b600062001d9b8262001d3f565b62001da7818562001d4a565b93508360208202850162001dbb8562001d5b565b8060005b8581101562001dfd578484038952815162001ddb858262001d6b565b945062001de88362001d81565b925060208a0199505060018101905062001dbf565b50829750879550505050505092915050565b6000608082019050818103600083015262001e2b818762001af8565b9050818103602083015262001e41818662001cfe565b9050818103604083015262001e57818562001d8e565b9050818103606083015262001e6d818462001d8e565b905095945050505050565b600080600080600080600060c0888a03121562001e9a5762001e9962000c03565b5b600088013567ffffffffffffffff81111562001ebb5762001eba62000c08565b5b62001ec98a828b0162000d70565b975050602088013567ffffffffffffffff81111562001eed5762001eec62000c08565b5b62001efb8a828b0162000d70565b965050604088013567ffffffffffffffff81111562001f1f5762001f1e62000c08565b5b62001f2d8a828b0162000d70565b955050606088013567ffffffffffffffff81111562001f515762001f5062000c08565b5b62001f5f8a828b0162000d70565b945050608062001f728a828b0162000e99565b93505060a088013567ffffffffffffffff81111562001f965762001f9562000c08565b5b62001fa48a828b016200125a565b925092505092959891949750929550565b7f4e487b7100000000000000000000000000000000000000000000000000000000600052603260045260246000fd5b600081905092915050565b600062001ffc8262001a54565b62002008818562001fe4565b93506200201a81856020860162001a70565b80840191505092915050565b600062002034828462001fef565b915081905092915050565b600082825260208201905092915050565b60006200205d8262001a54565b6200206981856200203f565b93506200207b81856020860162001a70565b620020868162000c12565b840191505092915050565b60006020820190508181036000830152620020ad818462002050565b905092915050565b600081549050919050565b60008190508160005260206000209050919050565b7f4e487b7100000000000000000000000000000000000000000000000000000000600052602260045260246000fd5b600060028204905060018216806200211d57607f821691505b60208210811415620021345762002133620020d5565b5b50919050565b60008190508160005260206000209050919050565b600081546200215e8162002104565b6200216a818662001a5f565b945060018216600081146200218857600181146200219b57620021d2565b60ff1983168652602086019350620021d2565b620021a6856200213a565b60005b83811015620021ca57815481890152600182019150602081019050620021a9565b808801955050505b50505092915050565b6000620021e983836200214f565b905092915050565b6000600182019050919050565b60006200220b82620020b5565b62002217818562001d4a565b9350836020820285016200222b85620020c0565b8060005b858110156200226c578484038952816200224a8582620021db565b94506200225783620021f1565b925060208a019950506001810190506200222f565b50829750879550505050505092915050565b600060208201905081810360008301526200229a8184620021fe565b905092915050565b7f4e487b7100000000000000000000000000000000000000000000000000000000600052601160045260246000fd5b6000620022de8262000e75565b91507fffffffffffffffffffffffffffffffffffffffffffffffffffffffffffffffff821415620023145762002313620022a2565b5b600182019050919050565b6200232a8162000e75565b82525050565b60006200233e83856200203f565b93506200234d83858462000d16565b620023588362000c12565b840190509392505050565b600060a08201905081810360008301526200237f818962002050565b9050818103602083015262002395818862001d8e565b90508181036040830152620023ab818762002050565b9050620023bc60608301866200231f565b8181036080830152620023d181848662002330565b9050979650505050505050565b60006080820190508181036000830152620023fa818762002050565b9050818103602083015262002410818662001af8565b9050818103604083015262002426818562001cfe565b905081810360608301526200243c818462001d8e565b905095945050505050565b6000620024548262000e75565b9150620024618362000e75565b9250827fffffffffffffffffffffffffffffffffffffffffffffffffffffffffffffffff03821115620024995762002498620022a2565b5b828201905092915050565b600082825260208201905092915050565b6000620024c28262001d3f565b620024ce8185620024a4565b935083602082028501620024e28562001d5b565b8060005b8581101562002524578484038952815162002502858262001d6b565b94506200250f8362001d81565b925060208a01995050600181019050620024e6565b50829750879550505050505092915050565b600061018083016000830151848203600086015262002556828262001aa6565b9150506020830151848203602086015262002572828262001aa6565b915050604083015184820360408601526200258e828262001aa6565b91505060608301518482036060860152620025aa828262001aa6565b9150506080830151620025c1608086018262001ae7565b5060a0830151620025d660a086018262001ae7565b5060c0830151620025eb60c086018262001ae7565b5060e083015184820360e086015262002605828262001c7d565b9150506101008301516200261e61010086018262001ae7565b506101208301516200263561012086018262001ae7565b5061014083015184820361014086015262002651828262001aa6565b9150506101608301518482036101608601526200266f8282620024b5565b9150508091505092915050565b6000606082019050818103600083015262002698818762002536565b9050620026a960208301866200231f565b8181036040830152620026be81848662002330565b905095945050505050565b60006020820190508181036000830152620026e5818462001d8e565b905092915050565b600060a082019050818103600083015262002709818962001d8e565b905081810360208301526200271f818862001d8e565b9050818103604083015262002735818762002050565b90506200274660608301866200231f565b81810360808301526200275b81848662002330565b9050979650505050505050565b60006200277f620027798462000ce0565b62000c88565b9050828152602081018484840111156200279e576200279d62000cdb565b5b620027ab84828562001a70565b509392505050565b600082601f830112620027cb57620027ca62000c0d565b5b8151620027dd84826020860162002768565b91505092915050565b600081519050620027f78162000e7f565b92915050565b6000610120828403121562002817576200281662000e6b565b5b6200282461012062000c88565b9050600082015167ffffffffffffffff81111562002847576200284662000e70565b5b6200285584828501620027b3565b600083015250602082015167ffffffffffffffff8111156200287c576200287b62000e70565b5b6200288a84828501620027b3565b602083015250604082015167ffffffffffffffff811115620028b157620028b062000e70565b5b620028bf84828501620027b3565b604083015250606082015167ffffffffffffffff811115620028e657620028e562000e70565b5b620028f484828501620027b3565b60608301525060806200290a84828501620027e6565b60808301525060a082015167ffffffffffffffff81111562002931576200293062000e70565b5b6200293f84828501620027b3565b60a08301525060c082015167ffffffffffffffff81111562002966576200296562000e70565b5b6200297484828501620027b3565b60c08301525060e06200298a84828501620027e6565b60e083015250610100620029a184828501620027e6565b6101008301525092915050565b600060208284031215620029c757620029c662000c03565b5b600082015167ffffffffffffffff811115620029e857620029e762000c08565b5b620029f684828501620027fd565b91505092915050565b60006040828403121562002a185762002a1762000e6b565b5b62002a24604062000c88565b9050600082015167ffffffffffffffff81111562002a475762002a4662000e70565b5b62002a5584828501620027b3565b600083015250602082015167ffffffffffffffff81111562002a7c5762002a7b62000e70565b5b62002a8a84828501620027b3565b60208301525092915050565b600062002aad62002aa78462001061565b62000c88565b9050806020840283018581111562002aca5762002ac962000cd6565b5b835b8181101562002b1857805167ffffffffffffffff81111562002af35762002af262000c0d565b5b80860162002b028982620029ff565b8552602085019450505060208101905062002acc565b5050509392505050565b600082601f83011262002b3a5762002b3962000c0d565b5b606462002b4984828562002a96565b91505092915050565b60006040828403121562002b6b5762002b6a62000e6b565b5b62002b77604062000c88565b9050600082015167ffffffffffffffff81111562002b9a5762002b9962000e70565b5b62002ba88482850162002b22565b600083015250602062002bbe84828501620027e6565b60208301525092915050565b60006020828403121562002be35762002be262000c03565b5b600082015167ffffffffffffffff81111562002c045762002c0362000c08565b5b62002c128482850162002b52565b91505092915050565b600062002c3262002c2c8462000ca7565b62000c88565b9050808382526020820190506020840283018581111562002c585762002c5762000cd6565b5b835b8181101562002ca657805167ffffffffffffffff81111562002c815762002c8062000c0d565b5b80860162002c908982620027b3565b8552602085019450505060208101905062002c5a565b5050509392505050565b600082601f83011262002cc85762002cc762000c0d565b5b815162002cda84826020860162002c1b565b91505092915050565b60006020828403121562002cfc5762002cfb62000c03565b5b600082015167ffffffffffffffff81111562002d1d5762002d1c62000c08565b5b62002d2b8482850162002cb0565b91505092915050565b600062002d418262000e75565b915062002d4e8362000e75565b92508282101562002d645762002d63620022a2565b5b828203905092915050565b600060c082019050818103600083015262002d8b818a62002050565b9050818103602083015262002da1818962002050565b9050818103604083015262002db7818862002050565b9050818103606083015262002dcd818762002050565b905062002dde60808301866200231f565b81810360a083015262002df381848662002330565b90509897505050505050505056fe60806040523480156200001157600080fd5b5060405162001e0238038062001e02833981810160405281019062000037919062000a4e565b8260000151600160000190805190602001906200005692919062000246565b508260400151600160020190805190602001906200007692919062000246565b5082602001516001800190805190602001906200009592919062000246565b50826060015160016003019080519060200190620000b592919062000246565b5082608001516001600401819055508260a0015160016005019080519060200190620000e392919062000246565b508260c00151600160060190805190602001906200010392919062000246565b508260e0015160016007018190555082610100015160016008018190555060005b8260200151811015620001fb57826000015181606481106200014b576200014a62000b3c565b5b602002015160000151600a60000182606481106200016e576200016d62000b3c565b5b6002020160000190805190602001906200018a92919062000246565b5082600001518160648110620001a557620001a462000b3c565b5b602002015160200151600a6000018260648110620001c857620001c762000b3c565b5b600202016001019080519060200190620001e492919062000246565b508080620001f29062000b9a565b91505062000124565b508160200151600a60c801819055508060d3908051906020019062000222929190620002d7565b5083600090805190602001906200023b92919062000246565b505050505062000c4d565b828054620002549062000c17565b90600052602060002090601f016020900481019282620002785760008555620002c4565b82601f106200029357805160ff1916838001178555620002c4565b82800160010185558215620002c4579182015b82811115620002c3578251825591602001919060010190620002a6565b5b509050620002d391906200033e565b5090565b8280548282559060005260206000209081019282156200032b579160200282015b828111156200032a5782518290805190602001906200031992919062000246565b5091602001919060010190620002f8565b5b5090506200033a91906200035d565b5090565b5b80821115620003595760008160009055506001016200033f565b5090565b5b8082111562000381576000818162000377919062000385565b506001016200035e565b5090565b508054620003939062000c17565b6000825580601f10620003a75750620003c8565b601f016020900490600052602060002090810190620003c791906200033e565b5b50565b6000604051905090565b600080fd5b600080fd5b600080fd5b600080fd5b6000601f19601f8301169050919050565b7f4e487b7100000000000000000000000000000000000000000000000000000000600052604160045260246000fd5b6200043482620003e9565b810181811067ffffffffffffffff82111715620004565762000455620003fa565b5b80604052505050565b60006200046b620003cb565b905062000479828262000429565b919050565b600067ffffffffffffffff8211156200049c576200049b620003fa565b5b620004a782620003e9565b9050602081019050919050565b60005b83811015620004d4578082015181840152602081019050620004b7565b83811115620004e4576000848401525b50505050565b600062000501620004fb846200047e565b6200045f565b90508281526020810184848401111562000520576200051f620003e4565b5b6200052d848285620004b4565b509392505050565b600082601f8301126200054d576200054c620003df565b5b81516200055f848260208601620004ea565b91505092915050565b600080fd5b600080fd5b6000819050919050565b620005878162000572565b81146200059357600080fd5b50565b600081519050620005a7816200057c565b92915050565b60006101208284031215620005c757620005c662000568565b5b620005d46101206200045f565b9050600082015167ffffffffffffffff811115620005f757620005f66200056d565b5b620006058482850162000535565b600083015250602082015167ffffffffffffffff8111156200062c576200062b6200056d565b5b6200063a8482850162000535565b602083015250604082015167ffffffffffffffff8111156200066157620006606200056d565b5b6200066f8482850162000535565b604083015250606082015167ffffffffffffffff8111156200069657620006956200056d565b5b620006a48482850162000535565b6060830152506080620006ba8482850162000596565b60808301525060a082015167ffffffffffffffff811115620006e157620006e06200056d565b5b620006ef8482850162000535565b60a08301525060c082015167ffffffffffffffff8111156200071657620007156200056d565b5b620007248482850162000535565b60c08301525060e06200073a8482850162000596565b60e083015250610100620007518482850162000596565b6101008301525092915050565b600067ffffffffffffffff8211156200077c576200077b620003fa565b5b602082029050919050565b600080fd5b600060408284031215620007a557620007a462000568565b5b620007b160406200045f565b9050600082015167ffffffffffffffff811115620007d457620007d36200056d565b5b620007e28482850162000535565b600083015250602082015167ffffffffffffffff8111156200080957620008086200056d565b5b620008178482850162000535565b60208301525092915050565b60006200083a62000834846200075e565b6200045f565b9050806020840283018581111562000857576200085662000787565b5b835b81811015620008a557805167ffffffffffffffff81111562000880576200087f620003df565b5b8086016200088f89826200078c565b8552602085019450505060208101905062000859565b5050509392505050565b600082601f830112620008c757620008c6620003df565b5b6064620008d684828562000823565b91505092915050565b600060408284031215620008f857620008f762000568565b5b6200090460406200045f565b9050600082015167ffffffffffffffff8111156200092757620009266200056d565b5b6200093584828501620008af565b60008301525060206200094b8482850162000596565b60208301525092915050565b600067ffffffffffffffff821115620009755762000974620003fa565b5b602082029050602081019050919050565b60006200099d620009978462000957565b6200045f565b90508083825260208201905060208402830185811115620009c357620009c262000787565b5b835b8181101562000a1157805167ffffffffffffffff811115620009ec57620009eb620003df565b5b808601620009fb898262000535565b85526020850194505050602081019050620009c5565b5050509392505050565b600082601f83011262000a335762000a32620003df565b5b815162000a4584826020860162000986565b91505092915050565b6000806000806080858703121562000a6b5762000a6a620003d5565b5b600085015167ffffffffffffffff81111562000a8c5762000a8b620003da565b5b62000a9a8782880162000535565b945050602085015167ffffffffffffffff81111562000abe5762000abd620003da565b5b62000acc87828801620005ad565b935050604085015167ffffffffffffffff81111562000af05762000aef620003da565b5b62000afe87828801620008df565b925050606085015167ffffffffffffffff81111562000b225762000b21620003da565b5b62000b308782880162000a1b565b91505092959194509250565b7f4e487b7100000000000000000000000000000000000000000000000000000000600052603260045260246000fd5b7f4e487b7100000000000000000000000000000000000000000000000000000000600052601160045260246000fd5b600062000ba78262000572565b91507fffffffffffffffffffffffffffffffffffffffffffffffffffffffffffffffff82141562000bdd5762000bdc62000b6b565b5b600182019050919050565b7f4e487b7100000000000000000000000000000000000000000000000000000000600052602260045260246000fd5b6000600282049050600182168062000c3057607f821691505b6020821081141562000c475762000c4662000be8565b5b50919050565b6111a58062000c5d6000396000f3fe608060405234801561001057600080fd5b50600436106100625760003560e01c806313d743bc146100675780633bc5de30146100855780634892e8e8146100a35780636d8012b7146100c157806394094420146100dd578063dd6133b5146100f9575b600080fd5b61006f610117565b60405161007c9190610c3d565b60405180910390f35b61008d6102ab565b60405161009a9190610d47565b60405180910390f35b6100ab610650565b6040516100b89190610e2b565b60405180910390f35b6100db60048036038101906100d6919061107c565b610729565b005b6100f760048036038101906100f291906110c5565b610743565b005b610101610760565b60405161010e9190610e2b565b60405180910390f35b61011f610839565b600a60405180604001604052908160008201606480602002604051908101604052809291906000905b82821015610294578382600202016040518060400160405290816000820180546101719061113d565b80601f016020809104026020016040519081016040528092919081815260200182805461019d9061113d565b80156101ea5780601f106101bf576101008083540402835291602001916101ea565b820191906000526020600020905b8154815290600101906020018083116101cd57829003601f168201915b505050505081526020016001820180546102039061113d565b80601f016020809104026020016040519081016040528092919081815260200182805461022f9061113d565b801561027c5780601f106102515761010080835404028352916020019161027c565b820191906000526020600020905b81548152906001019060200180831161025f57829003601f168201915b50505050508152505081526020019060010190610148565b50505050815260200160c882015481525050905090565b6102b3610859565b6001604051806101200160405290816000820180546102d19061113d565b80601f01602080910402602001604051908101604052809291908181526020018280546102fd9061113d565b801561034a5780601f1061031f5761010080835404028352916020019161034a565b820191906000526020600020905b81548152906001019060200180831161032d57829003601f168201915b505050505081526020016001820180546103639061113d565b80601f016020809104026020016040519081016040528092919081815260200182805461038f9061113d565b80156103dc5780601f106103b1576101008083540402835291602001916103dc565b820191906000526020600020905b8154815290600101906020018083116103bf57829003601f168201915b505050505081526020016002820180546103f59061113d565b80601f01602080910402602001604051908101604052809291908181526020018280546104219061113d565b801561046e5780601f106104435761010080835404028352916020019161046e565b820191906000526020600020905b81548152906001019060200180831161045157829003601f168201915b505050505081526020016003820180546104879061113d565b80601f01602080910402602001604051908101604052809291908181526020018280546104b39061113d565b80156105005780601f106104d557610100808354040283529160200191610500565b820191906000526020600020905b8154815290600101906020018083116104e357829003601f168201915b50505050508152602001600482015481526020016005820180546105239061113d565b80601f016020809104026020016040519081016040528092919081815260200182805461054f9061113d565b801561059c5780601f106105715761010080835404028352916020019161059c565b820191906000526020600020905b81548152906001019060200180831161057f57829003601f168201915b505050505081526020016006820180546105b59061113d565b80601f01602080910402602001604051908101604052809291908181526020018280546105e19061113d565b801561062e5780601f106106035761010080835404028352916020019161062e565b820191906000526020600020905b81548152906001019060200180831161061157829003601f168201915b5050505050815260200160078201548152602001600882015481525050905090565b606060d4805480602002602001604051908101604052809291908181526020016000905b828210156107205783829060005260206000200180546106939061113d565b80601f01602080910402602001604051908101604052809291908181526020018280546106bf9061113d565b801561070c5780601f106106e15761010080835404028352916020019161070c565b820191906000526020600020905b8154815290600101906020018083116106ef57829003601f168201915b505050505081526020019060010190610674565b50505050905090565b8060d4908051906020019061073f9291906108a5565b5050565b806001600601908051906020019061075c929190610905565b5050565b606060d3805480602002602001604051908101604052809291908181526020016000905b828210156108305783829060005260206000200180546107a39061113d565b80601f01602080910402602001604051908101604052809291908181526020018280546107cf9061113d565b801561081c5780601f106107f15761010080835404028352916020019161081c565b820191906000526020600020905b8154815290600101906020018083116107ff57829003601f168201915b505050505081526020019060010190610784565b50505050905090565b604051806040016040528061084c61098b565b8152602001600081525090565b6040518061012001604052806060815260200160608152602001606081526020016060815260200160008152602001606081526020016060815260200160008152602001600081525090565b8280548282559060005260206000209081019282156108f4579160200282015b828111156108f35782518290805190602001906108e3929190610905565b50916020019190600101906108c5565b5b50905061090191906109b9565b5090565b8280546109119061113d565b90600052602060002090601f016020900481019282610933576000855561097a565b82601f1061094c57805160ff191683800117855561097a565b8280016001018555821561097a579182015b8281111561097957825182559160200191906001019061095e565b5b50905061098791906109dd565b5090565b60405180610c8001604052806064905b6109a36109fa565b81526020019060019003908161099b5790505090565b5b808211156109d957600081816109d09190610a14565b506001016109ba565b5090565b5b808211156109f65760008160009055506001016109de565b5090565b604051806040016040528060608152602001606081525090565b508054610a209061113d565b6000825580601f10610a325750610a51565b601f016020900490600052602060002090810190610a5091906109dd565b5b50565b600060649050919050565b600081905092915050565b6000819050919050565b600081519050919050565b600082825260208201905092915050565b60005b83811015610aae578082015181840152602081019050610a93565b83811115610abd576000848401525b50505050565b6000601f19601f8301169050919050565b6000610adf82610a74565b610ae98185610a7f565b9350610af9818560208601610a90565b610b0281610ac3565b840191505092915050565b60006040830160008301518482036000860152610b2a8282610ad4565b91505060208301518482036020860152610b448282610ad4565b9150508091505092915050565b6000610b5d8383610b0d565b905092915050565b6000602082019050919050565b6000610b7d82610a54565b610b878185610a5f565b935083602082028501610b9985610a6a565b8060005b85811015610bd55784840389528151610bb68582610b51565b9450610bc183610b65565b925060208a01995050600181019050610b9d565b50829750879550505050505092915050565b6000819050919050565b610bfa81610be7565b82525050565b60006040830160008301518482036000860152610c1d8282610b72565b9150506020830151610c326020860182610bf1565b508091505092915050565b60006020820190508181036000830152610c578184610c00565b905092915050565b6000610120830160008301518482036000860152610c7d8282610ad4565b91505060208301518482036020860152610c978282610ad4565b91505060408301518482036040860152610cb18282610ad4565b91505060608301518482036060860152610ccb8282610ad4565b9150506080830151610ce06080860182610bf1565b5060a083015184820360a0860152610cf88282610ad4565b91505060c083015184820360c0860152610d128282610ad4565b91505060e0830151610d2760e0860182610bf1565b50610100830151610d3c610100860182610bf1565b508091505092915050565b60006020820190508181036000830152610d618184610c5f565b905092915050565b600081519050919050565b600082825260208201905092915050565b6000819050602082019050919050565b6000610da18383610ad4565b905092915050565b6000602082019050919050565b6000610dc182610d69565b610dcb8185610d74565b935083602082028501610ddd85610d85565b8060005b85811015610e195784840389528151610dfa8582610d95565b9450610e0583610da9565b925060208a01995050600181019050610de1565b50829750879550505050505092915050565b60006020820190508181036000830152610e458184610db6565b905092915050565b6000604051905090565b600080fd5b600080fd5b600080fd5b7f4e487b7100000000000000000000000000000000000000000000000000000000600052604160045260246000fd5b610e9e82610ac3565b810181811067ffffffffffffffff82111715610ebd57610ebc610e66565b5b80604052505050565b6000610ed0610e4d565b9050610edc8282610e95565b919050565b600067ffffffffffffffff821115610efc57610efb610e66565b5b602082029050602081019050919050565b600080fd5b600080fd5b600067ffffffffffffffff821115610f3257610f31610e66565b5b610f3b82610ac3565b9050602081019050919050565b82818337600083830152505050565b6000610f6a610f6584610f17565b610ec6565b905082815260208101848484011115610f8657610f85610f12565b5b610f91848285610f48565b509392505050565b600082601f830112610fae57610fad610e61565b5b8135610fbe848260208601610f57565b91505092915050565b6000610fda610fd584610ee1565b610ec6565b90508083825260208201905060208402830185811115610ffd57610ffc610f0d565b5b835b8181101561104457803567ffffffffffffffff81111561102257611021610e61565b5b80860161102f8982610f99565b85526020850194505050602081019050610fff565b5050509392505050565b600082601f83011261106357611062610e61565b5b8135611073848260208601610fc7565b91505092915050565b60006020828403121561109257611091610e57565b5b600082013567ffffffffffffffff8111156110b0576110af610e5c565b5b6110bc8482850161104e565b91505092915050565b6000602082840312156110db576110da610e57565b5b600082013567ffffffffffffffff8111156110f9576110f8610e5c565b5b61110584828501610f99565b91505092915050565b7f4e487b7100000000000000000000000000000000000000000000000000000000600052602260045260246000fd5b6000600282049050600182168061115557607f821691505b602082108114156111695761116861110e565b5b5091905056fea2646970667358221220975e15a9dfa24a0357286d4f4c6b82299a8e9b121fa1859f233d00e0d6577f7264736f6c634300080b0033a26469706673582212206bc6db38b462551e4005a7d1092f1c78f72fd2c3209f6ad9c5d5b5338430a83e64736f6c634300080b0033",
  "immutableReferences": {},
  "source": "// SPDX-License-Identifier: MIT\npragma solidity >=0.6.0;\npragma experimental ABIEncoderV2;\n\nimport \"./DataStruct.sol\";\nimport \"./EsToken.sol\";\n\n\ncontract CadastralContract{\n    mapping(string => EsToken) nowEstateList;\n    uint esCount;\n    uint totalCount;\n    uint flag;\n    string [] temp;\n    uint tes;\n\n    constructor() {\n        esCount = 0;\n        totalCount = 0;\n        flag = 0;\n    }\n\n    event eventSplit(\n        string [] parentId,\n        string [] childId,\n        string changeDate,\n        uint entityId,\n        string entityType\n    );\n\n    event eventCreate(\n        EventCreateParam param,\n        uint entityId,\n        string entityType\n    );\n\n    event eventMerge(\n        string childId,\n        string [] parentId,\n        string changeDate,\n        uint entityId,\n        string entityType\n    );\n\n    event eventDelete(\n        string Id,\n        string begDate,\n        string endDate,\n        string data,\n        uint entityId,\n        string entityType\n    );\n\n    function create(\n        FunctionCreateParam memory param,\n        uint entityId,\n        string calldata entityType\n    ) \n        public  \n        payable\n    {\n        EsToken estate = new EsToken(param.id, param.data, param.poly, param.pa);\n        nowEstateList[param.id] = estate;\n        esCount += 1;\n        totalCount += 1;\n        if(flag == 0){\n            emit eventCreate(\n                EventCreateParam(\n                    param.id,\n                    param.data.begDate,\n                    param.data.endDate,\n                    param.data.county,\n                    param.data.townShip,\n                    param.data.reason,\n                    param.data.changeTag,\n                    param.poly.pList,\n                    param.poly.numOfPoint,\n                    param.functional,\n                    param.eventdata,\n                    param.other\n                ),\n                entityId,\n                entityType\n            );\n        }\n    }\n\n\n    function deleteEst(\n        string memory id,\n        string memory begDate,\n        string memory endDate,\n        string memory data,\n        uint entityId,\n        string calldata entityType\n    ) \n        public\n        payable\n    {\n        esCount -=1;\n        emit eventDelete(\n            id, \n            begDate, \n            endDate,\n            data, \n            entityId,\n            entityType\n        );\n    }\n\n\n    function split(\n        string [] memory sId,\n        string [] memory newIdList,\n        Data [] memory newDataList,\n        Polygon [] memory polygonList,\n        uint numOfnewEstate,\n        uint functional,\n        string memory eventdata,\n        uint entityId,\n        string calldata entityType\n    )\n        public\n        payable\n    {\n        EsToken estate = nowEstateList[sId[0]];\n        estate.setEndDate(newDataList[0].begDate);\n        estate.setChildren(newIdList);\n\n        for(uint i = 0;i < numOfnewEstate;i++){\n            create(\n                FunctionCreateParam(\n                    newIdList[i], \n                    newDataList[i], \n                    polygonList[i], \n                    temp, \n                    functional, \n                    eventdata, \n                    sId\n                ),\n                entityId,\n                entityType\n            );\n        }\n\n        emit eventSplit(\n            sId,\n            newIdList,\n            newDataList[0].begDate,\n            entityId,\n            entityType    \n        );\n    }\n\n    function merge(\n        string [] memory mIdList,\n        string memory newId,\n        Data memory data,\n        Polygon memory polygon,\n        uint numOfMergeEstate,\n        uint functional,\n        string memory eventdata,\n        uint entityId,\n        string calldata entityType\n    ) \n        public\n        payable\n    {\n        EsToken estate;\n        tes = numOfMergeEstate;\n        for(uint i = 0;i < numOfMergeEstate;i++){\n            estate = nowEstateList[mIdList[i]];\n            estate.setEndDate(data.begDate);\n            estate.setChildren(temp);\n        }\n        create(\n            FunctionCreateParam(\n                newId, \n                data, \n                polygon, \n                mIdList, \n                functional, \n                eventdata, \n                mIdList\n            ),\n            entityId,\n            entityType\n        );\n        emit eventMerge(\n            newId,\n            mIdList,\n            data.begDate,\n            entityId,\n            entityType    \n        );\n    }\n\n    // function getEstateAddress(string memory id) public view returns(address){\n    //     string memory tmp = \"\";\n    //     if(keccak256(abi.encodePacked(changeIdList[id])) != keccak256(abi.encodePacked(tmp))){\n    //         return address(nowEstateList[changeIdList[id]]);\n    //     }\n    //     else{\n    //         return address(nowEstateList[id]);\n    //     }\n    // }\n    function getEstateData(string memory Id)\n        public \n        view \n        returns(\n            Data memory,\n            Polygon memory,\n            string [] memory,\n            string [] memory\n        )\n    {\n        EsToken estate = nowEstateList[Id];\n        Data memory data = estate.getData();\n        Polygon memory poly = estate.getPolygon();\n        string [] memory pa = estate.getParents();\n        string [] memory chi = estate.getChildren();\n        return (\n            data,\n            poly,\n            pa,\n            chi\n        );\n    }    \n}",
  "sourcePath": "/home/mozixreality/Documents/Collage/Project/estate_blockchain/contracts/CadastralContract.sol",
  "compiler": {
    "name": "solc",
    "version": "0.8.11+commit.d7f03943.Emscripten.clang"
  },
  "schemaVersion": "3.4.5",
  "updatedAt": "2022-06-17T06:58:58.590Z",
  "networkType": "ethereum",
  "devdoc": {
    "kind": "dev",
    "methods": {},
    "version": 1
  },
  "userdoc": {
    "kind": "user",
    "methods": {},
    "version": 1
  }
}