{
  "contractName": "CadastralContract",
  "abi": [
    {
      "inputs": [],
      "stateMutability": "nonpayable",
      "type": "constructor"
    },
    {
      "anonymous": false,
      "inputs": [
        {
          "indexed": false,
          "internalType": "string",
          "name": "Id",
          "type": "string"
        },
        {
          "indexed": false,
          "internalType": "string",
          "name": "createDate",
          "type": "string"
        },
        {
          "indexed": false,
          "internalType": "string",
          "name": "endDate",
          "type": "string"
        },
        {
          "indexed": false,
          "internalType": "string",
          "name": "county",
          "type": "string"
        },
        {
          "indexed": false,
          "internalType": "uint256",
          "name": "townShip",
          "type": "uint256"
        },
        {
          "indexed": false,
          "internalType": "uint256",
          "name": "reason",
          "type": "uint256"
        },
        {
          "indexed": false,
          "internalType": "uint256",
          "name": "changedTag",
          "type": "uint256"
        },
        {
          "components": [
            {
              "internalType": "string",
              "name": "x",
              "type": "string"
            },
            {
              "internalType": "string",
              "name": "y",
              "type": "string"
            }
          ],
          "indexed": false,
          "internalType": "struct Point[100]",
          "name": "pList",
          "type": "tuple[100]"
        },
        {
          "indexed": false,
          "internalType": "uint256",
          "name": "numOfPoint",
          "type": "uint256"
        },
        {
          "indexed": false,
          "internalType": "uint256",
          "name": "functional",
          "type": "uint256"
        },
        {
          "indexed": false,
          "internalType": "string",
          "name": "eventdata",
          "type": "string"
        },
        {
          "indexed": false,
          "internalType": "string[]",
          "name": "other",
          "type": "string[]"
        }
      ],
      "name": "eventCreate",
      "type": "event"
    },
    {
      "anonymous": false,
      "inputs": [
        {
          "indexed": false,
          "internalType": "string",
          "name": "Id",
          "type": "string"
        },
        {
          "indexed": false,
          "internalType": "string",
          "name": "begDate",
          "type": "string"
        },
        {
          "indexed": false,
          "internalType": "string",
          "name": "endDate",
          "type": "string"
        },
        {
          "indexed": false,
          "internalType": "string",
          "name": "data",
          "type": "string"
        }
      ],
      "name": "eventDelete",
      "type": "event"
    },
    {
      "anonymous": false,
      "inputs": [
        {
          "indexed": false,
          "internalType": "string",
          "name": "childId",
          "type": "string"
        },
        {
          "indexed": false,
          "internalType": "string[]",
          "name": "parentId",
          "type": "string[]"
        },
        {
          "indexed": false,
          "internalType": "string",
          "name": "changeDate",
          "type": "string"
        }
      ],
      "name": "eventMerge",
      "type": "event"
    },
    {
      "anonymous": false,
      "inputs": [
        {
          "indexed": false,
          "internalType": "string[]",
          "name": "parentId",
          "type": "string[]"
        },
        {
          "indexed": false,
          "internalType": "string[]",
          "name": "childId",
          "type": "string[]"
        },
        {
          "indexed": false,
          "internalType": "string",
          "name": "changeDate",
          "type": "string"
        }
      ],
      "name": "eventSplit",
      "type": "event"
    },
    {
      "inputs": [
        {
          "internalType": "string",
          "name": "id",
          "type": "string"
        },
        {
          "components": [
            {
              "internalType": "string",
              "name": "pcno",
              "type": "string"
            },
            {
              "internalType": "string",
              "name": "pmno",
              "type": "string"
            },
            {
              "internalType": "string",
              "name": "scno",
              "type": "string"
            },
            {
              "internalType": "string",
              "name": "county",
              "type": "string"
            },
            {
              "internalType": "uint256",
              "name": "townShip",
              "type": "uint256"
            },
            {
              "internalType": "string",
              "name": "begDate",
              "type": "string"
            },
            {
              "internalType": "string",
              "name": "endDate",
              "type": "string"
            },
            {
              "internalType": "uint256",
              "name": "reason",
              "type": "uint256"
            },
            {
              "internalType": "uint256",
              "name": "changeTag",
              "type": "uint256"
            }
          ],
          "internalType": "struct Data",
          "name": "data",
          "type": "tuple"
        },
        {
          "components": [
            {
              "components": [
                {
                  "internalType": "string",
                  "name": "x",
                  "type": "string"
                },
                {
                  "internalType": "string",
                  "name": "y",
                  "type": "string"
                }
              ],
              "internalType": "struct Point[100]",
              "name": "pList",
              "type": "tuple[100]"
            },
            {
              "internalType": "uint256",
              "name": "numOfPoint",
              "type": "uint256"
            }
          ],
          "internalType": "struct Polygon",
          "name": "poly",
          "type": "tuple"
        },
        {
          "internalType": "string[]",
          "name": "pa",
          "type": "string[]"
        },
        {
          "internalType": "uint256",
          "name": "functional",
          "type": "uint256"
        },
        {
          "internalType": "string",
          "name": "eventdata",
          "type": "string"
        },
        {
          "internalType": "string[]",
          "name": "other",
          "type": "string[]"
        }
      ],
      "name": "create",
      "outputs": [],
      "stateMutability": "payable",
      "type": "function"
    },
    {
      "inputs": [
        {
          "internalType": "string",
          "name": "Id",
          "type": "string"
        },
        {
          "internalType": "string",
          "name": "begDate",
          "type": "string"
        },
        {
          "internalType": "string",
          "name": "endDate",
          "type": "string"
        },
        {
          "internalType": "string",
          "name": "data",
          "type": "string"
        }
      ],
      "name": "deleteEst",
      "outputs": [],
      "stateMutability": "payable",
      "type": "function"
    },
    {
      "inputs": [
        {
          "internalType": "string[]",
          "name": "sId",
          "type": "string[]"
        },
        {
          "internalType": "string[]",
          "name": "newIdList",
          "type": "string[]"
        },
        {
          "components": [
            {
              "internalType": "string",
              "name": "pcno",
              "type": "string"
            },
            {
              "internalType": "string",
              "name": "pmno",
              "type": "string"
            },
            {
              "internalType": "string",
              "name": "scno",
              "type": "string"
            },
            {
              "internalType": "string",
              "name": "county",
              "type": "string"
            },
            {
              "internalType": "uint256",
              "name": "townShip",
              "type": "uint256"
            },
            {
              "internalType": "string",
              "name": "begDate",
              "type": "string"
            },
            {
              "internalType": "string",
              "name": "endDate",
              "type": "string"
            },
            {
              "internalType": "uint256",
              "name": "reason",
              "type": "uint256"
            },
            {
              "internalType": "uint256",
              "name": "changeTag",
              "type": "uint256"
            }
          ],
          "internalType": "struct Data[]",
          "name": "newDataList",
          "type": "tuple[]"
        },
        {
          "components": [
            {
              "components": [
                {
                  "internalType": "string",
                  "name": "x",
                  "type": "string"
                },
                {
                  "internalType": "string",
                  "name": "y",
                  "type": "string"
                }
              ],
              "internalType": "struct Point[100]",
              "name": "pList",
              "type": "tuple[100]"
            },
            {
              "internalType": "uint256",
              "name": "numOfPoint",
              "type": "uint256"
            }
          ],
          "internalType": "struct Polygon[]",
          "name": "polygonList",
          "type": "tuple[]"
        },
        {
          "internalType": "uint256",
          "name": "numOfnewEstate",
          "type": "uint256"
        },
        {
          "internalType": "uint256",
          "name": "functional",
          "type": "uint256"
        },
        {
          "internalType": "string",
          "name": "eventdata",
          "type": "string"
        }
      ],
      "name": "split",
      "outputs": [],
      "stateMutability": "payable",
      "type": "function"
    },
    {
      "inputs": [
        {
          "internalType": "string[]",
          "name": "mIdList",
          "type": "string[]"
        },
        {
          "internalType": "string",
          "name": "newId",
          "type": "string"
        },
        {
          "components": [
            {
              "internalType": "string",
              "name": "pcno",
              "type": "string"
            },
            {
              "internalType": "string",
              "name": "pmno",
              "type": "string"
            },
            {
              "internalType": "string",
              "name": "scno",
              "type": "string"
            },
            {
              "internalType": "string",
              "name": "county",
              "type": "string"
            },
            {
              "internalType": "uint256",
              "name": "townShip",
              "type": "uint256"
            },
            {
              "internalType": "string",
              "name": "begDate",
              "type": "string"
            },
            {
              "internalType": "string",
              "name": "endDate",
              "type": "string"
            },
            {
              "internalType": "uint256",
              "name": "reason",
              "type": "uint256"
            },
            {
              "internalType": "uint256",
              "name": "changeTag",
              "type": "uint256"
            }
          ],
          "internalType": "struct Data",
          "name": "data",
          "type": "tuple"
        },
        {
          "components": [
            {
              "components": [
                {
                  "internalType": "string",
                  "name": "x",
                  "type": "string"
                },
                {
                  "internalType": "string",
                  "name": "y",
                  "type": "string"
                }
              ],
              "internalType": "struct Point[100]",
              "name": "pList",
              "type": "tuple[100]"
            },
            {
              "internalType": "uint256",
              "name": "numOfPoint",
              "type": "uint256"
            }
          ],
          "internalType": "struct Polygon",
          "name": "polygon",
          "type": "tuple"
        },
        {
          "internalType": "uint256",
          "name": "numOfMergeEstate",
          "type": "uint256"
        },
        {
          "internalType": "uint256",
          "name": "functional",
          "type": "uint256"
        },
        {
          "internalType": "string",
          "name": "eventdata",
          "type": "string"
        }
      ],
      "name": "merge",
      "outputs": [],
      "stateMutability": "payable",
      "type": "function"
    },
    {
      "inputs": [
        {
          "internalType": "string",
          "name": "Id",
          "type": "string"
        }
      ],
      "name": "getEstateData",
      "outputs": [
        {
          "components": [
            {
              "internalType": "string",
              "name": "pcno",
              "type": "string"
            },
            {
              "internalType": "string",
              "name": "pmno",
              "type": "string"
            },
            {
              "internalType": "string",
              "name": "scno",
              "type": "string"
            },
            {
              "internalType": "string",
              "name": "county",
              "type": "string"
            },
            {
              "internalType": "uint256",
              "name": "townShip",
              "type": "uint256"
            },
            {
              "internalType": "string",
              "name": "begDate",
              "type": "string"
            },
            {
              "internalType": "string",
              "name": "endDate",
              "type": "string"
            },
            {
              "internalType": "uint256",
              "name": "reason",
              "type": "uint256"
            },
            {
              "internalType": "uint256",
              "name": "changeTag",
              "type": "uint256"
            }
          ],
          "internalType": "struct Data",
          "name": "",
          "type": "tuple"
        },
        {
          "components": [
            {
              "components": [
                {
                  "internalType": "string",
                  "name": "x",
                  "type": "string"
                },
                {
                  "internalType": "string",
                  "name": "y",
                  "type": "string"
                }
              ],
              "internalType": "struct Point[100]",
              "name": "pList",
              "type": "tuple[100]"
            },
            {
              "internalType": "uint256",
              "name": "numOfPoint",
              "type": "uint256"
            }
          ],
          "internalType": "struct Polygon",
          "name": "",
          "type": "tuple"
        },
        {
          "internalType": "string[]",
          "name": "",
          "type": "string[]"
        },
        {
          "internalType": "string[]",
          "name": "",
          "type": "string[]"
        }
      ],
      "stateMutability": "view",
      "type": "function"
    }
  ],
  "bytecode": "0x608060405234801561001057600080fd5b506000600181905550600060028190555060006003819055506143e8806100386000396000f3fe608060405260043610620000505760003560e01c806323a7ea1414620000555780636c0cbdb614620000755780637093ff5b146200009557806373d47bec14620000dc5780637bcb4dbb14620000fc575b600080fd5b6200007360048036036200006d9190810190620018c3565b6200011c565b005b6200009360048036036200008d919081019062001754565b62000171565b005b348015620000a257600080fd5b50620000c16004803603620000bb91908101906200187e565b6200032e565b604051620000d394939291906200242d565b60405180910390f35b620000fa6004803603620000f4919081019062001993565b620005dd565b005b6200011a60048036036200011491908101906200162a565b62000727565b005b600180600082825403925050819055507f67353cf6935565a9bc7526705c708ffeac343fc4e00d4e4fe67163082f2fb0828484848460405162000163949392919062002258565b60405180910390a150505050565b60008360058190555060008090505b84811015620002d15760008982815181106200019857fe5b6020026020010151604051620001af919062002116565b908152602001604051809103902060009054906101000a900473ffffffffffffffffffffffffffffffffffffffff1691508173ffffffffffffffffffffffffffffffffffffffff1663940944208860a001516040518263ffffffff1660e01b81526004016200021f9190620021e2565b600060405180830381600087803b1580156200023a57600080fd5b505af11580156200024f573d6000803e3d6000fd5b505050508173ffffffffffffffffffffffffffffffffffffffff16636d8012b760046040518263ffffffff1660e01b81526004016200028f9190620021be565b600060405180830381600087803b158015620002aa57600080fd5b505af1158015620002bf573d6000803e3d6000fd5b50505050808060010191505062000180565b50620002e38787878b87878e620005dd565b7f4ac7b3b1e0edde35545a278f8e2cb30a266dd5f5f27131f8279ad7af56acc18487898860a001516040516200031c9392919062002206565b60405180910390a15050505050505050565b6200033862000a29565b6200034262000a75565b606080600080866040516200035891906200212f565b908152602001604051809103902060009054906101000a900473ffffffffffffffffffffffffffffffffffffffff1690506200039362000a29565b8173ffffffffffffffffffffffffffffffffffffffff16633bc5de306040518163ffffffff1660e01b815260040160006040518083038186803b158015620003da57600080fd5b505afa158015620003ef573d6000803e3d6000fd5b505050506040513d6000823e3d601f19601f820116820180604052506200041a919081019062001ad6565b90506200042662000a75565b8273ffffffffffffffffffffffffffffffffffffffff166313d743bc6040518163ffffffff1660e01b815260040160006040518083038186803b1580156200046d57600080fd5b505afa15801562000482573d6000803e3d6000fd5b505050506040513d6000823e3d601f19601f82011682018060405250620004ad919081019062001b1b565b905060608373ffffffffffffffffffffffffffffffffffffffff1663dd6133b56040518163ffffffff1660e01b815260040160006040518083038186803b158015620004f857600080fd5b505afa1580156200050d573d6000803e3d6000fd5b505050506040513d6000823e3d601f19601f82011682018060405250620005389190810190620015e5565b905060608473ffffffffffffffffffffffffffffffffffffffff16634892e8e86040518163ffffffff1660e01b815260040160006040518083038186803b1580156200058357600080fd5b505afa15801562000598573d6000803e3d6000fd5b505050506040513d6000823e3d601f19601f82011682018060405250620005c39190810190620015e5565b905083838383985098509850985050505050509193509193565b600087878787604051620005f19062000a97565b620006009493929190620023c4565b604051809103906000f0801580156200061d573d6000803e3d6000fd5b509050806000896040516200063391906200212f565b908152602001604051809103902060006101000a81548173ffffffffffffffffffffffffffffffffffffffff021916908373ffffffffffffffffffffffffffffffffffffffff160217905550600180600082825401925050819055506001600260008282540192505081905550600060035414156200071d577f473a2a2d532f9b19c68cf5bf34ddf8f5be280d70461550f48c361760b41960c7888860a001518960c001518a606001518b608001518c60e001518d61010001518d600001518e602001518d8d8d604051620007149c9b9a99989796959493929190620022c1565b60405180910390a15b5050505050505050565b600080886000815181106200073857fe5b60200260200101516040516200074f919062002116565b908152602001604051809103902060009054906101000a900473ffffffffffffffffffffffffffffffffffffffff1690508073ffffffffffffffffffffffffffffffffffffffff16639409442087600081518110620007aa57fe5b602002602001015160a001516040518263ffffffff1660e01b8152600401620007d49190620021e2565b600060405180830381600087803b158015620007ef57600080fd5b505af115801562000804573d6000803e3d6000fd5b505050508073ffffffffffffffffffffffffffffffffffffffff16636d8012b7886040518263ffffffff1660e01b815260040162000843919062002148565b600060405180830381600087803b1580156200085e57600080fd5b505af115801562000873573d6000803e3d6000fd5b5050505060008090505b84811015620009c857620009ba8882815181106200089757fe5b6020026020010151888381518110620008ac57fe5b6020026020010151888481518110620008c157fe5b60200260200101516004805480602002602001604051908101604052809291908181526020016000905b82821015620009ad578382906000526020600020018054600181600116156101000203166002900480601f016020809104026020016040519081016040528092919081815260200182805460018160011615610100020316600290048015620009985780601f106200096c5761010080835404028352916020019162000998565b820191906000526020600020905b8154815290600101906020018083116200097a57829003601f168201915b505050505081526020019060010190620008eb565b5050505088888f620005dd565b80806001019150506200087d565b507f54f08ded47adbb3750d1ca4cd66fefb946e372a233b07cb54067c27694dc61fd888888600081518110620009fa57fe5b602002602001015160a0015160405162000a17939291906200216c565b60405180910390a15050505050505050565b6040518061012001604052806060815260200160608152602001606081526020016060815260200160008152602001606081526020016060815260200160008152602001600081525090565b604051806040016040528062000a8a62000aa5565b8152602001600081525090565b611c86806200272d83390190565b60405180610c8001604052806064905b62000abf62000ad6565b81526020019060019003908162000ab55790505090565b604051806040016040528060608152602001606081525090565b600082601f83011262000b0257600080fd5b813562000b1962000b1382620024c4565b62002496565b9150818183526020840193506020810190508360005b8381101562000b63578135860162000b48888262000dc0565b84526020840193506020830192505060018101905062000b2f565b5050505092915050565b600082601f83011262000b7f57600080fd5b815162000b9662000b9082620024c4565b62002496565b9150818183526020840193506020810190508360005b8381101562000be0578151860162000bc5888262000e1c565b84526020840193506020830192505060018101905062000bac565b5050505092915050565b600082601f83011262000bfc57600080fd5b813562000c1362000c0d82620024ed565b62002496565b9150818183526020840193506020810190508360005b8381101562000c5d578135860162000c42888262000ed4565b84526020840193506020830192505060018101905062000c29565b5050505092915050565b600082601f83011262000c7957600080fd5b606462000c9062000c8a8262002516565b62002496565b9150818360005b8381101562000ccb578135860162000cb0888262001369565b84526020840193506020830192505060018101905062000c97565b5050505092915050565b600082601f83011262000ce757600080fd5b606462000cfe62000cf88262002516565b62002496565b9150818360005b8381101562000d39578151860162000d1e8882620013ee565b84526020840193506020830192505060018101905062000d05565b5050505092915050565b600082601f83011262000d5557600080fd5b813562000d6c62000d668262002539565b62002496565b9150818183526020840193506020810190508360005b8381101562000db6578135860162000d9b888262001473565b84526020840193506020830192505060018101905062000d82565b5050505092915050565b600082601f83011262000dd257600080fd5b813562000de962000de38262002562565b62002496565b9150808252602083016020830185838301111562000e0657600080fd5b62000e13838284620026bc565b50505092915050565b600082601f83011262000e2e57600080fd5b815162000e4562000e3f8262002562565b62002496565b9150808252602083016020830185838301111562000e6257600080fd5b62000e6f838284620026cb565b50505092915050565b600082601f83011262000e8a57600080fd5b813562000ea162000e9b826200258f565b62002496565b9150808252602083016020830185838301111562000ebe57600080fd5b62000ecb838284620026bc565b50505092915050565b6000610120828403121562000ee857600080fd5b62000ef561012062002496565b9050600082013567ffffffffffffffff81111562000f1257600080fd5b62000f208482850162000dc0565b600083015250602082013567ffffffffffffffff81111562000f4157600080fd5b62000f4f8482850162000dc0565b602083015250604082013567ffffffffffffffff81111562000f7057600080fd5b62000f7e8482850162000dc0565b604083015250606082013567ffffffffffffffff81111562000f9f57600080fd5b62000fad8482850162000dc0565b606083015250608062000fc384828501620015b7565b60808301525060a082013567ffffffffffffffff81111562000fe457600080fd5b62000ff28482850162000dc0565b60a08301525060c082013567ffffffffffffffff8111156200101357600080fd5b620010218482850162000dc0565b60c08301525060e06200103784828501620015b7565b60e0830152506101006200104e84828501620015b7565b6101008301525092915050565b600061012082840312156200106f57600080fd5b6200107c61012062002496565b9050600082013567ffffffffffffffff8111156200109957600080fd5b620010a78482850162000dc0565b600083015250602082013567ffffffffffffffff811115620010c857600080fd5b620010d68482850162000dc0565b602083015250604082013567ffffffffffffffff811115620010f757600080fd5b620011058482850162000dc0565b604083015250606082013567ffffffffffffffff8111156200112657600080fd5b620011348482850162000dc0565b60608301525060806200114a84828501620015b7565b60808301525060a082013567ffffffffffffffff8111156200116b57600080fd5b620011798482850162000dc0565b60a08301525060c082013567ffffffffffffffff8111156200119a57600080fd5b620011a88482850162000dc0565b60c08301525060e0620011be84828501620015b7565b60e083015250610100620011d584828501620015b7565b6101008301525092915050565b60006101208284031215620011f657600080fd5b6200120361012062002496565b9050600082015167ffffffffffffffff8111156200122057600080fd5b6200122e8482850162000e1c565b600083015250602082015167ffffffffffffffff8111156200124f57600080fd5b6200125d8482850162000e1c565b602083015250604082015167ffffffffffffffff8111156200127e57600080fd5b6200128c8482850162000e1c565b604083015250606082015167ffffffffffffffff811115620012ad57600080fd5b620012bb8482850162000e1c565b6060830152506080620012d184828501620015ce565b60808301525060a082015167ffffffffffffffff811115620012f257600080fd5b620013008482850162000e1c565b60a08301525060c082015167ffffffffffffffff8111156200132157600080fd5b6200132f8482850162000e1c565b60c08301525060e06200134584828501620015ce565b60e0830152506101006200135c84828501620015ce565b6101008301525092915050565b6000604082840312156200137c57600080fd5b62001388604062002496565b9050600082013567ffffffffffffffff811115620013a557600080fd5b620013b38482850162000dc0565b600083015250602082013567ffffffffffffffff811115620013d457600080fd5b620013e28482850162000dc0565b60208301525092915050565b6000604082840312156200140157600080fd5b6200140d604062002496565b9050600082015167ffffffffffffffff8111156200142a57600080fd5b620014388482850162000e1c565b600083015250602082015167ffffffffffffffff8111156200145957600080fd5b620014678482850162000e1c565b60208301525092915050565b6000604082840312156200148657600080fd5b62001492604062002496565b9050600082013567ffffffffffffffff811115620014af57600080fd5b620014bd8482850162000c67565b6000830152506020620014d384828501620015b7565b60208301525092915050565b600060408284031215620014f257600080fd5b620014fe604062002496565b9050600082013567ffffffffffffffff8111156200151b57600080fd5b620015298482850162000c67565b60008301525060206200153f84828501620015b7565b60208301525092915050565b6000604082840312156200155e57600080fd5b6200156a604062002496565b9050600082015167ffffffffffffffff8111156200158757600080fd5b620015958482850162000cd5565b6000830152506020620015ab84828501620015ce565b60208301525092915050565b600081359050620015c88162002712565b92915050565b600081519050620015df8162002712565b92915050565b600060208284031215620015f857600080fd5b600082015167ffffffffffffffff8111156200161357600080fd5b620016218482850162000b6d565b91505092915050565b600080600080600080600060e0888a0312156200164657600080fd5b600088013567ffffffffffffffff8111156200166157600080fd5b6200166f8a828b0162000af0565b975050602088013567ffffffffffffffff8111156200168d57600080fd5b6200169b8a828b0162000af0565b965050604088013567ffffffffffffffff811115620016b957600080fd5b620016c78a828b0162000bea565b955050606088013567ffffffffffffffff811115620016e557600080fd5b620016f38a828b0162000d43565b9450506080620017068a828b01620015b7565b93505060a0620017198a828b01620015b7565b92505060c088013567ffffffffffffffff8111156200173757600080fd5b620017458a828b0162000e78565b91505092959891949750929550565b600080600080600080600060e0888a0312156200177057600080fd5b600088013567ffffffffffffffff8111156200178b57600080fd5b620017998a828b0162000af0565b975050602088013567ffffffffffffffff811115620017b757600080fd5b620017c58a828b0162000e78565b965050604088013567ffffffffffffffff811115620017e357600080fd5b620017f18a828b016200105b565b955050606088013567ffffffffffffffff8111156200180f57600080fd5b6200181d8a828b01620014df565b9450506080620018308a828b01620015b7565b93505060a0620018438a828b01620015b7565b92505060c088013567ffffffffffffffff8111156200186157600080fd5b6200186f8a828b0162000e78565b91505092959891949750929550565b6000602082840312156200189157600080fd5b600082013567ffffffffffffffff811115620018ac57600080fd5b620018ba8482850162000e78565b91505092915050565b60008060008060808587031215620018da57600080fd5b600085013567ffffffffffffffff811115620018f557600080fd5b620019038782880162000e78565b945050602085013567ffffffffffffffff8111156200192157600080fd5b6200192f8782880162000e78565b935050604085013567ffffffffffffffff8111156200194d57600080fd5b6200195b8782880162000e78565b925050606085013567ffffffffffffffff8111156200197957600080fd5b620019878782880162000e78565b91505092959194509250565b600080600080600080600060e0888a031215620019af57600080fd5b600088013567ffffffffffffffff811115620019ca57600080fd5b620019d88a828b0162000e78565b975050602088013567ffffffffffffffff811115620019f657600080fd5b62001a048a828b016200105b565b965050604088013567ffffffffffffffff81111562001a2257600080fd5b62001a308a828b01620014df565b955050606088013567ffffffffffffffff81111562001a4e57600080fd5b62001a5c8a828b0162000af0565b945050608062001a6f8a828b01620015b7565b93505060a088013567ffffffffffffffff81111562001a8d57600080fd5b62001a9b8a828b0162000e78565b92505060c088013567ffffffffffffffff81111562001ab957600080fd5b62001ac78a828b0162000af0565b91505092959891949750929550565b60006020828403121562001ae957600080fd5b600082015167ffffffffffffffff81111562001b0457600080fd5b62001b1284828501620011e2565b91505092915050565b60006020828403121562001b2e57600080fd5b600082015167ffffffffffffffff81111562001b4957600080fd5b62001b57848285016200154b565b91505092915050565b600062001b6e838362001e1d565b905092915050565b600062001b84838362001ed6565b905092915050565b600062001b9a83836200206b565b905092915050565b600062001baf8262002600565b62001bbb81856200265e565b93508360208202850162001bcf85620025bc565b8060005b8581101562001c11578484038952815162001bef858262001b60565b945062001bfc8362002637565b925060208a0199505060018101905062001bd3565b50829750879550505050505092915050565b600062001c30826200260b565b62001c3c81856200265e565b93508360208202850162001c5085620025cc565b8060005b8581101562001c915784840389528162001c6f858262001b76565b945062001c7c8362002644565b925060208a0199505060018101905062001c54565b50829750879550505050505092915050565b600062001cb08262002616565b62001cbc81856200266f565b93508360208202850162001cd085620025e1565b8060005b8581101562001d12578484038952815162001cf0858262001b8c565b945062001cfd8362002651565b925060208a0199505060018101905062001cd4565b50829750879550505050505092915050565b600062001d318262002616565b62001d3d81856200267a565b93508360208202850162001d5185620025e1565b8060005b8581101562001d93578484038952815162001d71858262001b8c565b945062001d7e8362002651565b925060208a0199505060018101905062001d55565b50829750879550505050505092915050565b600062001db2826200262c565b62001dbe818562002696565b935062001dd0818560208601620026cb565b62001ddb8162002701565b840191505092915050565b600062001df3826200262c565b62001dff8185620026a7565b935062001e11818560208601620026cb565b80840191505092915050565b600062001e2a8262002621565b62001e36818562002685565b935062001e48818560208601620026cb565b62001e538162002701565b840191505092915050565b600062001e6b8262002621565b62001e77818562002696565b935062001e89818560208601620026cb565b62001e948162002701565b840191505092915050565b600062001eac8262002621565b62001eb88185620026a7565b935062001eca818560208601620026cb565b80840191505092915050565b60008154600181166000811462001ef6576001811462001f1f5762001f69565b607f600283041662001f09818762002685565b955060ff19831686526020860193505062001f69565b6002820462001f2f818762002685565b955062001f3c85620025eb565b60005b8281101562001f605781548189015260018201915060208101905062001f3f565b80880195505050505b505092915050565b600061012083016000830151848203600086015262001f91828262001e1d565b9150506020830151848203602086015262001fad828262001e1d565b9150506040830151848203604086015262001fc9828262001e1d565b9150506060830151848203606086015262001fe5828262001e1d565b915050608083015162001ffc6080860182620020f4565b5060a083015184820360a086015262002016828262001e1d565b91505060c083015184820360c086015262002032828262001e1d565b91505060e08301516200204960e0860182620020f4565b5061010083015162002060610100860182620020f4565b508091505092915050565b600060408301600083015184820360008601526200208a828262001e1d565b91505060208301518482036020860152620020a6828262001e1d565b9150508091505092915050565b60006040830160008301518482036000860152620020d2828262001ca3565b9150506020830151620020e96020860182620020f4565b508091505092915050565b620020ff81620026b2565b82525050565b6200211081620026b2565b82525050565b600062002124828462001e9f565b915081905092915050565b60006200213d828462001de6565b915081905092915050565b6000602082019050818103600083015262002164818462001ba2565b905092915050565b6000606082019050818103600083015262002188818662001ba2565b905081810360208301526200219e818562001ba2565b90508181036040830152620021b4818462001e5e565b9050949350505050565b60006020820190508181036000830152620021da818462001c23565b905092915050565b60006020820190508181036000830152620021fe818462001e5e565b905092915050565b6000606082019050818103600083015262002222818662001da5565b9050818103602083015262002238818562001ba2565b905081810360408301526200224e818462001e5e565b9050949350505050565b6000608082019050818103600083015262002274818762001da5565b905081810360208301526200228a818662001da5565b90508181036040830152620022a0818562001da5565b90508181036060830152620022b6818462001da5565b905095945050505050565b6000610180820190508181036000830152620022de818f62001da5565b90508181036020830152620022f4818e62001e5e565b905081810360408301526200230a818d62001e5e565b9050818103606083015262002320818c62001e5e565b905062002331608083018b62002105565b6200234060a083018a62002105565b6200234f60c083018962002105565b81810360e083015262002363818862001d24565b90506200237561010083018762002105565b6200238561012083018662002105565b8181036101408301526200239a818562001da5565b9050818103610160830152620023b1818462001ba2565b90509d9c50505050505050505050505050565b60006080820190508181036000830152620023e0818762001da5565b90508181036020830152620023f6818662001f71565b905081810360408301526200240c8185620020b3565b9050818103606083015262002422818462001ba2565b905095945050505050565b6000608082019050818103600083015262002449818762001f71565b905081810360208301526200245f8186620020b3565b9050818103604083015262002475818562001ba2565b905081810360608301526200248b818462001ba2565b905095945050505050565b6000604051905081810181811067ffffffffffffffff82111715620024ba57600080fd5b8060405250919050565b600067ffffffffffffffff821115620024dc57600080fd5b602082029050602081019050919050565b600067ffffffffffffffff8211156200250557600080fd5b602082029050602081019050919050565b600067ffffffffffffffff8211156200252e57600080fd5b602082029050919050565b600067ffffffffffffffff8211156200255157600080fd5b602082029050602081019050919050565b600067ffffffffffffffff8211156200257a57600080fd5b601f19601f8301169050602081019050919050565b600067ffffffffffffffff821115620025a757600080fd5b601f19601f8301169050602081019050919050565b6000819050602082019050919050565b60008190508160005260206000209050919050565b6000819050919050565b60008190508160005260206000209050919050565b600081519050919050565b600081549050919050565b600060649050919050565b600081519050919050565b600081519050919050565b6000602082019050919050565b6000600182019050919050565b6000602082019050919050565b600082825260208201905092915050565b600081905092915050565b600081905092915050565b600082825260208201905092915050565b600082825260208201905092915050565b600081905092915050565b6000819050919050565b82818337600083830152505050565b60005b83811015620026eb578082015181840152602081019050620026ce565b83811115620026fb576000848401525b50505050565b6000601f19601f8301169050919050565b6200271d81620026b2565b81146200272957600080fd5b5056fe60806040523480156200001157600080fd5b5060405162001c8638038062001c86833981810160405262000037919081019062000869565b826000015160016000019080519060200190620000569291906200021d565b50826040015160016002019080519060200190620000769291906200021d565b508260200151600180019080519060200190620000959291906200021d565b50826060015160016003019080519060200190620000b59291906200021d565b5082608001516001600401819055508260a0015160016005019080519060200190620000e39291906200021d565b508260c0015160016006019080519060200190620001039291906200021d565b508260e0015160016007018190555082610100015160016008018190555060008090505b8260200151811015620001d257826000015181606481106200014557fe5b602002015160000151600a60000182606481106200015f57fe5b6002020160000190805190602001906200017b9291906200021d565b50826000015181606481106200018d57fe5b602002015160200151600a6000018260648110620001a757fe5b600202016001019080519060200190620001c39291906200021d565b50808060010191505062000127565b508160200151600a60c801819055508060d39080519060200190620001f9929190620002a4565b508360009080519060200190620002129291906200021d565b505050505062000a67565b828054600181600116156101000203166002900490600052602060002090601f016020900481019282601f106200026057805160ff191683800117855562000291565b8280016001018555821562000291579182015b828111156200029057825182559160200191906001019062000273565b5b509050620002a091906200030b565b5090565b828054828255906000526020600020908101928215620002f8579160200282015b82811115620002f7578251829080519060200190620002e692919062000333565b5091602001919060010190620002c5565b5b509050620003079190620003ba565b5090565b6200033091905b808211156200032c57600081600090555060010162000312565b5090565b90565b828054600181600116156101000203166002900490600052602060002090601f016020900481019282601f106200037657805160ff1916838001178555620003a7565b82800160010185558215620003a7579182015b82811115620003a657825182559160200191906001019062000389565b5b509050620003b691906200030b565b5090565b620003e891905b80821115620003e45760008181620003da9190620003eb565b50600101620003c1565b5090565b90565b50805460018160011615610100020316600290046000825580601f1062000413575062000434565b601f0160209004906000526020600020908101906200043391906200030b565b5b50565b600082601f8301126200044957600080fd5b8151620004606200045a8262000967565b62000939565b9150818183526020840193506020810190508360005b83811015620004aa57815186016200048f888262000522565b84526020840193506020830192505060018101905062000476565b5050505092915050565b600082601f830112620004c657600080fd5b6064620004dd620004d78262000990565b62000939565b9150818360005b83811015620005185781518601620004fd888262000761565b845260208401935060208301925050600181019050620004e4565b5050505092915050565b600082601f8301126200053457600080fd5b81516200054b6200054582620009b3565b62000939565b915080825260208301602083018583830111156200056857600080fd5b6200057583828462000a17565b50505092915050565b600082601f8301126200059057600080fd5b8151620005a7620005a182620009e0565b62000939565b91508082526020830160208301858383011115620005c457600080fd5b620005d183828462000a17565b50505092915050565b60006101208284031215620005ee57600080fd5b620005fb61012062000939565b9050600082015167ffffffffffffffff8111156200061857600080fd5b620006268482850162000522565b600083015250602082015167ffffffffffffffff8111156200064757600080fd5b620006558482850162000522565b602083015250604082015167ffffffffffffffff8111156200067657600080fd5b620006848482850162000522565b604083015250606082015167ffffffffffffffff811115620006a557600080fd5b620006b38482850162000522565b6060830152506080620006c98482850162000852565b60808301525060a082015167ffffffffffffffff811115620006ea57600080fd5b620006f88482850162000522565b60a08301525060c082015167ffffffffffffffff8111156200071957600080fd5b620007278482850162000522565b60c08301525060e06200073d8482850162000852565b60e083015250610100620007548482850162000852565b6101008301525092915050565b6000604082840312156200077457600080fd5b62000780604062000939565b9050600082015167ffffffffffffffff8111156200079d57600080fd5b620007ab8482850162000522565b600083015250602082015167ffffffffffffffff811115620007cc57600080fd5b620007da8482850162000522565b60208301525092915050565b600060408284031215620007f957600080fd5b62000805604062000939565b9050600082015167ffffffffffffffff8111156200082257600080fd5b6200083084828501620004b4565b6000830152506020620008468482850162000852565b60208301525092915050565b600081519050620008638162000a4d565b92915050565b600080600080608085870312156200088057600080fd5b600085015167ffffffffffffffff8111156200089b57600080fd5b620008a9878288016200057e565b945050602085015167ffffffffffffffff811115620008c757600080fd5b620008d587828801620005da565b935050604085015167ffffffffffffffff811115620008f357600080fd5b6200090187828801620007e6565b925050606085015167ffffffffffffffff8111156200091f57600080fd5b6200092d8782880162000437565b91505092959194509250565b6000604051905081810181811067ffffffffffffffff821117156200095d57600080fd5b8060405250919050565b600067ffffffffffffffff8211156200097f57600080fd5b602082029050602081019050919050565b600067ffffffffffffffff821115620009a857600080fd5b602082029050919050565b600067ffffffffffffffff821115620009cb57600080fd5b601f19601f8301169050602081019050919050565b600067ffffffffffffffff821115620009f857600080fd5b601f19601f8301169050602081019050919050565b6000819050919050565b60005b8381101562000a3757808201518184015260208101905062000a1a565b8381111562000a47576000848401525b50505050565b62000a588162000a0d565b811462000a6457600080fd5b50565b61120f8062000a776000396000f3fe608060405234801561001057600080fd5b50600436106100625760003560e01c806313d743bc146100675780633bc5de30146100855780634892e8e8146100a35780636d8012b7146100c157806394094420146100dd578063dd6133b5146100f9575b600080fd5b61006f610117565b60405161007c919061102b565b60405180910390f35b61008d6102cb565b60405161009a9190611009565b60405180910390f35b6100ab6106d0565b6040516100b89190610fe7565b60405180910390f35b6100db60048036036100d69190810190610ca2565b6107b9565b005b6100f760048036036100f29190810190610ce3565b6107d3565b005b6101016107f0565b60405161010e9190610fe7565b60405180910390f35b61011f6108d9565b600a60405180604001604052908160008201606480602002604051908101604052809291906000905b828210156102b457838260020201604051806040016040529081600082018054600181600116156101000203166002900480601f0160208091040260200160405190810160405280929190818152602001828054600181600116156101000203166002900480156101fa5780601f106101cf576101008083540402835291602001916101fa565b820191906000526020600020905b8154815290600101906020018083116101dd57829003601f168201915b50505050508152602001600182018054600181600116156101000203166002900480601f01602080910402602001604051908101604052809291908181526020018280546001816001161561010002031660029004801561029c5780601f106102715761010080835404028352916020019161029c565b820191906000526020600020905b81548152906001019060200180831161027f57829003601f168201915b50505050508152505081526020019060010190610148565b50505050815260200160c882015481525050905090565b6102d36108f9565b600160405180610120016040529081600082018054600181600116156101000203166002900480601f01602080910402602001604051908101604052809291908181526020018280546001816001161561010002031660029004801561037a5780601f1061034f5761010080835404028352916020019161037a565b820191906000526020600020905b81548152906001019060200180831161035d57829003601f168201915b50505050508152602001600182018054600181600116156101000203166002900480601f01602080910402602001604051908101604052809291908181526020018280546001816001161561010002031660029004801561041c5780601f106103f15761010080835404028352916020019161041c565b820191906000526020600020905b8154815290600101906020018083116103ff57829003601f168201915b50505050508152602001600282018054600181600116156101000203166002900480601f0160208091040260200160405190810160405280929190818152602001828054600181600116156101000203166002900480156104be5780601f10610493576101008083540402835291602001916104be565b820191906000526020600020905b8154815290600101906020018083116104a157829003601f168201915b50505050508152602001600382018054600181600116156101000203166002900480601f0160208091040260200160405190810160405280929190818152602001828054600181600116156101000203166002900480156105605780601f1061053557610100808354040283529160200191610560565b820191906000526020600020905b81548152906001019060200180831161054357829003601f168201915b5050505050815260200160048201548152602001600582018054600181600116156101000203166002900480601f01602080910402602001604051908101604052809291908181526020018280546001816001161561010002031660029004801561060c5780601f106105e15761010080835404028352916020019161060c565b820191906000526020600020905b8154815290600101906020018083116105ef57829003601f168201915b50505050508152602001600682018054600181600116156101000203166002900480601f0160208091040260200160405190810160405280929190818152602001828054600181600116156101000203166002900480156106ae5780601f10610683576101008083540402835291602001916106ae565b820191906000526020600020905b81548152906001019060200180831161069157829003601f168201915b5050505050815260200160078201548152602001600882015481525050905090565b606060d4805480602002602001604051908101604052809291908181526020016000905b828210156107b0578382906000526020600020018054600181600116156101000203166002900480601f01602080910402602001604051908101604052809291908181526020018280546001816001161561010002031660029004801561079c5780601f106107715761010080835404028352916020019161079c565b820191906000526020600020905b81548152906001019060200180831161077f57829003601f168201915b5050505050815260200190600101906106f4565b50505050905090565b8060d490805190602001906107cf929190610945565b5050565b80600160060190805190602001906107ec9291906109a5565b5050565b606060d3805480602002602001604051908101604052809291908181526020016000905b828210156108d0578382906000526020600020018054600181600116156101000203166002900480601f0160208091040260200160405190810160405280929190818152602001828054600181600116156101000203166002900480156108bc5780601f10610891576101008083540402835291602001916108bc565b820191906000526020600020905b81548152906001019060200180831161089f57829003601f168201915b505050505081526020019060010190610814565b50505050905090565b60405180604001604052806108ec610a25565b8152602001600081525090565b6040518061012001604052806060815260200160608152602001606081526020016060815260200160008152602001606081526020016060815260200160008152602001600081525090565b828054828255906000526020600020908101928215610994579160200282015b82811115610993578251829080519060200190610983929190610a53565b5091602001919060010190610965565b5b5090506109a19190610ad3565b5090565b828054600181600116156101000203166002900490600052602060002090601f016020900481019282601f106109e657805160ff1916838001178555610a14565b82800160010185558215610a14579182015b82811115610a135782518255916020019190600101906109f8565b5b509050610a219190610aff565b5090565b60405180610c8001604052806064905b610a3d610b24565b815260200190600190039081610a355790505090565b828054600181600116156101000203166002900490600052602060002090601f016020900481019282601f10610a9457805160ff1916838001178555610ac2565b82800160010185558215610ac2579182015b82811115610ac1578251825591602001919060010190610aa6565b5b509050610acf9190610aff565b5090565b610afc91905b80821115610af85760008181610aef9190610b3e565b50600101610ad9565b5090565b90565b610b2191905b80821115610b1d576000816000905550600101610b05565b5090565b90565b604051806040016040528060608152602001606081525090565b50805460018160011615610100020316600290046000825580601f10610b645750610b83565b601f016020900490600052602060002090810190610b829190610aff565b5b50565b600082601f830112610b9757600080fd5b8135610baa610ba58261107a565b61104d565b9150818183526020840193506020810190508360005b83811015610bf05781358601610bd68882610bfa565b845260208401935060208301925050600181019050610bc0565b5050505092915050565b600082601f830112610c0b57600080fd5b8135610c1e610c19826110a2565b61104d565b91508082526020830160208301858383011115610c3a57600080fd5b610c45838284611186565b50505092915050565b600082601f830112610c5f57600080fd5b8135610c72610c6d826110ce565b61104d565b91508082526020830160208301858383011115610c8e57600080fd5b610c99838284611186565b50505092915050565b600060208284031215610cb457600080fd5b600082013567ffffffffffffffff811115610cce57600080fd5b610cda84828501610b86565b91505092915050565b600060208284031215610cf557600080fd5b600082013567ffffffffffffffff811115610d0f57600080fd5b610d1b84828501610c4e565b91505092915050565b6000610d308383610e36565b905092915050565b6000610d448383610f57565b905092915050565b6000610d5782611114565b610d61818561114f565b935083602082028501610d73856110fa565b8060005b85811015610daf5784840389528151610d908582610d24565b9450610d9b83611135565b925060208a01995050600181019050610d77565b50829750879550505050505092915050565b6000610dcc8261111f565b610dd68185611160565b935083602082028501610de88561110a565b8060005b85811015610e245784840389528151610e058582610d38565b9450610e1083611142565b925060208a01995050600181019050610dec565b50829750879550505050505092915050565b6000610e418261112a565b610e4b818561116b565b9350610e5b818560208601611195565b610e64816111c8565b840191505092915050565b6000610120830160008301518482036000860152610e8d8282610e36565b91505060208301518482036020860152610ea78282610e36565b91505060408301518482036040860152610ec18282610e36565b91505060608301518482036060860152610edb8282610e36565b9150506080830151610ef06080860182610fd8565b5060a083015184820360a0860152610f088282610e36565b91505060c083015184820360c0860152610f228282610e36565b91505060e0830151610f3760e0860182610fd8565b50610100830151610f4c610100860182610fd8565b508091505092915050565b60006040830160008301518482036000860152610f748282610e36565b91505060208301518482036020860152610f8e8282610e36565b9150508091505092915050565b60006040830160008301518482036000860152610fb88282610dc1565b9150506020830151610fcd6020860182610fd8565b508091505092915050565b610fe18161117c565b82525050565b600060208201905081810360008301526110018184610d4c565b905092915050565b600060208201905081810360008301526110238184610e6f565b905092915050565b600060208201905081810360008301526110458184610f9b565b905092915050565b6000604051905081810181811067ffffffffffffffff8211171561107057600080fd5b8060405250919050565b600067ffffffffffffffff82111561109157600080fd5b602082029050602081019050919050565b600067ffffffffffffffff8211156110b957600080fd5b601f19601f8301169050602081019050919050565b600067ffffffffffffffff8211156110e557600080fd5b601f19601f8301169050602081019050919050565b6000819050602082019050919050565b6000819050919050565b600081519050919050565b600060649050919050565b600081519050919050565b6000602082019050919050565b6000602082019050919050565b600082825260208201905092915050565b600081905092915050565b600082825260208201905092915050565b6000819050919050565b82818337600083830152505050565b60005b838110156111b3578082015181840152602081019050611198565b838111156111c2576000848401525b50505050565b6000601f19601f830116905091905056fea264697066735822122016d9b1a7c73dbe206796d27fc79286575d64f65a05a8e1cda1b5f4a3bdad0db064736f6c63430006000033a264697066735822122073e7b5df87839e126ba0908fa96dc9e53988475c11da83e6c486cf742ee913ec64736f6c63430006000033",
  "source": "// SPDX-License-Identifier: MIT\npragma solidity >=0.6.0;\npragma experimental ABIEncoderV2;\n\nimport \"./DataStruct.sol\";\nimport \"./EsToken.sol\";\n\n\ncontract CadastralContract{\n    mapping(string => EsToken) nowEstateList;\n    uint esCount;\n    uint totalCount;\n    uint flag;\n    string [] temp;\n    uint tes;\n\n    constructor() public{\n        esCount = 0;\n        totalCount = 0;\n        flag = 0;\n    }\n\n    event eventSplit(\n        string [] parentId,\n        string [] childId,\n        string changeDate\n    );\n\n    event eventCreate(\n        string Id,\n        string createDate,\n        string endDate,\n        string county,\n        uint townShip,\n        uint reason,\n        uint changedTag,\n        Point [100] pList,\n        uint numOfPoint,\n        uint functional,\n        string eventdata,\n        string [] other\n    );\n\n    event eventMerge(\n        string childId,\n        string [] parentId,\n        string changeDate\n    );\n\n    event eventDelete(\n        string Id,\n        string begDate,\n        string endDate,\n        string data\n    );\n\n    // function create(string memory id,Data memory data,Polygon memory poly,string [] memory pa) public  payable{\n    function create(string memory id,Data memory data,Polygon memory poly,string [] memory pa,uint functional,string memory eventdata,string [] memory other) public  payable{\n        EsToken estate = new EsToken(id,data,poly,pa);\n        nowEstateList[id] = estate;\n        esCount += 1;\n        totalCount += 1;\n        if(flag == 0){\n            emit eventCreate(id,data.begDate,data.endDate,data.county,data.townShip,data.reason,data.changeTag,poly.pList,poly.numOfPoint,functional,eventdata,other);\n        }\n    }\n\n\n    function deleteEst(string memory Id,string memory begDate,string memory endDate,string memory data) public payable{\n        esCount -=1;\n        emit eventDelete(Id,begDate,endDate,data);\n    }\n\n\n    function split(string [] memory sId,string [] memory newIdList,Data [] memory newDataList,Polygon [] memory polygonList, uint numOfnewEstate,uint functional,string memory eventdata) public payable{\n        EsToken estate = nowEstateList[sId[0]];\n        estate.setEndDate(newDataList[0].begDate);\n        estate.setChildren(newIdList);\n\n        for(uint i = 0;i < numOfnewEstate;i++){\n            create(newIdList[i],newDataList[i],polygonList[i],temp,functional,eventdata,sId);\n        }\n\n        emit eventSplit(sId,newIdList,newDataList[0].begDate);\n    }\n\n    function merge(string [] memory mIdList,string memory newId,Data memory data,Polygon memory polygon,uint numOfMergeEstate,uint functional,string memory eventdata) public payable{\n        EsToken estate;\n        tes = numOfMergeEstate;\n        for(uint i = 0;i < numOfMergeEstate;i++){\n            estate = nowEstateList[mIdList[i]];\n            estate.setEndDate(data.begDate);\n            estate.setChildren(temp);\n        }\n        create(newId,data,polygon,mIdList,functional,eventdata,mIdList);\n        emit eventMerge(newId,mIdList,data.begDate);\n    }\n\n    // function getEstateAddress(string memory id) public view returns(address){\n    //     string memory tmp = \"\";\n    //     if(keccak256(abi.encodePacked(changeIdList[id])) != keccak256(abi.encodePacked(tmp))){\n    //         return address(nowEstateList[changeIdList[id]]);\n    //     }\n    //     else{\n    //         return address(nowEstateList[id]);\n    //     }\n    // }\n    function getEstateData(string memory Id) public view returns(Data memory,Polygon memory,string [] memory,string [] memory){\n\n        EsToken estate = nowEstateList[Id];\n        Data memory data = estate.getData();\n        Polygon memory poly = estate.getPolygon();\n        string [] memory pa = estate.getParents();\n        string [] memory chi = estate.getChildren();\n        return (data,poly,pa,chi);\n    }\n\n    \n}",
  "sourcePath": "/Users/weilun/Desktop/helen/privatechain/estate_chain/contracts/CadastralContract.sol",
  "compiler": {
    "name": "solc",
    "version": "0.6.0+commit.26b70077.Emscripten.clang"
  },
  "schemaVersion": "3.3.4",
  "updatedAt": "2022-01-11T15:24:58.806Z",
  "devdoc": {
    "methods": {}
  },
  "userdoc": {
    "methods": {}
  }
}