{
  "contractName": "CadastralContract",
  "abi": [
    {
      "inputs": [],
      "stateMutability": "nonpayable",
      "type": "constructor"
    },
    {
      "anonymous": false,
      "inputs": [
        {
          "components": [
            {
              "internalType": "string",
              "name": "Id",
              "type": "string"
            },
            {
              "internalType": "string",
              "name": "createDate",
              "type": "string"
            },
            {
              "internalType": "string",
              "name": "endDate",
              "type": "string"
            },
            {
              "internalType": "string",
              "name": "county",
              "type": "string"
            },
            {
              "internalType": "uint256",
              "name": "townShip",
              "type": "uint256"
            },
            {
              "internalType": "uint256",
              "name": "reason",
              "type": "uint256"
            },
            {
              "internalType": "uint256",
              "name": "changedTag",
              "type": "uint256"
            },
            {
              "components": [
                {
                  "internalType": "string",
                  "name": "x",
                  "type": "string"
                },
                {
                  "internalType": "string",
                  "name": "y",
                  "type": "string"
                }
              ],
              "internalType": "struct Point[100]",
              "name": "pList",
              "type": "tuple[100]"
            },
            {
              "internalType": "uint256",
              "name": "numOfPoint",
              "type": "uint256"
            },
            {
              "internalType": "uint256",
              "name": "functional",
              "type": "uint256"
            },
            {
              "internalType": "string",
              "name": "enventdata",
              "type": "string"
            },
            {
              "internalType": "string[]",
              "name": "other",
              "type": "string[]"
            }
          ],
          "indexed": false,
          "internalType": "struct EventCreateParam",
          "name": "param",
          "type": "tuple"
        },
        {
          "indexed": false,
          "internalType": "uint256",
          "name": "operationId",
          "type": "uint256"
        },
        {
          "indexed": false,
          "internalType": "uint256",
          "name": "operationType",
          "type": "uint256"
        }
      ],
      "name": "eventCreate",
      "type": "event"
    },
    {
      "anonymous": false,
      "inputs": [
        {
          "indexed": false,
          "internalType": "string",
          "name": "Id",
          "type": "string"
        },
        {
          "indexed": false,
          "internalType": "string",
          "name": "begDate",
          "type": "string"
        },
        {
          "indexed": false,
          "internalType": "string",
          "name": "endDate",
          "type": "string"
        },
        {
          "indexed": false,
          "internalType": "string",
          "name": "data",
          "type": "string"
        },
        {
          "indexed": false,
          "internalType": "uint256",
          "name": "operationId",
          "type": "uint256"
        },
        {
          "indexed": false,
          "internalType": "uint256",
          "name": "operationType",
          "type": "uint256"
        }
      ],
      "name": "eventDelete",
      "type": "event"
    },
    {
      "anonymous": false,
      "inputs": [
        {
          "indexed": false,
          "internalType": "string",
          "name": "childId",
          "type": "string"
        },
        {
          "indexed": false,
          "internalType": "string[]",
          "name": "parentId",
          "type": "string[]"
        },
        {
          "indexed": false,
          "internalType": "string",
          "name": "changeDate",
          "type": "string"
        },
        {
          "indexed": false,
          "internalType": "uint256",
          "name": "operationId",
          "type": "uint256"
        },
        {
          "indexed": false,
          "internalType": "uint256",
          "name": "operationType",
          "type": "uint256"
        }
      ],
      "name": "eventMerge",
      "type": "event"
    },
    {
      "anonymous": false,
      "inputs": [
        {
          "indexed": false,
          "internalType": "string[]",
          "name": "parentId",
          "type": "string[]"
        },
        {
          "indexed": false,
          "internalType": "string[]",
          "name": "childId",
          "type": "string[]"
        },
        {
          "indexed": false,
          "internalType": "string",
          "name": "changeDate",
          "type": "string"
        },
        {
          "indexed": false,
          "internalType": "uint256",
          "name": "operationId",
          "type": "uint256"
        },
        {
          "indexed": false,
          "internalType": "uint256",
          "name": "operationType",
          "type": "uint256"
        }
      ],
      "name": "eventSplit",
      "type": "event"
    },
    {
      "inputs": [
        {
          "components": [
            {
              "internalType": "string",
              "name": "id",
              "type": "string"
            },
            {
              "components": [
                {
                  "internalType": "string",
                  "name": "pcno",
                  "type": "string"
                },
                {
                  "internalType": "string",
                  "name": "pmno",
                  "type": "string"
                },
                {
                  "internalType": "string",
                  "name": "scno",
                  "type": "string"
                },
                {
                  "internalType": "string",
                  "name": "county",
                  "type": "string"
                },
                {
                  "internalType": "uint256",
                  "name": "townShip",
                  "type": "uint256"
                },
                {
                  "internalType": "string",
                  "name": "begDate",
                  "type": "string"
                },
                {
                  "internalType": "string",
                  "name": "endDate",
                  "type": "string"
                },
                {
                  "internalType": "uint256",
                  "name": "reason",
                  "type": "uint256"
                },
                {
                  "internalType": "uint256",
                  "name": "changeTag",
                  "type": "uint256"
                }
              ],
              "internalType": "struct Data",
              "name": "data",
              "type": "tuple"
            },
            {
              "components": [
                {
                  "components": [
                    {
                      "internalType": "string",
                      "name": "x",
                      "type": "string"
                    },
                    {
                      "internalType": "string",
                      "name": "y",
                      "type": "string"
                    }
                  ],
                  "internalType": "struct Point[100]",
                  "name": "pList",
                  "type": "tuple[100]"
                },
                {
                  "internalType": "uint256",
                  "name": "numOfPoint",
                  "type": "uint256"
                }
              ],
              "internalType": "struct Polygon",
              "name": "poly",
              "type": "tuple"
            },
            {
              "internalType": "string[]",
              "name": "pa",
              "type": "string[]"
            },
            {
              "internalType": "uint256",
              "name": "functional",
              "type": "uint256"
            },
            {
              "internalType": "string",
              "name": "eventdata",
              "type": "string"
            },
            {
              "internalType": "string[]",
              "name": "other",
              "type": "string[]"
            }
          ],
          "internalType": "struct FunctionCreateParam",
          "name": "param",
          "type": "tuple"
        },
        {
          "internalType": "uint256",
          "name": "operationId",
          "type": "uint256"
        },
        {
          "internalType": "uint256",
          "name": "operationType",
          "type": "uint256"
        }
      ],
      "name": "create",
      "outputs": [],
      "stateMutability": "payable",
      "type": "function",
      "payable": true
    },
    {
      "inputs": [
        {
          "internalType": "string",
          "name": "id",
          "type": "string"
        },
        {
          "internalType": "string",
          "name": "begDate",
          "type": "string"
        },
        {
          "internalType": "string",
          "name": "endDate",
          "type": "string"
        },
        {
          "internalType": "string",
          "name": "data",
          "type": "string"
        },
        {
          "internalType": "uint256",
          "name": "operationId",
          "type": "uint256"
        },
        {
          "internalType": "uint256",
          "name": "operationType",
          "type": "uint256"
        }
      ],
      "name": "deleteEst",
      "outputs": [],
      "stateMutability": "payable",
      "type": "function",
      "payable": true
    },
    {
      "inputs": [
        {
          "internalType": "string[]",
          "name": "sId",
          "type": "string[]"
        },
        {
          "internalType": "string[]",
          "name": "newIdList",
          "type": "string[]"
        },
        {
          "components": [
            {
              "internalType": "string",
              "name": "pcno",
              "type": "string"
            },
            {
              "internalType": "string",
              "name": "pmno",
              "type": "string"
            },
            {
              "internalType": "string",
              "name": "scno",
              "type": "string"
            },
            {
              "internalType": "string",
              "name": "county",
              "type": "string"
            },
            {
              "internalType": "uint256",
              "name": "townShip",
              "type": "uint256"
            },
            {
              "internalType": "string",
              "name": "begDate",
              "type": "string"
            },
            {
              "internalType": "string",
              "name": "endDate",
              "type": "string"
            },
            {
              "internalType": "uint256",
              "name": "reason",
              "type": "uint256"
            },
            {
              "internalType": "uint256",
              "name": "changeTag",
              "type": "uint256"
            }
          ],
          "internalType": "struct Data[]",
          "name": "newDataList",
          "type": "tuple[]"
        },
        {
          "components": [
            {
              "components": [
                {
                  "internalType": "string",
                  "name": "x",
                  "type": "string"
                },
                {
                  "internalType": "string",
                  "name": "y",
                  "type": "string"
                }
              ],
              "internalType": "struct Point[100]",
              "name": "pList",
              "type": "tuple[100]"
            },
            {
              "internalType": "uint256",
              "name": "numOfPoint",
              "type": "uint256"
            }
          ],
          "internalType": "struct Polygon[]",
          "name": "polygonList",
          "type": "tuple[]"
        },
        {
          "internalType": "uint256",
          "name": "numOfnewEstate",
          "type": "uint256"
        },
        {
          "internalType": "uint256",
          "name": "functional",
          "type": "uint256"
        },
        {
          "internalType": "string",
          "name": "eventdata",
          "type": "string"
        },
        {
          "internalType": "uint256",
          "name": "operationId",
          "type": "uint256"
        },
        {
          "internalType": "uint256",
          "name": "operationType",
          "type": "uint256"
        }
      ],
      "name": "split",
      "outputs": [],
      "stateMutability": "payable",
      "type": "function",
      "payable": true
    },
    {
      "inputs": [
        {
          "internalType": "string[]",
          "name": "mIdList",
          "type": "string[]"
        },
        {
          "internalType": "string",
          "name": "newId",
          "type": "string"
        },
        {
          "components": [
            {
              "internalType": "string",
              "name": "pcno",
              "type": "string"
            },
            {
              "internalType": "string",
              "name": "pmno",
              "type": "string"
            },
            {
              "internalType": "string",
              "name": "scno",
              "type": "string"
            },
            {
              "internalType": "string",
              "name": "county",
              "type": "string"
            },
            {
              "internalType": "uint256",
              "name": "townShip",
              "type": "uint256"
            },
            {
              "internalType": "string",
              "name": "begDate",
              "type": "string"
            },
            {
              "internalType": "string",
              "name": "endDate",
              "type": "string"
            },
            {
              "internalType": "uint256",
              "name": "reason",
              "type": "uint256"
            },
            {
              "internalType": "uint256",
              "name": "changeTag",
              "type": "uint256"
            }
          ],
          "internalType": "struct Data",
          "name": "data",
          "type": "tuple"
        },
        {
          "components": [
            {
              "components": [
                {
                  "internalType": "string",
                  "name": "x",
                  "type": "string"
                },
                {
                  "internalType": "string",
                  "name": "y",
                  "type": "string"
                }
              ],
              "internalType": "struct Point[100]",
              "name": "pList",
              "type": "tuple[100]"
            },
            {
              "internalType": "uint256",
              "name": "numOfPoint",
              "type": "uint256"
            }
          ],
          "internalType": "struct Polygon",
          "name": "polygon",
          "type": "tuple"
        },
        {
          "internalType": "uint256",
          "name": "numOfMergeEstate",
          "type": "uint256"
        },
        {
          "internalType": "uint256",
          "name": "functional",
          "type": "uint256"
        },
        {
          "internalType": "string",
          "name": "eventdata",
          "type": "string"
        },
        {
          "internalType": "uint256",
          "name": "operationId",
          "type": "uint256"
        },
        {
          "internalType": "uint256",
          "name": "operationType",
          "type": "uint256"
        }
      ],
      "name": "merge",
      "outputs": [],
      "stateMutability": "payable",
      "type": "function",
      "payable": true
    },
    {
      "inputs": [
        {
          "internalType": "string",
          "name": "Id",
          "type": "string"
        }
      ],
      "name": "getEstateData",
      "outputs": [
        {
          "components": [
            {
              "internalType": "string",
              "name": "pcno",
              "type": "string"
            },
            {
              "internalType": "string",
              "name": "pmno",
              "type": "string"
            },
            {
              "internalType": "string",
              "name": "scno",
              "type": "string"
            },
            {
              "internalType": "string",
              "name": "county",
              "type": "string"
            },
            {
              "internalType": "uint256",
              "name": "townShip",
              "type": "uint256"
            },
            {
              "internalType": "string",
              "name": "begDate",
              "type": "string"
            },
            {
              "internalType": "string",
              "name": "endDate",
              "type": "string"
            },
            {
              "internalType": "uint256",
              "name": "reason",
              "type": "uint256"
            },
            {
              "internalType": "uint256",
              "name": "changeTag",
              "type": "uint256"
            }
          ],
          "internalType": "struct Data",
          "name": "",
          "type": "tuple"
        },
        {
          "components": [
            {
              "components": [
                {
                  "internalType": "string",
                  "name": "x",
                  "type": "string"
                },
                {
                  "internalType": "string",
                  "name": "y",
                  "type": "string"
                }
              ],
              "internalType": "struct Point[100]",
              "name": "pList",
              "type": "tuple[100]"
            },
            {
              "internalType": "uint256",
              "name": "numOfPoint",
              "type": "uint256"
            }
          ],
          "internalType": "struct Polygon",
          "name": "",
          "type": "tuple"
        },
        {
          "internalType": "string[]",
          "name": "",
          "type": "string[]"
        },
        {
          "internalType": "string[]",
          "name": "",
          "type": "string[]"
        }
      ],
      "stateMutability": "view",
      "type": "function",
      "constant": true
    }
  ],
  "bytecode": "0x608060405234801561001057600080fd5b50600060018190555060006002819055506000600381905550614adf806100386000396000f3fe608060405260043610620000505760003560e01c8063147cedbc14620000555780637093ff5b1462000075578063c4dd056a14620000bc578063c702b05414620000dc578063dced99cf14620000fc575b600080fd5b6200007360048036038101906200006d919062000d9c565b6200011c565b005b3480156200008257600080fd5b50620000a160048036038101906200009b919062000eb4565b62000182565b604051620000b39493929190620012c0565b60405180910390f35b620000da6004803603810190620000d49190620017d4565b620003e1565b005b620000fa6004803603810190620000f4919062001b3c565b620005e0565b005b6200011a600480360381019062000114919062001e37565b62000945565b005b600180600082825462000130919062001ee1565b925050819055507f24d3f000245c69ffcf9dabe8e3b28cae14ae368c7c1db748f7ce18d7230a66e6868686868686604051620001729695949392919062001f7f565b60405180910390a1505050505050565b6200018c62000b24565b6200019662000b70565b60608060008086604051620001ac91906200204a565b908152602001604051809103902060009054906101000a900473ffffffffffffffffffffffffffffffffffffffff16905060008173ffffffffffffffffffffffffffffffffffffffff16633bc5de306040518163ffffffff1660e01b8152600401600060405180830381865afa1580156200022b573d6000803e3d6000fd5b505050506040513d6000823e3d601f19601f82011682018060405250810190620002569190620022a9565b905060008273ffffffffffffffffffffffffffffffffffffffff166313d743bc6040518163ffffffff1660e01b8152600401600060405180830381865afa158015620002a6573d6000803e3d6000fd5b505050506040513d6000823e3d601f19601f82011682018060405250810190620002d19190620024c5565b905060008373ffffffffffffffffffffffffffffffffffffffff1663dd6133b56040518163ffffffff1660e01b8152600401600060405180830381865afa15801562000321573d6000803e3d6000fd5b505050506040513d6000823e3d601f19601f820116820180604052508101906200034c9190620025de565b905060008473ffffffffffffffffffffffffffffffffffffffff16634892e8e86040518163ffffffff1660e01b8152600401600060405180830381865afa1580156200039c573d6000803e3d6000fd5b505050506040513d6000823e3d601f19601f82011682018060405250810190620003c79190620025de565b905083838383985098509850985050505050509193509193565b60008560058190555060005b868110156200054f5760008b82815181106200040e576200040d6200262f565b5b60200260200101516040516200042591906200204a565b908152602001604051809103902060009054906101000a900473ffffffffffffffffffffffffffffffffffffffff1691508173ffffffffffffffffffffffffffffffffffffffff1663940944208a60a001516040518263ffffffff1660e01b81526004016200049591906200265e565b600060405180830381600087803b158015620004b057600080fd5b505af1158015620004c5573d6000803e3d6000fd5b505050508173ffffffffffffffffffffffffffffffffffffffff16636d8012b760046040518263ffffffff1660e01b81526004016200050591906200284b565b600060405180830381600087803b1580156200052057600080fd5b505af115801562000535573d6000803e3d6000fd5b50505050808062000546906200286f565b915050620003ed565b506200058f6040518060e001604052808b81526020018a81526020018981526020018c81526020018781526020018681526020018c815250848462000945565b7f980fd1d4d213638a00f4646c06878b218ed8823a7937ae33786e997da4a99fd4898b8a60a001518686604051620005cc959493929190620028bd565b60405180910390a150505050505050505050565b6000808a600081518110620005fa57620005f96200262f565b5b60200260200101516040516200061191906200204a565b908152602001604051809103902060009054906101000a900473ffffffffffffffffffffffffffffffffffffffff1690508073ffffffffffffffffffffffffffffffffffffffff166394094420896000815181106200067557620006746200262f565b5b602002602001015160a001516040518263ffffffff1660e01b81526004016200069f91906200265e565b600060405180830381600087803b158015620006ba57600080fd5b505af1158015620006cf573d6000803e3d6000fd5b505050508073ffffffffffffffffffffffffffffffffffffffff16636d8012b78a6040518263ffffffff1660e01b81526004016200070e91906200292f565b600060405180830381600087803b1580156200072957600080fd5b505af11580156200073e573d6000803e3d6000fd5b5050505060005b86811015620008d557620008bf6040518060e001604052808c84815181106200077357620007726200262f565b5b602002602001015181526020018b84815181106200079657620007956200262f565b5b602002602001015181526020018a8481518110620007b957620007b86200262f565b5b602002602001015181526020016004805480602002602001604051908101604052809291908181526020016000905b828210156200089e5783829060005260206000200180546200080a90620026d1565b80601f01602080910402602001604051908101604052809291908181526020018280546200083890620026d1565b8015620008895780601f106200085d5761010080835404028352916020019162000889565b820191906000526020600020905b8154815290600101906020018083116200086b57829003601f168201915b505050505081526020019060010190620007e8565b5050505081526020018881526020018781526020018d815250858562000945565b8080620008cc906200286f565b91505062000745565b507f468800dce1c418b0b5ea7ba5dc1e87b367687a7a6bda5e26d8e8250505f05ecb8a8a8a60008151811062000910576200090f6200262f565b5b602002602001015160a0015186866040516200093195949392919062002953565b60405180910390a150505050505050505050565b60008360000151846020015185604001518660600151604051620009699062000b92565b620009789493929190620029c5565b604051809103906000f08015801562000995573d6000803e3d6000fd5b5090508060008560000151604051620009af91906200204a565b908152602001604051809103902060006101000a81548173ffffffffffffffffffffffffffffffffffffffff021916908373ffffffffffffffffffffffffffffffffffffffff160217905550600180600082825462000a0f919062002a2e565b9250508190555060016002600082825462000a2b919062002a2e565b925050819055506000600354141562000b1e577fbbc5ce51461b888ce8bdd79cd5b6ddd6585fff932b9b04e099bd2bb9d6411a4d60405180610180016040528086600001518152602001866020015160a001518152602001866020015160c00151815260200186602001516060015181526020018660200151608001518152602001866020015160e00151815260200186602001516101000151815260200186604001516000015181526020018660400151602001518152602001866080015181526020018660a0015181526020018660c00151815250848460405162000b159392919062002c63565b60405180910390a15b50505050565b6040518061012001604052806060815260200160608152602001606081526020016060815260200160008152602001606081526020016060815260200160008152602001600081525090565b604051806040016040528062000b8562000ba0565b8152602001600081525090565b611e028062002ca883390190565b60405180610c8001604052806064905b62000bba62000bd1565b81526020019060019003908162000bb05790505090565b604051806040016040528060608152602001606081525090565b6000604051905090565b600080fd5b600080fd5b600080fd5b600080fd5b6000601f19601f8301169050919050565b7f4e487b7100000000000000000000000000000000000000000000000000000000600052604160045260246000fd5b62000c548262000c09565b810181811067ffffffffffffffff8211171562000c765762000c7562000c1a565b5b80604052505050565b600062000c8b62000beb565b905062000c99828262000c49565b919050565b600067ffffffffffffffff82111562000cbc5762000cbb62000c1a565b5b62000cc78262000c09565b9050602081019050919050565b82818337600083830152505050565b600062000cfa62000cf48462000c9e565b62000c7f565b90508281526020810184848401111562000d195762000d1862000c04565b5b62000d2684828562000cd4565b509392505050565b600082601f83011262000d465762000d4562000bff565b5b813562000d5884826020860162000ce3565b91505092915050565b6000819050919050565b62000d768162000d61565b811462000d8257600080fd5b50565b60008135905062000d968162000d6b565b92915050565b60008060008060008060c0878903121562000dbc5762000dbb62000bf5565b5b600087013567ffffffffffffffff81111562000ddd5762000ddc62000bfa565b5b62000deb89828a0162000d2e565b965050602087013567ffffffffffffffff81111562000e0f5762000e0e62000bfa565b5b62000e1d89828a0162000d2e565b955050604087013567ffffffffffffffff81111562000e415762000e4062000bfa565b5b62000e4f89828a0162000d2e565b945050606087013567ffffffffffffffff81111562000e735762000e7262000bfa565b5b62000e8189828a0162000d2e565b935050608062000e9489828a0162000d85565b92505060a062000ea789828a0162000d85565b9150509295509295509295565b60006020828403121562000ecd5762000ecc62000bf5565b5b600082013567ffffffffffffffff81111562000eee5762000eed62000bfa565b5b62000efc8482850162000d2e565b91505092915050565b600081519050919050565b600082825260208201905092915050565b60005b8381101562000f4157808201518184015260208101905062000f24565b8381111562000f51576000848401525b50505050565b600062000f648262000f05565b62000f70818562000f10565b935062000f8281856020860162000f21565b62000f8d8162000c09565b840191505092915050565b62000fa38162000d61565b82525050565b600061012083016000830151848203600086015262000fc9828262000f57565b9150506020830151848203602086015262000fe5828262000f57565b9150506040830151848203604086015262001001828262000f57565b915050606083015184820360608601526200101d828262000f57565b915050608083015162001034608086018262000f98565b5060a083015184820360a08601526200104e828262000f57565b91505060c083015184820360c08601526200106a828262000f57565b91505060e08301516200108160e086018262000f98565b506101008301516200109861010086018262000f98565b508091505092915050565b600060649050919050565b600081905092915050565b6000819050919050565b60006040830160008301518482036000860152620010e2828262000f57565b91505060208301518482036020860152620010fe828262000f57565b9150508091505092915050565b6000620011198383620010c3565b905092915050565b6000602082019050919050565b60006200113b82620010a3565b620011478185620010ae565b9350836020820285016200115b85620010b9565b8060005b858110156200119d57848403895281516200117b85826200110b565b9450620011888362001121565b925060208a019950506001810190506200115f565b50829750879550505050505092915050565b60006040830160008301518482036000860152620011ce82826200112e565b9150506020830151620011e5602086018262000f98565b508091505092915050565b600081519050919050565b600082825260208201905092915050565b6000819050602082019050919050565b60006200122a838362000f57565b905092915050565b6000602082019050919050565b60006200124c82620011f0565b620012588185620011fb565b9350836020820285016200126c856200120c565b8060005b85811015620012ae57848403895281516200128c85826200121c565b9450620012998362001232565b925060208a0199505060018101905062001270565b50829750879550505050505092915050565b60006080820190508181036000830152620012dc818762000fa9565b90508181036020830152620012f28186620011af565b905081810360408301526200130881856200123f565b905081810360608301526200131e81846200123f565b905095945050505050565b600067ffffffffffffffff82111562001347576200134662000c1a565b5b602082029050602081019050919050565b600080fd5b6000620013746200136e8462001329565b62000c7f565b905080838252602082019050602084028301858111156200139a576200139962001358565b5b835b81811015620013e857803567ffffffffffffffff811115620013c357620013c262000bff565b5b808601620013d2898262000d2e565b855260208501945050506020810190506200139c565b5050509392505050565b600082601f8301126200140a576200140962000bff565b5b81356200141c8482602086016200135d565b91505092915050565b600080fd5b600080fd5b6000610120828403121562001449576200144862001425565b5b6200145661012062000c7f565b9050600082013567ffffffffffffffff8111156200147957620014786200142a565b5b620014878482850162000d2e565b600083015250602082013567ffffffffffffffff811115620014ae57620014ad6200142a565b5b620014bc8482850162000d2e565b602083015250604082013567ffffffffffffffff811115620014e357620014e26200142a565b5b620014f18482850162000d2e565b604083015250606082013567ffffffffffffffff8111156200151857620015176200142a565b5b620015268482850162000d2e565b60608301525060806200153c8482850162000d85565b60808301525060a082013567ffffffffffffffff8111156200156357620015626200142a565b5b620015718482850162000d2e565b60a08301525060c082013567ffffffffffffffff8111156200159857620015976200142a565b5b620015a68482850162000d2e565b60c08301525060e0620015bc8482850162000d85565b60e083015250610100620015d38482850162000d85565b6101008301525092915050565b600067ffffffffffffffff821115620015fe57620015fd62000c1a565b5b602082029050919050565b60006040828403121562001622576200162162001425565b5b6200162e604062000c7f565b9050600082013567ffffffffffffffff8111156200165157620016506200142a565b5b6200165f8482850162000d2e565b600083015250602082013567ffffffffffffffff8111156200168657620016856200142a565b5b620016948482850162000d2e565b60208301525092915050565b6000620016b7620016b184620015e0565b62000c7f565b90508060208402830185811115620016d457620016d362001358565b5b835b818110156200172257803567ffffffffffffffff811115620016fd57620016fc62000bff565b5b8086016200170c898262001609565b85526020850194505050602081019050620016d6565b5050509392505050565b600082601f83011262001744576200174362000bff565b5b606462001753848285620016a0565b91505092915050565b60006040828403121562001775576200177462001425565b5b62001781604062000c7f565b9050600082013567ffffffffffffffff811115620017a457620017a36200142a565b5b620017b2848285016200172c565b6000830152506020620017c88482850162000d85565b60208301525092915050565b60008060008060008060008060006101208a8c031215620017fa57620017f962000bf5565b5b60008a013567ffffffffffffffff8111156200181b576200181a62000bfa565b5b620018298c828d01620013f2565b99505060208a013567ffffffffffffffff8111156200184d576200184c62000bfa565b5b6200185b8c828d0162000d2e565b98505060408a013567ffffffffffffffff8111156200187f576200187e62000bfa565b5b6200188d8c828d016200142f565b97505060608a013567ffffffffffffffff811115620018b157620018b062000bfa565b5b620018bf8c828d016200175c565b9650506080620018d28c828d0162000d85565b95505060a0620018e58c828d0162000d85565b94505060c08a013567ffffffffffffffff81111562001909576200190862000bfa565b5b620019178c828d0162000d2e565b93505060e06200192a8c828d0162000d85565b9250506101006200193e8c828d0162000d85565b9150509295985092959850929598565b600067ffffffffffffffff8211156200196c576200196b62000c1a565b5b602082029050602081019050919050565b6000620019946200198e846200194e565b62000c7f565b90508083825260208201905060208402830185811115620019ba57620019b962001358565b5b835b8181101562001a0857803567ffffffffffffffff811115620019e357620019e262000bff565b5b808601620019f289826200142f565b85526020850194505050602081019050620019bc565b5050509392505050565b600082601f83011262001a2a5762001a2962000bff565b5b813562001a3c8482602086016200197d565b91505092915050565b600067ffffffffffffffff82111562001a635762001a6262000c1a565b5b602082029050602081019050919050565b600062001a8b62001a858462001a45565b62000c7f565b9050808382526020820190506020840283018581111562001ab15762001ab062001358565b5b835b8181101562001aff57803567ffffffffffffffff81111562001ada5762001ad962000bff565b5b80860162001ae989826200175c565b8552602085019450505060208101905062001ab3565b5050509392505050565b600082601f83011262001b215762001b2062000bff565b5b813562001b3384826020860162001a74565b91505092915050565b60008060008060008060008060006101208a8c03121562001b625762001b6162000bf5565b5b60008a013567ffffffffffffffff81111562001b835762001b8262000bfa565b5b62001b918c828d01620013f2565b99505060208a013567ffffffffffffffff81111562001bb55762001bb462000bfa565b5b62001bc38c828d01620013f2565b98505060408a013567ffffffffffffffff81111562001be75762001be662000bfa565b5b62001bf58c828d0162001a12565b97505060608a013567ffffffffffffffff81111562001c195762001c1862000bfa565b5b62001c278c828d0162001b09565b965050608062001c3a8c828d0162000d85565b95505060a062001c4d8c828d0162000d85565b94505060c08a013567ffffffffffffffff81111562001c715762001c7062000bfa565b5b62001c7f8c828d0162000d2e565b93505060e062001c928c828d0162000d85565b92505061010062001ca68c828d0162000d85565b9150509295985092959850929598565b600060e0828403121562001ccf5762001cce62001425565b5b62001cdb60e062000c7f565b9050600082013567ffffffffffffffff81111562001cfe5762001cfd6200142a565b5b62001d0c8482850162000d2e565b600083015250602082013567ffffffffffffffff81111562001d335762001d326200142a565b5b62001d41848285016200142f565b602083015250604082013567ffffffffffffffff81111562001d685762001d676200142a565b5b62001d76848285016200175c565b604083015250606082013567ffffffffffffffff81111562001d9d5762001d9c6200142a565b5b62001dab84828501620013f2565b606083015250608062001dc18482850162000d85565b60808301525060a082013567ffffffffffffffff81111562001de85762001de76200142a565b5b62001df68482850162000d2e565b60a08301525060c082013567ffffffffffffffff81111562001e1d5762001e1c6200142a565b5b62001e2b84828501620013f2565b60c08301525092915050565b60008060006060848603121562001e535762001e5262000bf5565b5b600084013567ffffffffffffffff81111562001e745762001e7362000bfa565b5b62001e828682870162001cb6565b935050602062001e958682870162000d85565b925050604062001ea88682870162000d85565b9150509250925092565b7f4e487b7100000000000000000000000000000000000000000000000000000000600052601160045260246000fd5b600062001eee8262000d61565b915062001efb8362000d61565b92508282101562001f115762001f1062001eb2565b5b828203905092915050565b600082825260208201905092915050565b600062001f3a8262000f05565b62001f46818562001f1c565b935062001f5881856020860162000f21565b62001f638162000c09565b840191505092915050565b62001f798162000d61565b82525050565b600060c082019050818103600083015262001f9b818962001f2d565b9050818103602083015262001fb1818862001f2d565b9050818103604083015262001fc7818762001f2d565b9050818103606083015262001fdd818662001f2d565b905062001fee608083018562001f6e565b62001ffd60a083018462001f6e565b979650505050505050565b600081905092915050565b6000620020208262000f05565b6200202c818562002008565b93506200203e81856020860162000f21565b80840191505092915050565b600062002058828462002013565b915081905092915050565b60006200207a620020748462000c9e565b62000c7f565b90508281526020810184848401111562002099576200209862000c04565b5b620020a684828562000f21565b509392505050565b600082601f830112620020c657620020c562000bff565b5b8151620020d884826020860162002063565b91505092915050565b600081519050620020f28162000d6b565b92915050565b6000610120828403121562002112576200211162001425565b5b6200211f61012062000c7f565b9050600082015167ffffffffffffffff8111156200214257620021416200142a565b5b6200215084828501620020ae565b600083015250602082015167ffffffffffffffff8111156200217757620021766200142a565b5b6200218584828501620020ae565b602083015250604082015167ffffffffffffffff811115620021ac57620021ab6200142a565b5b620021ba84828501620020ae565b604083015250606082015167ffffffffffffffff811115620021e157620021e06200142a565b5b620021ef84828501620020ae565b60608301525060806200220584828501620020e1565b60808301525060a082015167ffffffffffffffff8111156200222c576200222b6200142a565b5b6200223a84828501620020ae565b60a08301525060c082015167ffffffffffffffff8111156200226157620022606200142a565b5b6200226f84828501620020ae565b60c08301525060e06200228584828501620020e1565b60e0830152506101006200229c84828501620020e1565b6101008301525092915050565b600060208284031215620022c257620022c162000bf5565b5b600082015167ffffffffffffffff811115620022e357620022e262000bfa565b5b620022f184828501620020f8565b91505092915050565b60006040828403121562002313576200231262001425565b5b6200231f604062000c7f565b9050600082015167ffffffffffffffff8111156200234257620023416200142a565b5b6200235084828501620020ae565b600083015250602082015167ffffffffffffffff8111156200237757620023766200142a565b5b6200238584828501620020ae565b60208301525092915050565b6000620023a8620023a284620015e0565b62000c7f565b90508060208402830185811115620023c557620023c462001358565b5b835b818110156200241357805167ffffffffffffffff811115620023ee57620023ed62000bff565b5b808601620023fd8982620022fa565b85526020850194505050602081019050620023c7565b5050509392505050565b600082601f83011262002435576200243462000bff565b5b60646200244484828562002391565b91505092915050565b60006040828403121562002466576200246562001425565b5b62002472604062000c7f565b9050600082015167ffffffffffffffff8111156200249557620024946200142a565b5b620024a3848285016200241d565b6000830152506020620024b984828501620020e1565b60208301525092915050565b600060208284031215620024de57620024dd62000bf5565b5b600082015167ffffffffffffffff811115620024ff57620024fe62000bfa565b5b6200250d848285016200244d565b91505092915050565b60006200252d620025278462001329565b62000c7f565b9050808382526020820190506020840283018581111562002553576200255262001358565b5b835b81811015620025a157805167ffffffffffffffff8111156200257c576200257b62000bff565b5b8086016200258b8982620020ae565b8552602085019450505060208101905062002555565b5050509392505050565b600082601f830112620025c357620025c262000bff565b5b8151620025d584826020860162002516565b91505092915050565b600060208284031215620025f757620025f662000bf5565b5b600082015167ffffffffffffffff81111562002618576200261762000bfa565b5b6200262684828501620025ab565b91505092915050565b7f4e487b7100000000000000000000000000000000000000000000000000000000600052603260045260246000fd5b600060208201905081810360008301526200267a818462001f2d565b905092915050565b600081549050919050565b60008190508160005260206000209050919050565b7f4e487b7100000000000000000000000000000000000000000000000000000000600052602260045260246000fd5b60006002820490506001821680620026ea57607f821691505b60208210811415620027015762002700620026a2565b5b50919050565b60008190508160005260206000209050919050565b600081546200272b81620026d1565b62002737818662000f10565b9450600182166000811462002755576001811462002768576200279f565b60ff19831686526020860193506200279f565b620027738562002707565b60005b83811015620027975781548189015260018201915060208101905062002776565b808801955050505b50505092915050565b6000620027b683836200271c565b905092915050565b6000600182019050919050565b6000620027d88262002682565b620027e48185620011fb565b935083602082028501620027f8856200268d565b8060005b858110156200283957848403895281620028178582620027a8565b94506200282483620027be565b925060208a01995050600181019050620027fc565b50829750879550505050505092915050565b60006020820190508181036000830152620028678184620027cb565b905092915050565b60006200287c8262000d61565b91507fffffffffffffffffffffffffffffffffffffffffffffffffffffffffffffffff821415620028b257620028b162001eb2565b5b600182019050919050565b600060a0820190508181036000830152620028d9818862001f2d565b90508181036020830152620028ef81876200123f565b9050818103604083015262002905818662001f2d565b905062002916606083018562001f6e565b62002925608083018462001f6e565b9695505050505050565b600060208201905081810360008301526200294b81846200123f565b905092915050565b600060a08201905081810360008301526200296f81886200123f565b905081810360208301526200298581876200123f565b905081810360408301526200299b818662001f2d565b9050620029ac606083018562001f6e565b620029bb608083018462001f6e565b9695505050505050565b60006080820190508181036000830152620029e1818762001f2d565b90508181036020830152620029f7818662000fa9565b9050818103604083015262002a0d8185620011af565b9050818103606083015262002a2381846200123f565b905095945050505050565b600062002a3b8262000d61565b915062002a488362000d61565b9250827fffffffffffffffffffffffffffffffffffffffffffffffffffffffffffffffff0382111562002a805762002a7f62001eb2565b5b828201905092915050565b600082825260208201905092915050565b600062002aa982620011f0565b62002ab5818562002a8b565b93508360208202850162002ac9856200120c565b8060005b8581101562002b0b578484038952815162002ae985826200121c565b945062002af68362001232565b925060208a0199505060018101905062002acd565b50829750879550505050505092915050565b600061018083016000830151848203600086015262002b3d828262000f57565b9150506020830151848203602086015262002b59828262000f57565b9150506040830151848203604086015262002b75828262000f57565b9150506060830151848203606086015262002b91828262000f57565b915050608083015162002ba8608086018262000f98565b5060a083015162002bbd60a086018262000f98565b5060c083015162002bd260c086018262000f98565b5060e083015184820360e086015262002bec82826200112e565b91505061010083015162002c0561010086018262000f98565b5061012083015162002c1c61012086018262000f98565b5061014083015184820361014086015262002c38828262000f57565b91505061016083015184820361016086015262002c56828262002a9c565b9150508091505092915050565b6000606082019050818103600083015262002c7f818662002b1d565b905062002c90602083018562001f6e565b62002c9f604083018462001f6e565b94935050505056fe60806040523480156200001157600080fd5b5060405162001e0238038062001e02833981810160405281019062000037919062000a4e565b8260000151600160000190805190602001906200005692919062000246565b508260400151600160020190805190602001906200007692919062000246565b5082602001516001800190805190602001906200009592919062000246565b50826060015160016003019080519060200190620000b592919062000246565b5082608001516001600401819055508260a0015160016005019080519060200190620000e392919062000246565b508260c00151600160060190805190602001906200010392919062000246565b508260e0015160016007018190555082610100015160016008018190555060005b8260200151811015620001fb57826000015181606481106200014b576200014a62000b3c565b5b602002015160000151600a60000182606481106200016e576200016d62000b3c565b5b6002020160000190805190602001906200018a92919062000246565b5082600001518160648110620001a557620001a462000b3c565b5b602002015160200151600a6000018260648110620001c857620001c762000b3c565b5b600202016001019080519060200190620001e492919062000246565b508080620001f29062000b9a565b91505062000124565b508160200151600a60c801819055508060d3908051906020019062000222929190620002d7565b5083600090805190602001906200023b92919062000246565b505050505062000c4d565b828054620002549062000c17565b90600052602060002090601f016020900481019282620002785760008555620002c4565b82601f106200029357805160ff1916838001178555620002c4565b82800160010185558215620002c4579182015b82811115620002c3578251825591602001919060010190620002a6565b5b509050620002d391906200033e565b5090565b8280548282559060005260206000209081019282156200032b579160200282015b828111156200032a5782518290805190602001906200031992919062000246565b5091602001919060010190620002f8565b5b5090506200033a91906200035d565b5090565b5b80821115620003595760008160009055506001016200033f565b5090565b5b8082111562000381576000818162000377919062000385565b506001016200035e565b5090565b508054620003939062000c17565b6000825580601f10620003a75750620003c8565b601f016020900490600052602060002090810190620003c791906200033e565b5b50565b6000604051905090565b600080fd5b600080fd5b600080fd5b600080fd5b6000601f19601f8301169050919050565b7f4e487b7100000000000000000000000000000000000000000000000000000000600052604160045260246000fd5b6200043482620003e9565b810181811067ffffffffffffffff82111715620004565762000455620003fa565b5b80604052505050565b60006200046b620003cb565b905062000479828262000429565b919050565b600067ffffffffffffffff8211156200049c576200049b620003fa565b5b620004a782620003e9565b9050602081019050919050565b60005b83811015620004d4578082015181840152602081019050620004b7565b83811115620004e4576000848401525b50505050565b600062000501620004fb846200047e565b6200045f565b90508281526020810184848401111562000520576200051f620003e4565b5b6200052d848285620004b4565b509392505050565b600082601f8301126200054d576200054c620003df565b5b81516200055f848260208601620004ea565b91505092915050565b600080fd5b600080fd5b6000819050919050565b620005878162000572565b81146200059357600080fd5b50565b600081519050620005a7816200057c565b92915050565b60006101208284031215620005c757620005c662000568565b5b620005d46101206200045f565b9050600082015167ffffffffffffffff811115620005f757620005f66200056d565b5b620006058482850162000535565b600083015250602082015167ffffffffffffffff8111156200062c576200062b6200056d565b5b6200063a8482850162000535565b602083015250604082015167ffffffffffffffff8111156200066157620006606200056d565b5b6200066f8482850162000535565b604083015250606082015167ffffffffffffffff8111156200069657620006956200056d565b5b620006a48482850162000535565b6060830152506080620006ba8482850162000596565b60808301525060a082015167ffffffffffffffff811115620006e157620006e06200056d565b5b620006ef8482850162000535565b60a08301525060c082015167ffffffffffffffff8111156200071657620007156200056d565b5b620007248482850162000535565b60c08301525060e06200073a8482850162000596565b60e083015250610100620007518482850162000596565b6101008301525092915050565b600067ffffffffffffffff8211156200077c576200077b620003fa565b5b602082029050919050565b600080fd5b600060408284031215620007a557620007a462000568565b5b620007b160406200045f565b9050600082015167ffffffffffffffff811115620007d457620007d36200056d565b5b620007e28482850162000535565b600083015250602082015167ffffffffffffffff8111156200080957620008086200056d565b5b620008178482850162000535565b60208301525092915050565b60006200083a62000834846200075e565b6200045f565b9050806020840283018581111562000857576200085662000787565b5b835b81811015620008a557805167ffffffffffffffff81111562000880576200087f620003df565b5b8086016200088f89826200078c565b8552602085019450505060208101905062000859565b5050509392505050565b600082601f830112620008c757620008c6620003df565b5b6064620008d684828562000823565b91505092915050565b600060408284031215620008f857620008f762000568565b5b6200090460406200045f565b9050600082015167ffffffffffffffff8111156200092757620009266200056d565b5b6200093584828501620008af565b60008301525060206200094b8482850162000596565b60208301525092915050565b600067ffffffffffffffff821115620009755762000974620003fa565b5b602082029050602081019050919050565b60006200099d620009978462000957565b6200045f565b90508083825260208201905060208402830185811115620009c357620009c262000787565b5b835b8181101562000a1157805167ffffffffffffffff811115620009ec57620009eb620003df565b5b808601620009fb898262000535565b85526020850194505050602081019050620009c5565b5050509392505050565b600082601f83011262000a335762000a32620003df565b5b815162000a4584826020860162000986565b91505092915050565b6000806000806080858703121562000a6b5762000a6a620003d5565b5b600085015167ffffffffffffffff81111562000a8c5762000a8b620003da565b5b62000a9a8782880162000535565b945050602085015167ffffffffffffffff81111562000abe5762000abd620003da565b5b62000acc87828801620005ad565b935050604085015167ffffffffffffffff81111562000af05762000aef620003da565b5b62000afe87828801620008df565b925050606085015167ffffffffffffffff81111562000b225762000b21620003da565b5b62000b308782880162000a1b565b91505092959194509250565b7f4e487b7100000000000000000000000000000000000000000000000000000000600052603260045260246000fd5b7f4e487b7100000000000000000000000000000000000000000000000000000000600052601160045260246000fd5b600062000ba78262000572565b91507fffffffffffffffffffffffffffffffffffffffffffffffffffffffffffffffff82141562000bdd5762000bdc62000b6b565b5b600182019050919050565b7f4e487b7100000000000000000000000000000000000000000000000000000000600052602260045260246000fd5b6000600282049050600182168062000c3057607f821691505b6020821081141562000c475762000c4662000be8565b5b50919050565b6111a58062000c5d6000396000f3fe608060405234801561001057600080fd5b50600436106100625760003560e01c806313d743bc146100675780633bc5de30146100855780634892e8e8146100a35780636d8012b7146100c157806394094420146100dd578063dd6133b5146100f9575b600080fd5b61006f610117565b60405161007c9190610c3d565b60405180910390f35b61008d6102ab565b60405161009a9190610d47565b60405180910390f35b6100ab610650565b6040516100b89190610e2b565b60405180910390f35b6100db60048036038101906100d6919061107c565b610729565b005b6100f760048036038101906100f291906110c5565b610743565b005b610101610760565b60405161010e9190610e2b565b60405180910390f35b61011f610839565b600a60405180604001604052908160008201606480602002604051908101604052809291906000905b82821015610294578382600202016040518060400160405290816000820180546101719061113d565b80601f016020809104026020016040519081016040528092919081815260200182805461019d9061113d565b80156101ea5780601f106101bf576101008083540402835291602001916101ea565b820191906000526020600020905b8154815290600101906020018083116101cd57829003601f168201915b505050505081526020016001820180546102039061113d565b80601f016020809104026020016040519081016040528092919081815260200182805461022f9061113d565b801561027c5780601f106102515761010080835404028352916020019161027c565b820191906000526020600020905b81548152906001019060200180831161025f57829003601f168201915b50505050508152505081526020019060010190610148565b50505050815260200160c882015481525050905090565b6102b3610859565b6001604051806101200160405290816000820180546102d19061113d565b80601f01602080910402602001604051908101604052809291908181526020018280546102fd9061113d565b801561034a5780601f1061031f5761010080835404028352916020019161034a565b820191906000526020600020905b81548152906001019060200180831161032d57829003601f168201915b505050505081526020016001820180546103639061113d565b80601f016020809104026020016040519081016040528092919081815260200182805461038f9061113d565b80156103dc5780601f106103b1576101008083540402835291602001916103dc565b820191906000526020600020905b8154815290600101906020018083116103bf57829003601f168201915b505050505081526020016002820180546103f59061113d565b80601f01602080910402602001604051908101604052809291908181526020018280546104219061113d565b801561046e5780601f106104435761010080835404028352916020019161046e565b820191906000526020600020905b81548152906001019060200180831161045157829003601f168201915b505050505081526020016003820180546104879061113d565b80601f01602080910402602001604051908101604052809291908181526020018280546104b39061113d565b80156105005780601f106104d557610100808354040283529160200191610500565b820191906000526020600020905b8154815290600101906020018083116104e357829003601f168201915b50505050508152602001600482015481526020016005820180546105239061113d565b80601f016020809104026020016040519081016040528092919081815260200182805461054f9061113d565b801561059c5780601f106105715761010080835404028352916020019161059c565b820191906000526020600020905b81548152906001019060200180831161057f57829003601f168201915b505050505081526020016006820180546105b59061113d565b80601f01602080910402602001604051908101604052809291908181526020018280546105e19061113d565b801561062e5780601f106106035761010080835404028352916020019161062e565b820191906000526020600020905b81548152906001019060200180831161061157829003601f168201915b5050505050815260200160078201548152602001600882015481525050905090565b606060d4805480602002602001604051908101604052809291908181526020016000905b828210156107205783829060005260206000200180546106939061113d565b80601f01602080910402602001604051908101604052809291908181526020018280546106bf9061113d565b801561070c5780601f106106e15761010080835404028352916020019161070c565b820191906000526020600020905b8154815290600101906020018083116106ef57829003601f168201915b505050505081526020019060010190610674565b50505050905090565b8060d4908051906020019061073f9291906108a5565b5050565b806001600601908051906020019061075c929190610905565b5050565b606060d3805480602002602001604051908101604052809291908181526020016000905b828210156108305783829060005260206000200180546107a39061113d565b80601f01602080910402602001604051908101604052809291908181526020018280546107cf9061113d565b801561081c5780601f106107f15761010080835404028352916020019161081c565b820191906000526020600020905b8154815290600101906020018083116107ff57829003601f168201915b505050505081526020019060010190610784565b50505050905090565b604051806040016040528061084c61098b565b8152602001600081525090565b6040518061012001604052806060815260200160608152602001606081526020016060815260200160008152602001606081526020016060815260200160008152602001600081525090565b8280548282559060005260206000209081019282156108f4579160200282015b828111156108f35782518290805190602001906108e3929190610905565b50916020019190600101906108c5565b5b50905061090191906109b9565b5090565b8280546109119061113d565b90600052602060002090601f016020900481019282610933576000855561097a565b82601f1061094c57805160ff191683800117855561097a565b8280016001018555821561097a579182015b8281111561097957825182559160200191906001019061095e565b5b50905061098791906109dd565b5090565b60405180610c8001604052806064905b6109a36109fa565b81526020019060019003908161099b5790505090565b5b808211156109d957600081816109d09190610a14565b506001016109ba565b5090565b5b808211156109f65760008160009055506001016109de565b5090565b604051806040016040528060608152602001606081525090565b508054610a209061113d565b6000825580601f10610a325750610a51565b601f016020900490600052602060002090810190610a5091906109dd565b5b50565b600060649050919050565b600081905092915050565b6000819050919050565b600081519050919050565b600082825260208201905092915050565b60005b83811015610aae578082015181840152602081019050610a93565b83811115610abd576000848401525b50505050565b6000601f19601f8301169050919050565b6000610adf82610a74565b610ae98185610a7f565b9350610af9818560208601610a90565b610b0281610ac3565b840191505092915050565b60006040830160008301518482036000860152610b2a8282610ad4565b91505060208301518482036020860152610b448282610ad4565b9150508091505092915050565b6000610b5d8383610b0d565b905092915050565b6000602082019050919050565b6000610b7d82610a54565b610b878185610a5f565b935083602082028501610b9985610a6a565b8060005b85811015610bd55784840389528151610bb68582610b51565b9450610bc183610b65565b925060208a01995050600181019050610b9d565b50829750879550505050505092915050565b6000819050919050565b610bfa81610be7565b82525050565b60006040830160008301518482036000860152610c1d8282610b72565b9150506020830151610c326020860182610bf1565b508091505092915050565b60006020820190508181036000830152610c578184610c00565b905092915050565b6000610120830160008301518482036000860152610c7d8282610ad4565b91505060208301518482036020860152610c978282610ad4565b91505060408301518482036040860152610cb18282610ad4565b91505060608301518482036060860152610ccb8282610ad4565b9150506080830151610ce06080860182610bf1565b5060a083015184820360a0860152610cf88282610ad4565b91505060c083015184820360c0860152610d128282610ad4565b91505060e0830151610d2760e0860182610bf1565b50610100830151610d3c610100860182610bf1565b508091505092915050565b60006020820190508181036000830152610d618184610c5f565b905092915050565b600081519050919050565b600082825260208201905092915050565b6000819050602082019050919050565b6000610da18383610ad4565b905092915050565b6000602082019050919050565b6000610dc182610d69565b610dcb8185610d74565b935083602082028501610ddd85610d85565b8060005b85811015610e195784840389528151610dfa8582610d95565b9450610e0583610da9565b925060208a01995050600181019050610de1565b50829750879550505050505092915050565b60006020820190508181036000830152610e458184610db6565b905092915050565b6000604051905090565b600080fd5b600080fd5b600080fd5b7f4e487b7100000000000000000000000000000000000000000000000000000000600052604160045260246000fd5b610e9e82610ac3565b810181811067ffffffffffffffff82111715610ebd57610ebc610e66565b5b80604052505050565b6000610ed0610e4d565b9050610edc8282610e95565b919050565b600067ffffffffffffffff821115610efc57610efb610e66565b5b602082029050602081019050919050565b600080fd5b600080fd5b600067ffffffffffffffff821115610f3257610f31610e66565b5b610f3b82610ac3565b9050602081019050919050565b82818337600083830152505050565b6000610f6a610f6584610f17565b610ec6565b905082815260208101848484011115610f8657610f85610f12565b5b610f91848285610f48565b509392505050565b600082601f830112610fae57610fad610e61565b5b8135610fbe848260208601610f57565b91505092915050565b6000610fda610fd584610ee1565b610ec6565b90508083825260208201905060208402830185811115610ffd57610ffc610f0d565b5b835b8181101561104457803567ffffffffffffffff81111561102257611021610e61565b5b80860161102f8982610f99565b85526020850194505050602081019050610fff565b5050509392505050565b600082601f83011261106357611062610e61565b5b8135611073848260208601610fc7565b91505092915050565b60006020828403121561109257611091610e57565b5b600082013567ffffffffffffffff8111156110b0576110af610e5c565b5b6110bc8482850161104e565b91505092915050565b6000602082840312156110db576110da610e57565b5b600082013567ffffffffffffffff8111156110f9576110f8610e5c565b5b61110584828501610f99565b91505092915050565b7f4e487b7100000000000000000000000000000000000000000000000000000000600052602260045260246000fd5b6000600282049050600182168061115557607f821691505b602082108114156111695761116861110e565b5b5091905056fea2646970667358221220975e15a9dfa24a0357286d4f4c6b82299a8e9b121fa1859f233d00e0d6577f7264736f6c634300080b0033a2646970667358221220edfb350bc2523ddbb553289f1c2582be7b9c93438d49b354628ebf482ec24cd664736f6c634300080b0033",
  "immutableReferences": {},
  "source": "// SPDX-License-Identifier: MIT\npragma solidity >=0.6.0;\npragma experimental ABIEncoderV2;\n\nimport \"./DataStruct.sol\";\nimport \"./EsToken.sol\";\n\n\ncontract CadastralContract{\n    mapping(string => EsToken) nowEstateList;\n    uint esCount;\n    uint totalCount;\n    uint flag;\n    string [] temp;\n    uint tes;\n\n    constructor() {\n        esCount = 0;\n        totalCount = 0;\n        flag = 0;\n    }\n\n    event eventSplit(\n        string [] parentId,\n        string [] childId,\n        string changeDate,\n        uint operationId,\n        uint operationType\n    );\n\n    event eventCreate(\n        EventCreateParam param,\n        uint operationId,\n        uint operationType\n    );\n\n    event eventMerge(\n        string childId,\n        string [] parentId,\n        string changeDate,\n        uint operationId,\n        uint operationType\n    );\n\n    event eventDelete(\n        string Id,\n        string begDate,\n        string endDate,\n        string data,\n        uint operationId,\n        uint operationType\n    );\n\n    function create(\n        FunctionCreateParam memory param,\n        uint operationId,\n        uint operationType\n    ) \n        public  \n        payable\n    {\n        EsToken estate = new EsToken(param.id, param.data, param.poly, param.pa);\n        nowEstateList[param.id] = estate;\n        esCount += 1;\n        totalCount += 1;\n        if(flag == 0){\n            emit eventCreate(\n                EventCreateParam(\n                    param.id,\n                    param.data.begDate,\n                    param.data.endDate,\n                    param.data.county,\n                    param.data.townShip,\n                    param.data.reason,\n                    param.data.changeTag,\n                    param.poly.pList,\n                    param.poly.numOfPoint,\n                    param.functional,\n                    param.eventdata,\n                    param.other\n                ),\n                operationId,\n                operationType\n            );\n        }\n    }\n\n\n    function deleteEst(\n        string memory id,\n        string memory begDate,\n        string memory endDate,\n        string memory data,\n        uint operationId,\n        uint operationType\n    ) \n        public\n        payable\n    {\n        esCount -=1;\n        emit eventDelete(\n            id, \n            begDate, \n            endDate,\n            data, \n            operationId,\n            operationType\n        );\n    }\n\n\n    function split(\n        string [] memory sId,\n        string [] memory newIdList,\n        Data [] memory newDataList,\n        Polygon [] memory polygonList,\n        uint numOfnewEstate,\n        uint functional,\n        string memory eventdata,\n        uint operationId,\n        uint operationType\n    )\n        public\n        payable\n    {\n        EsToken estate = nowEstateList[sId[0]];\n        estate.setEndDate(newDataList[0].begDate);\n        estate.setChildren(newIdList);\n\n        for(uint i = 0;i < numOfnewEstate;i++){\n            create(\n                FunctionCreateParam(\n                    newIdList[i], \n                    newDataList[i], \n                    polygonList[i], \n                    temp, \n                    functional, \n                    eventdata, \n                    sId\n                ),\n                operationId,\n                operationType\n            );\n        }\n\n        emit eventSplit(\n            sId,\n            newIdList,\n            newDataList[0].begDate,\n            operationId,\n            operationType    \n        );\n    }\n\n    function merge(\n        string [] memory mIdList,\n        string memory newId,\n        Data memory data,\n        Polygon memory polygon,\n        uint numOfMergeEstate,\n        uint functional,\n        string memory eventdata,\n        uint operationId,\n        uint operationType\n    ) \n        public\n        payable\n    {\n        EsToken estate;\n        tes = numOfMergeEstate;\n        for(uint i = 0;i < numOfMergeEstate;i++){\n            estate = nowEstateList[mIdList[i]];\n            estate.setEndDate(data.begDate);\n            estate.setChildren(temp);\n        }\n        create(\n            FunctionCreateParam(\n                newId, \n                data, \n                polygon, \n                mIdList, \n                functional, \n                eventdata, \n                mIdList\n            ),\n            operationId,\n            operationType\n        );\n        emit eventMerge(\n            newId,\n            mIdList,\n            data.begDate,\n            operationId,\n            operationType    \n        );\n    }\n\n    // function getEstateAddress(string memory id) public view returns(address){\n    //     string memory tmp = \"\";\n    //     if(keccak256(abi.encodePacked(changeIdList[id])) != keccak256(abi.encodePacked(tmp))){\n    //         return address(nowEstateList[changeIdList[id]]);\n    //     }\n    //     else{\n    //         return address(nowEstateList[id]);\n    //     }\n    // }\n    function getEstateData(string memory Id)\n        public \n        view \n        returns(\n            Data memory,\n            Polygon memory,\n            string [] memory,\n            string [] memory\n        )\n    {\n        EsToken estate = nowEstateList[Id];\n        Data memory data = estate.getData();\n        Polygon memory poly = estate.getPolygon();\n        string [] memory pa = estate.getParents();\n        string [] memory chi = estate.getChildren();\n        return (\n            data,\n            poly,\n            pa,\n            chi\n        );\n    }    \n}",
  "sourcePath": "/home/mozixreality/Documents/Collage/Project/estate_blockchain/contracts/CadastralContract.sol",
  "compiler": {
    "name": "solc",
    "version": "0.8.11+commit.d7f03943.Emscripten.clang"
  },
  "schemaVersion": "3.4.5",
  "updatedAt": "2022-06-24T01:10:17.538Z",
  "networkType": "ethereum",
  "devdoc": {
    "kind": "dev",
    "methods": {},
    "version": 1
  },
  "userdoc": {
    "kind": "user",
    "methods": {},
    "version": 1
  }
}