{
  "contractName": "CadastralContract",
  "abi": [
    {
      "inputs": [],
      "stateMutability": "nonpayable",
      "type": "constructor"
    },
    {
      "anonymous": false,
      "inputs": [
        {
          "components": [
            {
              "internalType": "string",
              "name": "Id",
              "type": "string"
            },
            {
              "internalType": "string",
              "name": "createDate",
              "type": "string"
            },
            {
              "internalType": "string",
              "name": "endDate",
              "type": "string"
            },
            {
              "internalType": "string",
              "name": "county",
              "type": "string"
            },
            {
              "internalType": "uint256",
              "name": "townShip",
              "type": "uint256"
            },
            {
              "internalType": "uint256",
              "name": "reason",
              "type": "uint256"
            },
            {
              "internalType": "uint256",
              "name": "changedTag",
              "type": "uint256"
            },
            {
              "components": [
                {
                  "internalType": "string",
                  "name": "x",
                  "type": "string"
                },
                {
                  "internalType": "string",
                  "name": "y",
                  "type": "string"
                }
              ],
              "internalType": "struct Point[100]",
              "name": "pList",
              "type": "tuple[100]"
            },
            {
              "internalType": "uint256",
              "name": "numOfPoint",
              "type": "uint256"
            },
            {
              "internalType": "uint256",
              "name": "functional",
              "type": "uint256"
            },
            {
              "internalType": "string[]",
              "name": "other",
              "type": "string[]"
            }
          ],
          "indexed": false,
          "internalType": "struct EventCreateParam",
          "name": "param",
          "type": "tuple"
        },
        {
          "indexed": false,
          "internalType": "uint256",
          "name": "operationId",
          "type": "uint256"
        },
        {
          "indexed": false,
          "internalType": "uint256",
          "name": "operationType",
          "type": "uint256"
        }
      ],
      "name": "eventCreate",
      "type": "event"
    },
    {
      "anonymous": false,
      "inputs": [
        {
          "indexed": false,
          "internalType": "string",
          "name": "Id",
          "type": "string"
        },
        {
          "indexed": false,
          "internalType": "string",
          "name": "begDate",
          "type": "string"
        },
        {
          "indexed": false,
          "internalType": "string",
          "name": "endDate",
          "type": "string"
        },
        {
          "indexed": false,
          "internalType": "uint256",
          "name": "operationId",
          "type": "uint256"
        },
        {
          "indexed": false,
          "internalType": "uint256",
          "name": "operationType",
          "type": "uint256"
        }
      ],
      "name": "eventDelete",
      "type": "event"
    },
    {
      "anonymous": false,
      "inputs": [
        {
          "indexed": false,
          "internalType": "string",
          "name": "childId",
          "type": "string"
        },
        {
          "indexed": false,
          "internalType": "string[]",
          "name": "parentId",
          "type": "string[]"
        },
        {
          "indexed": false,
          "internalType": "string",
          "name": "changeDate",
          "type": "string"
        },
        {
          "indexed": false,
          "internalType": "uint256",
          "name": "operationId",
          "type": "uint256"
        },
        {
          "indexed": false,
          "internalType": "uint256",
          "name": "operationType",
          "type": "uint256"
        }
      ],
      "name": "eventMerge",
      "type": "event"
    },
    {
      "anonymous": false,
      "inputs": [
        {
          "indexed": false,
          "internalType": "string[]",
          "name": "parentId",
          "type": "string[]"
        },
        {
          "indexed": false,
          "internalType": "string[]",
          "name": "childId",
          "type": "string[]"
        },
        {
          "indexed": false,
          "internalType": "string",
          "name": "changeDate",
          "type": "string"
        },
        {
          "indexed": false,
          "internalType": "uint256",
          "name": "operationId",
          "type": "uint256"
        },
        {
          "indexed": false,
          "internalType": "uint256",
          "name": "operationType",
          "type": "uint256"
        }
      ],
      "name": "eventSplit",
      "type": "event"
    },
    {
      "inputs": [
        {
          "components": [
            {
              "internalType": "string",
              "name": "id",
              "type": "string"
            },
            {
              "components": [
                {
                  "internalType": "string",
                  "name": "pcno",
                  "type": "string"
                },
                {
                  "internalType": "string",
                  "name": "pmno",
                  "type": "string"
                },
                {
                  "internalType": "string",
                  "name": "scno",
                  "type": "string"
                },
                {
                  "internalType": "string",
                  "name": "county",
                  "type": "string"
                },
                {
                  "internalType": "uint256",
                  "name": "townShip",
                  "type": "uint256"
                },
                {
                  "internalType": "string",
                  "name": "begDate",
                  "type": "string"
                },
                {
                  "internalType": "string",
                  "name": "endDate",
                  "type": "string"
                },
                {
                  "internalType": "uint256",
                  "name": "reason",
                  "type": "uint256"
                },
                {
                  "internalType": "uint256",
                  "name": "changeTag",
                  "type": "uint256"
                }
              ],
              "internalType": "struct Data",
              "name": "data",
              "type": "tuple"
            },
            {
              "components": [
                {
                  "components": [
                    {
                      "internalType": "string",
                      "name": "x",
                      "type": "string"
                    },
                    {
                      "internalType": "string",
                      "name": "y",
                      "type": "string"
                    }
                  ],
                  "internalType": "struct Point[100]",
                  "name": "pList",
                  "type": "tuple[100]"
                },
                {
                  "internalType": "uint256",
                  "name": "numOfPoint",
                  "type": "uint256"
                }
              ],
              "internalType": "struct Polygon",
              "name": "poly",
              "type": "tuple"
            },
            {
              "internalType": "string[]",
              "name": "pa",
              "type": "string[]"
            },
            {
              "internalType": "uint256",
              "name": "functional",
              "type": "uint256"
            },
            {
              "internalType": "string[]",
              "name": "other",
              "type": "string[]"
            }
          ],
          "internalType": "struct FunctionCreateParam",
          "name": "param",
          "type": "tuple"
        },
        {
          "internalType": "uint256",
          "name": "operationId",
          "type": "uint256"
        },
        {
          "internalType": "uint256",
          "name": "operationType",
          "type": "uint256"
        }
      ],
      "name": "create",
      "outputs": [],
      "stateMutability": "payable",
      "type": "function",
      "payable": true
    },
    {
      "inputs": [
        {
          "internalType": "string",
          "name": "id",
          "type": "string"
        },
        {
          "internalType": "string",
          "name": "begDate",
          "type": "string"
        },
        {
          "internalType": "string",
          "name": "endDate",
          "type": "string"
        },
        {
          "internalType": "uint256",
          "name": "operationId",
          "type": "uint256"
        },
        {
          "internalType": "uint256",
          "name": "operationType",
          "type": "uint256"
        }
      ],
      "name": "deleteEst",
      "outputs": [],
      "stateMutability": "payable",
      "type": "function",
      "payable": true
    },
    {
      "inputs": [
        {
          "internalType": "string[]",
          "name": "sId",
          "type": "string[]"
        },
        {
          "internalType": "string[]",
          "name": "newIdList",
          "type": "string[]"
        },
        {
          "components": [
            {
              "internalType": "string",
              "name": "pcno",
              "type": "string"
            },
            {
              "internalType": "string",
              "name": "pmno",
              "type": "string"
            },
            {
              "internalType": "string",
              "name": "scno",
              "type": "string"
            },
            {
              "internalType": "string",
              "name": "county",
              "type": "string"
            },
            {
              "internalType": "uint256",
              "name": "townShip",
              "type": "uint256"
            },
            {
              "internalType": "string",
              "name": "begDate",
              "type": "string"
            },
            {
              "internalType": "string",
              "name": "endDate",
              "type": "string"
            },
            {
              "internalType": "uint256",
              "name": "reason",
              "type": "uint256"
            },
            {
              "internalType": "uint256",
              "name": "changeTag",
              "type": "uint256"
            }
          ],
          "internalType": "struct Data[]",
          "name": "newDataList",
          "type": "tuple[]"
        },
        {
          "components": [
            {
              "components": [
                {
                  "internalType": "string",
                  "name": "x",
                  "type": "string"
                },
                {
                  "internalType": "string",
                  "name": "y",
                  "type": "string"
                }
              ],
              "internalType": "struct Point[100]",
              "name": "pList",
              "type": "tuple[100]"
            },
            {
              "internalType": "uint256",
              "name": "numOfPoint",
              "type": "uint256"
            }
          ],
          "internalType": "struct Polygon[]",
          "name": "polygonList",
          "type": "tuple[]"
        },
        {
          "internalType": "uint256",
          "name": "numOfnewEstate",
          "type": "uint256"
        },
        {
          "internalType": "uint256",
          "name": "functional",
          "type": "uint256"
        },
        {
          "internalType": "uint256",
          "name": "operationId",
          "type": "uint256"
        },
        {
          "internalType": "uint256",
          "name": "operationType",
          "type": "uint256"
        }
      ],
      "name": "split",
      "outputs": [],
      "stateMutability": "payable",
      "type": "function",
      "payable": true
    },
    {
      "inputs": [
        {
          "internalType": "string[]",
          "name": "mIdList",
          "type": "string[]"
        },
        {
          "internalType": "string",
          "name": "newId",
          "type": "string"
        },
        {
          "components": [
            {
              "internalType": "string",
              "name": "pcno",
              "type": "string"
            },
            {
              "internalType": "string",
              "name": "pmno",
              "type": "string"
            },
            {
              "internalType": "string",
              "name": "scno",
              "type": "string"
            },
            {
              "internalType": "string",
              "name": "county",
              "type": "string"
            },
            {
              "internalType": "uint256",
              "name": "townShip",
              "type": "uint256"
            },
            {
              "internalType": "string",
              "name": "begDate",
              "type": "string"
            },
            {
              "internalType": "string",
              "name": "endDate",
              "type": "string"
            },
            {
              "internalType": "uint256",
              "name": "reason",
              "type": "uint256"
            },
            {
              "internalType": "uint256",
              "name": "changeTag",
              "type": "uint256"
            }
          ],
          "internalType": "struct Data",
          "name": "data",
          "type": "tuple"
        },
        {
          "components": [
            {
              "components": [
                {
                  "internalType": "string",
                  "name": "x",
                  "type": "string"
                },
                {
                  "internalType": "string",
                  "name": "y",
                  "type": "string"
                }
              ],
              "internalType": "struct Point[100]",
              "name": "pList",
              "type": "tuple[100]"
            },
            {
              "internalType": "uint256",
              "name": "numOfPoint",
              "type": "uint256"
            }
          ],
          "internalType": "struct Polygon",
          "name": "polygon",
          "type": "tuple"
        },
        {
          "internalType": "uint256",
          "name": "numOfMergeEstate",
          "type": "uint256"
        },
        {
          "internalType": "uint256",
          "name": "functional",
          "type": "uint256"
        },
        {
          "internalType": "uint256",
          "name": "operationId",
          "type": "uint256"
        },
        {
          "internalType": "uint256",
          "name": "operationType",
          "type": "uint256"
        }
      ],
      "name": "merge",
      "outputs": [],
      "stateMutability": "payable",
      "type": "function",
      "payable": true
    },
    {
      "inputs": [
        {
          "internalType": "string",
          "name": "Id",
          "type": "string"
        }
      ],
      "name": "getEstateData",
      "outputs": [
        {
          "components": [
            {
              "internalType": "string",
              "name": "pcno",
              "type": "string"
            },
            {
              "internalType": "string",
              "name": "pmno",
              "type": "string"
            },
            {
              "internalType": "string",
              "name": "scno",
              "type": "string"
            },
            {
              "internalType": "string",
              "name": "county",
              "type": "string"
            },
            {
              "internalType": "uint256",
              "name": "townShip",
              "type": "uint256"
            },
            {
              "internalType": "string",
              "name": "begDate",
              "type": "string"
            },
            {
              "internalType": "string",
              "name": "endDate",
              "type": "string"
            },
            {
              "internalType": "uint256",
              "name": "reason",
              "type": "uint256"
            },
            {
              "internalType": "uint256",
              "name": "changeTag",
              "type": "uint256"
            }
          ],
          "internalType": "struct Data",
          "name": "",
          "type": "tuple"
        },
        {
          "components": [
            {
              "components": [
                {
                  "internalType": "string",
                  "name": "x",
                  "type": "string"
                },
                {
                  "internalType": "string",
                  "name": "y",
                  "type": "string"
                }
              ],
              "internalType": "struct Point[100]",
              "name": "pList",
              "type": "tuple[100]"
            },
            {
              "internalType": "uint256",
              "name": "numOfPoint",
              "type": "uint256"
            }
          ],
          "internalType": "struct Polygon",
          "name": "",
          "type": "tuple"
        },
        {
          "internalType": "string[]",
          "name": "",
          "type": "string[]"
        },
        {
          "internalType": "string[]",
          "name": "",
          "type": "string[]"
        }
      ],
      "stateMutability": "view",
      "type": "function",
      "constant": true
    }
  ],
  "bytecode": "0x608060405234801561001057600080fd5b506000600181905550600060028190555060006003819055506149bd806100386000396000f3fe608060405260043610620000505760003560e01c806305e46bb514620000555780637093ff5b14620000755780637e99881514620000bc578063993c67e514620000dc578063bbb8ee2014620000fc575b600080fd5b6200007360048036038101906200006d91906200122c565b6200011c565b005b3480156200008257600080fd5b50620000a160048036038101906200009b919062001371565b62000314565b604051620000b394939291906200177d565b60405180910390f35b620000da6004803603810190620000d4919062001932565b62000573565b005b620000fa6004803603810190620000f4919062001b9b565b62000748565b005b6200011a600480360381019062000114919062001ce0565b62000aa6565b005b60008460058190555060005b858110156200028a5760008a828151811062000149576200014862001dc5565b5b602002602001015160405162000160919062001e36565b908152602001604051809103902060009054906101000a900473ffffffffffffffffffffffffffffffffffffffff1691508173ffffffffffffffffffffffffffffffffffffffff1663940944208960a001516040518263ffffffff1660e01b8152600401620001d0919062001ea1565b600060405180830381600087803b158015620001eb57600080fd5b505af115801562000200573d6000803e3d6000fd5b505050508173ffffffffffffffffffffffffffffffffffffffff16636d8012b760046040518263ffffffff1660e01b81526004016200024091906200208e565b600060405180830381600087803b1580156200025b57600080fd5b505af115801562000270573d6000803e3d6000fd5b5050505080806200028190620020e1565b91505062000128565b50620002c46040518060c001604052808a81526020018981526020018881526020018b81526020018681526020018b815250848462000573565b7f980fd1d4d213638a00f4646c06878b218ed8823a7937ae33786e997da4a99fd4888a8960a0015186866040516200030195949392919062002140565b60405180910390a1505050505050505050565b6200031e62000b09565b6200032862000b55565b606080600080866040516200033e919062001e36565b908152602001604051809103902060009054906101000a900473ffffffffffffffffffffffffffffffffffffffff16905060008173ffffffffffffffffffffffffffffffffffffffff16633bc5de306040518163ffffffff1660e01b8152600401600060405180830381865afa158015620003bd573d6000803e3d6000fd5b505050506040513d6000823e3d601f19601f82011682018060405250810190620003e89190620023f8565b905060008273ffffffffffffffffffffffffffffffffffffffff166313d743bc6040518163ffffffff1660e01b8152600401600060405180830381865afa15801562000438573d6000803e3d6000fd5b505050506040513d6000823e3d601f19601f8201168201806040525081019062000463919062002614565b905060008373ffffffffffffffffffffffffffffffffffffffff1663dd6133b56040518163ffffffff1660e01b8152600401600060405180830381865afa158015620004b3573d6000803e3d6000fd5b505050506040513d6000823e3d601f19601f82011682018060405250810190620004de91906200272d565b905060008473ffffffffffffffffffffffffffffffffffffffff16634892e8e86040518163ffffffff1660e01b8152600401600060405180830381865afa1580156200052e573d6000803e3d6000fd5b505050506040513d6000823e3d601f19601f820116820180604052508101906200055991906200272d565b905083838383985098509850985050505050509193509193565b60008360000151846020015185604001518660600151604051620005979062000b77565b620005a694939291906200277e565b604051809103906000f080158015620005c3573d6000803e3d6000fd5b5090508060008560000151604051620005dd919062001e36565b908152602001604051809103902060006101000a81548173ffffffffffffffffffffffffffffffffffffffff021916908373ffffffffffffffffffffffffffffffffffffffff16021790555060018060008282546200063d9190620027e7565b92505081905550600160026000828254620006599190620027e7565b925050819055506000600354141562000742577fba46fef27ab351acd22db51ad7f5522259703f02e95084eb6d0528f9b98c379c60405180610160016040528086600001518152602001866020015160a001518152602001866020015160c00151815260200186602001516060015181526020018660200151608001518152602001866020015160e00151815260200186602001516101000151815260200186604001516000015181526020018660400151602001518152602001866080015181526020018660a0015181525084846040516200073993929190620029fe565b60405180910390a15b50505050565b6000808960008151811062000762576200076162001dc5565b5b602002602001015160405162000779919062001e36565b908152602001604051809103902060009054906101000a900473ffffffffffffffffffffffffffffffffffffffff1690508073ffffffffffffffffffffffffffffffffffffffff16639409442088600081518110620007dd57620007dc62001dc5565b5b602002602001015160a001516040518263ffffffff1660e01b815260040162000807919062001ea1565b600060405180830381600087803b1580156200082257600080fd5b505af115801562000837573d6000803e3d6000fd5b505050508073ffffffffffffffffffffffffffffffffffffffff16636d8012b7896040518263ffffffff1660e01b815260040162000876919062002a42565b600060405180830381600087803b1580156200089157600080fd5b505af1158015620008a6573d6000803e3d6000fd5b5050505060005b8581101562000a375762000a216040518060c001604052808b8481518110620008db57620008da62001dc5565b5b602002602001015181526020018a8481518110620008fe57620008fd62001dc5565b5b6020026020010151815260200189848151811062000921576200092062001dc5565b5b602002602001015181526020016004805480602002602001604051908101604052809291908181526020016000905b8282101562000a06578382906000526020600020018054620009729062001f14565b80601f0160208091040260200160405190810160405280929190818152602001828054620009a09062001f14565b8015620009f15780601f10620009c557610100808354040283529160200191620009f1565b820191906000526020600020905b815481529060010190602001808311620009d357829003601f168201915b50505050508152602001906001019062000950565b5050505081526020018781526020018c815250858562000573565b808062000a2e90620020e1565b915050620008ad565b507f468800dce1c418b0b5ea7ba5dc1e87b367687a7a6bda5e26d8e8250505f05ecb89898960008151811062000a725762000a7162001dc5565b5b602002602001015160a00151868660405162000a9395949392919062002a66565b60405180910390a1505050505050505050565b600180600082825462000aba919062002ad8565b925050819055507fbf83e159938c740937d73860b9c4e7079b6bd2d768d829775315b451db2926a2858585858560405162000afa95949392919062002b13565b60405180910390a15050505050565b6040518061012001604052806060815260200160608152602001606081526020016060815260200160008152602001606081526020016060815260200160008152602001600081525090565b604051806040016040528062000b6a62000b85565b8152602001600081525090565b611e028062002b8683390190565b60405180610c8001604052806064905b62000b9f62000bb6565b81526020019060019003908162000b955790505090565b604051806040016040528060608152602001606081525090565b6000604051905090565b600080fd5b600080fd5b600080fd5b6000601f19601f8301169050919050565b7f4e487b7100000000000000000000000000000000000000000000000000000000600052604160045260246000fd5b62000c348262000be9565b810181811067ffffffffffffffff8211171562000c565762000c5562000bfa565b5b80604052505050565b600062000c6b62000bd0565b905062000c79828262000c29565b919050565b600067ffffffffffffffff82111562000c9c5762000c9b62000bfa565b5b602082029050602081019050919050565b600080fd5b600080fd5b600067ffffffffffffffff82111562000cd55762000cd462000bfa565b5b62000ce08262000be9565b9050602081019050919050565b82818337600083830152505050565b600062000d1362000d0d8462000cb7565b62000c5f565b90508281526020810184848401111562000d325762000d3162000cb2565b5b62000d3f84828562000ced565b509392505050565b600082601f83011262000d5f5762000d5e62000be4565b5b813562000d7184826020860162000cfc565b91505092915050565b600062000d9162000d8b8462000c7e565b62000c5f565b9050808382526020820190506020840283018581111562000db75762000db662000cad565b5b835b8181101562000e0557803567ffffffffffffffff81111562000de05762000ddf62000be4565b5b80860162000def898262000d47565b8552602085019450505060208101905062000db9565b5050509392505050565b600082601f83011262000e275762000e2662000be4565b5b813562000e3984826020860162000d7a565b91505092915050565b600080fd5b600080fd5b6000819050919050565b62000e618162000e4c565b811462000e6d57600080fd5b50565b60008135905062000e818162000e56565b92915050565b6000610120828403121562000ea15762000ea062000e42565b5b62000eae61012062000c5f565b9050600082013567ffffffffffffffff81111562000ed15762000ed062000e47565b5b62000edf8482850162000d47565b600083015250602082013567ffffffffffffffff81111562000f065762000f0562000e47565b5b62000f148482850162000d47565b602083015250604082013567ffffffffffffffff81111562000f3b5762000f3a62000e47565b5b62000f498482850162000d47565b604083015250606082013567ffffffffffffffff81111562000f705762000f6f62000e47565b5b62000f7e8482850162000d47565b606083015250608062000f948482850162000e70565b60808301525060a082013567ffffffffffffffff81111562000fbb5762000fba62000e47565b5b62000fc98482850162000d47565b60a08301525060c082013567ffffffffffffffff81111562000ff05762000fef62000e47565b5b62000ffe8482850162000d47565b60c08301525060e0620010148482850162000e70565b60e0830152506101006200102b8482850162000e70565b6101008301525092915050565b600067ffffffffffffffff82111562001056576200105562000bfa565b5b602082029050919050565b6000604082840312156200107a576200107962000e42565b5b62001086604062000c5f565b9050600082013567ffffffffffffffff811115620010a957620010a862000e47565b5b620010b78482850162000d47565b600083015250602082013567ffffffffffffffff811115620010de57620010dd62000e47565b5b620010ec8482850162000d47565b60208301525092915050565b60006200110f620011098462001038565b62000c5f565b905080602084028301858111156200112c576200112b62000cad565b5b835b818110156200117a57803567ffffffffffffffff81111562001155576200115462000be4565b5b80860162001164898262001061565b855260208501945050506020810190506200112e565b5050509392505050565b600082601f8301126200119c576200119b62000be4565b5b6064620011ab848285620010f8565b91505092915050565b600060408284031215620011cd57620011cc62000e42565b5b620011d9604062000c5f565b9050600082013567ffffffffffffffff811115620011fc57620011fb62000e47565b5b6200120a8482850162001184565b6000830152506020620012208482850162000e70565b60208301525092915050565b600080600080600080600080610100898b03121562001250576200124f62000bda565b5b600089013567ffffffffffffffff81111562001271576200127062000bdf565b5b6200127f8b828c0162000e0f565b985050602089013567ffffffffffffffff811115620012a357620012a262000bdf565b5b620012b18b828c0162000d47565b975050604089013567ffffffffffffffff811115620012d557620012d462000bdf565b5b620012e38b828c0162000e87565b965050606089013567ffffffffffffffff81111562001307576200130662000bdf565b5b620013158b828c01620011b4565b9550506080620013288b828c0162000e70565b94505060a06200133b8b828c0162000e70565b93505060c06200134e8b828c0162000e70565b92505060e0620013618b828c0162000e70565b9150509295985092959890939650565b6000602082840312156200138a576200138962000bda565b5b600082013567ffffffffffffffff811115620013ab57620013aa62000bdf565b5b620013b98482850162000d47565b91505092915050565b600081519050919050565b600082825260208201905092915050565b60005b83811015620013fe578082015181840152602081019050620013e1565b838111156200140e576000848401525b50505050565b60006200142182620013c2565b6200142d8185620013cd565b93506200143f818560208601620013de565b6200144a8162000be9565b840191505092915050565b620014608162000e4c565b82525050565b600061012083016000830151848203600086015262001486828262001414565b91505060208301518482036020860152620014a2828262001414565b91505060408301518482036040860152620014be828262001414565b91505060608301518482036060860152620014da828262001414565b9150506080830151620014f1608086018262001455565b5060a083015184820360a08601526200150b828262001414565b91505060c083015184820360c086015262001527828262001414565b91505060e08301516200153e60e086018262001455565b506101008301516200155561010086018262001455565b508091505092915050565b600060649050919050565b600081905092915050565b6000819050919050565b600060408301600083015184820360008601526200159f828262001414565b91505060208301518482036020860152620015bb828262001414565b9150508091505092915050565b6000620015d6838362001580565b905092915050565b6000602082019050919050565b6000620015f88262001560565b6200160481856200156b565b935083602082028501620016188562001576565b8060005b858110156200165a5784840389528151620016388582620015c8565b94506200164583620015de565b925060208a019950506001810190506200161c565b50829750879550505050505092915050565b600060408301600083015184820360008601526200168b8282620015eb565b9150506020830151620016a2602086018262001455565b508091505092915050565b600081519050919050565b600082825260208201905092915050565b6000819050602082019050919050565b6000620016e7838362001414565b905092915050565b6000602082019050919050565b60006200170982620016ad565b620017158185620016b8565b9350836020820285016200172985620016c9565b8060005b858110156200176b5784840389528151620017498582620016d9565b94506200175683620016ef565b925060208a019950506001810190506200172d565b50829750879550505050505092915050565b6000608082019050818103600083015262001799818762001466565b90508181036020830152620017af81866200166c565b90508181036040830152620017c58185620016fc565b90508181036060830152620017db8184620016fc565b905095945050505050565b600060c08284031215620017ff57620017fe62000e42565b5b6200180b60c062000c5f565b9050600082013567ffffffffffffffff8111156200182e576200182d62000e47565b5b6200183c8482850162000d47565b600083015250602082013567ffffffffffffffff81111562001863576200186262000e47565b5b620018718482850162000e87565b602083015250604082013567ffffffffffffffff81111562001898576200189762000e47565b5b620018a684828501620011b4565b604083015250606082013567ffffffffffffffff811115620018cd57620018cc62000e47565b5b620018db8482850162000e0f565b6060830152506080620018f18482850162000e70565b60808301525060a082013567ffffffffffffffff81111562001918576200191762000e47565b5b620019268482850162000e0f565b60a08301525092915050565b6000806000606084860312156200194e576200194d62000bda565b5b600084013567ffffffffffffffff8111156200196f576200196e62000bdf565b5b6200197d86828701620017e6565b9350506020620019908682870162000e70565b9250506040620019a38682870162000e70565b9150509250925092565b600067ffffffffffffffff821115620019cb57620019ca62000bfa565b5b602082029050602081019050919050565b6000620019f3620019ed84620019ad565b62000c5f565b9050808382526020820190506020840283018581111562001a195762001a1862000cad565b5b835b8181101562001a6757803567ffffffffffffffff81111562001a425762001a4162000be4565b5b80860162001a51898262000e87565b8552602085019450505060208101905062001a1b565b5050509392505050565b600082601f83011262001a895762001a8862000be4565b5b813562001a9b848260208601620019dc565b91505092915050565b600067ffffffffffffffff82111562001ac25762001ac162000bfa565b5b602082029050602081019050919050565b600062001aea62001ae48462001aa4565b62000c5f565b9050808382526020820190506020840283018581111562001b105762001b0f62000cad565b5b835b8181101562001b5e57803567ffffffffffffffff81111562001b395762001b3862000be4565b5b80860162001b488982620011b4565b8552602085019450505060208101905062001b12565b5050509392505050565b600082601f83011262001b805762001b7f62000be4565b5b813562001b9284826020860162001ad3565b91505092915050565b600080600080600080600080610100898b03121562001bbf5762001bbe62000bda565b5b600089013567ffffffffffffffff81111562001be05762001bdf62000bdf565b5b62001bee8b828c0162000e0f565b985050602089013567ffffffffffffffff81111562001c125762001c1162000bdf565b5b62001c208b828c0162000e0f565b975050604089013567ffffffffffffffff81111562001c445762001c4362000bdf565b5b62001c528b828c0162001a71565b965050606089013567ffffffffffffffff81111562001c765762001c7562000bdf565b5b62001c848b828c0162001b68565b955050608062001c978b828c0162000e70565b94505060a062001caa8b828c0162000e70565b93505060c062001cbd8b828c0162000e70565b92505060e062001cd08b828c0162000e70565b9150509295985092959890939650565b600080600080600060a0868803121562001cff5762001cfe62000bda565b5b600086013567ffffffffffffffff81111562001d205762001d1f62000bdf565b5b62001d2e8882890162000d47565b955050602086013567ffffffffffffffff81111562001d525762001d5162000bdf565b5b62001d608882890162000d47565b945050604086013567ffffffffffffffff81111562001d845762001d8362000bdf565b5b62001d928882890162000d47565b935050606062001da58882890162000e70565b925050608062001db88882890162000e70565b9150509295509295909350565b7f4e487b7100000000000000000000000000000000000000000000000000000000600052603260045260246000fd5b600081905092915050565b600062001e0c82620013c2565b62001e18818562001df4565b935062001e2a818560208601620013de565b80840191505092915050565b600062001e44828462001dff565b915081905092915050565b600082825260208201905092915050565b600062001e6d82620013c2565b62001e79818562001e4f565b935062001e8b818560208601620013de565b62001e968162000be9565b840191505092915050565b6000602082019050818103600083015262001ebd818462001e60565b905092915050565b600081549050919050565b60008190508160005260206000209050919050565b7f4e487b7100000000000000000000000000000000000000000000000000000000600052602260045260246000fd5b6000600282049050600182168062001f2d57607f821691505b6020821081141562001f445762001f4362001ee5565b5b50919050565b60008190508160005260206000209050919050565b6000815462001f6e8162001f14565b62001f7a8186620013cd565b9450600182166000811462001f98576001811462001fab5762001fe2565b60ff198316865260208601935062001fe2565b62001fb68562001f4a565b60005b8381101562001fda5781548189015260018201915060208101905062001fb9565b808801955050505b50505092915050565b600062001ff9838362001f5f565b905092915050565b6000600182019050919050565b60006200201b8262001ec5565b620020278185620016b8565b9350836020820285016200203b8562001ed0565b8060005b858110156200207c578484038952816200205a858262001feb565b9450620020678362002001565b925060208a019950506001810190506200203f565b50829750879550505050505092915050565b60006020820190508181036000830152620020aa81846200200e565b905092915050565b7f4e487b7100000000000000000000000000000000000000000000000000000000600052601160045260246000fd5b6000620020ee8262000e4c565b91507fffffffffffffffffffffffffffffffffffffffffffffffffffffffffffffffff821415620021245762002123620020b2565b5b600182019050919050565b6200213a8162000e4c565b82525050565b600060a08201905081810360008301526200215c818862001e60565b90508181036020830152620021728187620016fc565b9050818103604083015262002188818662001e60565b90506200219960608301856200212f565b620021a860808301846200212f565b9695505050505050565b6000620021c9620021c38462000cb7565b62000c5f565b905082815260208101848484011115620021e857620021e762000cb2565b5b620021f5848285620013de565b509392505050565b600082601f83011262002215576200221462000be4565b5b815162002227848260208601620021b2565b91505092915050565b600081519050620022418162000e56565b92915050565b6000610120828403121562002261576200226062000e42565b5b6200226e61012062000c5f565b9050600082015167ffffffffffffffff81111562002291576200229062000e47565b5b6200229f84828501620021fd565b600083015250602082015167ffffffffffffffff811115620022c657620022c562000e47565b5b620022d484828501620021fd565b602083015250604082015167ffffffffffffffff811115620022fb57620022fa62000e47565b5b6200230984828501620021fd565b604083015250606082015167ffffffffffffffff81111562002330576200232f62000e47565b5b6200233e84828501620021fd565b6060830152506080620023548482850162002230565b60808301525060a082015167ffffffffffffffff8111156200237b576200237a62000e47565b5b6200238984828501620021fd565b60a08301525060c082015167ffffffffffffffff811115620023b057620023af62000e47565b5b620023be84828501620021fd565b60c08301525060e0620023d48482850162002230565b60e083015250610100620023eb8482850162002230565b6101008301525092915050565b60006020828403121562002411576200241062000bda565b5b600082015167ffffffffffffffff81111562002432576200243162000bdf565b5b620024408482850162002247565b91505092915050565b60006040828403121562002462576200246162000e42565b5b6200246e604062000c5f565b9050600082015167ffffffffffffffff81111562002491576200249062000e47565b5b6200249f84828501620021fd565b600083015250602082015167ffffffffffffffff811115620024c657620024c562000e47565b5b620024d484828501620021fd565b60208301525092915050565b6000620024f7620024f18462001038565b62000c5f565b9050806020840283018581111562002514576200251362000cad565b5b835b818110156200256257805167ffffffffffffffff8111156200253d576200253c62000be4565b5b8086016200254c898262002449565b8552602085019450505060208101905062002516565b5050509392505050565b600082601f83011262002584576200258362000be4565b5b606462002593848285620024e0565b91505092915050565b600060408284031215620025b557620025b462000e42565b5b620025c1604062000c5f565b9050600082015167ffffffffffffffff811115620025e457620025e362000e47565b5b620025f2848285016200256c565b6000830152506020620026088482850162002230565b60208301525092915050565b6000602082840312156200262d576200262c62000bda565b5b600082015167ffffffffffffffff8111156200264e576200264d62000bdf565b5b6200265c848285016200259c565b91505092915050565b60006200267c620026768462000c7e565b62000c5f565b90508083825260208201905060208402830185811115620026a257620026a162000cad565b5b835b81811015620026f057805167ffffffffffffffff811115620026cb57620026ca62000be4565b5b808601620026da8982620021fd565b85526020850194505050602081019050620026a4565b5050509392505050565b600082601f83011262002712576200271162000be4565b5b81516200272484826020860162002665565b91505092915050565b60006020828403121562002746576200274562000bda565b5b600082015167ffffffffffffffff81111562002767576200276662000bdf565b5b6200277584828501620026fa565b91505092915050565b600060808201905081810360008301526200279a818762001e60565b90508181036020830152620027b0818662001466565b90508181036040830152620027c681856200166c565b90508181036060830152620027dc8184620016fc565b905095945050505050565b6000620027f48262000e4c565b9150620028018362000e4c565b9250827fffffffffffffffffffffffffffffffffffffffffffffffffffffffffffffffff03821115620028395762002838620020b2565b5b828201905092915050565b600082825260208201905092915050565b60006200286282620016ad565b6200286e818562002844565b9350836020820285016200288285620016c9565b8060005b85811015620028c45784840389528151620028a28582620016d9565b9450620028af83620016ef565b925060208a0199505060018101905062002886565b50829750879550505050505092915050565b6000610160830160008301518482036000860152620028f6828262001414565b9150506020830151848203602086015262002912828262001414565b915050604083015184820360408601526200292e828262001414565b915050606083015184820360608601526200294a828262001414565b915050608083015162002961608086018262001455565b5060a08301516200297660a086018262001455565b5060c08301516200298b60c086018262001455565b5060e083015184820360e0860152620029a58282620015eb565b915050610100830151620029be61010086018262001455565b50610120830151620029d561012086018262001455565b50610140830151848203610140860152620029f1828262002855565b9150508091505092915050565b6000606082019050818103600083015262002a1a8186620028d6565b905062002a2b60208301856200212f565b62002a3a60408301846200212f565b949350505050565b6000602082019050818103600083015262002a5e8184620016fc565b905092915050565b600060a082019050818103600083015262002a828188620016fc565b9050818103602083015262002a988187620016fc565b9050818103604083015262002aae818662001e60565b905062002abf60608301856200212f565b62002ace60808301846200212f565b9695505050505050565b600062002ae58262000e4c565b915062002af28362000e4c565b92508282101562002b085762002b07620020b2565b5b828203905092915050565b600060a082019050818103600083015262002b2f818862001e60565b9050818103602083015262002b45818762001e60565b9050818103604083015262002b5b818662001e60565b905062002b6c60608301856200212f565b62002b7b60808301846200212f565b969550505050505056fe60806040523480156200001157600080fd5b5060405162001e0238038062001e02833981810160405281019062000037919062000a4e565b8260000151600160000190805190602001906200005692919062000246565b508260400151600160020190805190602001906200007692919062000246565b5082602001516001800190805190602001906200009592919062000246565b50826060015160016003019080519060200190620000b592919062000246565b5082608001516001600401819055508260a0015160016005019080519060200190620000e392919062000246565b508260c00151600160060190805190602001906200010392919062000246565b508260e0015160016007018190555082610100015160016008018190555060005b8260200151811015620001fb57826000015181606481106200014b576200014a62000b3c565b5b602002015160000151600a60000182606481106200016e576200016d62000b3c565b5b6002020160000190805190602001906200018a92919062000246565b5082600001518160648110620001a557620001a462000b3c565b5b602002015160200151600a6000018260648110620001c857620001c762000b3c565b5b600202016001019080519060200190620001e492919062000246565b508080620001f29062000b9a565b91505062000124565b508160200151600a60c801819055508060d3908051906020019062000222929190620002d7565b5083600090805190602001906200023b92919062000246565b505050505062000c4d565b828054620002549062000c17565b90600052602060002090601f016020900481019282620002785760008555620002c4565b82601f106200029357805160ff1916838001178555620002c4565b82800160010185558215620002c4579182015b82811115620002c3578251825591602001919060010190620002a6565b5b509050620002d391906200033e565b5090565b8280548282559060005260206000209081019282156200032b579160200282015b828111156200032a5782518290805190602001906200031992919062000246565b5091602001919060010190620002f8565b5b5090506200033a91906200035d565b5090565b5b80821115620003595760008160009055506001016200033f565b5090565b5b8082111562000381576000818162000377919062000385565b506001016200035e565b5090565b508054620003939062000c17565b6000825580601f10620003a75750620003c8565b601f016020900490600052602060002090810190620003c791906200033e565b5b50565b6000604051905090565b600080fd5b600080fd5b600080fd5b600080fd5b6000601f19601f8301169050919050565b7f4e487b7100000000000000000000000000000000000000000000000000000000600052604160045260246000fd5b6200043482620003e9565b810181811067ffffffffffffffff82111715620004565762000455620003fa565b5b80604052505050565b60006200046b620003cb565b905062000479828262000429565b919050565b600067ffffffffffffffff8211156200049c576200049b620003fa565b5b620004a782620003e9565b9050602081019050919050565b60005b83811015620004d4578082015181840152602081019050620004b7565b83811115620004e4576000848401525b50505050565b600062000501620004fb846200047e565b6200045f565b90508281526020810184848401111562000520576200051f620003e4565b5b6200052d848285620004b4565b509392505050565b600082601f8301126200054d576200054c620003df565b5b81516200055f848260208601620004ea565b91505092915050565b600080fd5b600080fd5b6000819050919050565b620005878162000572565b81146200059357600080fd5b50565b600081519050620005a7816200057c565b92915050565b60006101208284031215620005c757620005c662000568565b5b620005d46101206200045f565b9050600082015167ffffffffffffffff811115620005f757620005f66200056d565b5b620006058482850162000535565b600083015250602082015167ffffffffffffffff8111156200062c576200062b6200056d565b5b6200063a8482850162000535565b602083015250604082015167ffffffffffffffff8111156200066157620006606200056d565b5b6200066f8482850162000535565b604083015250606082015167ffffffffffffffff8111156200069657620006956200056d565b5b620006a48482850162000535565b6060830152506080620006ba8482850162000596565b60808301525060a082015167ffffffffffffffff811115620006e157620006e06200056d565b5b620006ef8482850162000535565b60a08301525060c082015167ffffffffffffffff8111156200071657620007156200056d565b5b620007248482850162000535565b60c08301525060e06200073a8482850162000596565b60e083015250610100620007518482850162000596565b6101008301525092915050565b600067ffffffffffffffff8211156200077c576200077b620003fa565b5b602082029050919050565b600080fd5b600060408284031215620007a557620007a462000568565b5b620007b160406200045f565b9050600082015167ffffffffffffffff811115620007d457620007d36200056d565b5b620007e28482850162000535565b600083015250602082015167ffffffffffffffff8111156200080957620008086200056d565b5b620008178482850162000535565b60208301525092915050565b60006200083a62000834846200075e565b6200045f565b9050806020840283018581111562000857576200085662000787565b5b835b81811015620008a557805167ffffffffffffffff81111562000880576200087f620003df565b5b8086016200088f89826200078c565b8552602085019450505060208101905062000859565b5050509392505050565b600082601f830112620008c757620008c6620003df565b5b6064620008d684828562000823565b91505092915050565b600060408284031215620008f857620008f762000568565b5b6200090460406200045f565b9050600082015167ffffffffffffffff8111156200092757620009266200056d565b5b6200093584828501620008af565b60008301525060206200094b8482850162000596565b60208301525092915050565b600067ffffffffffffffff821115620009755762000974620003fa565b5b602082029050602081019050919050565b60006200099d620009978462000957565b6200045f565b90508083825260208201905060208402830185811115620009c357620009c262000787565b5b835b8181101562000a1157805167ffffffffffffffff811115620009ec57620009eb620003df565b5b808601620009fb898262000535565b85526020850194505050602081019050620009c5565b5050509392505050565b600082601f83011262000a335762000a32620003df565b5b815162000a4584826020860162000986565b91505092915050565b6000806000806080858703121562000a6b5762000a6a620003d5565b5b600085015167ffffffffffffffff81111562000a8c5762000a8b620003da565b5b62000a9a8782880162000535565b945050602085015167ffffffffffffffff81111562000abe5762000abd620003da565b5b62000acc87828801620005ad565b935050604085015167ffffffffffffffff81111562000af05762000aef620003da565b5b62000afe87828801620008df565b925050606085015167ffffffffffffffff81111562000b225762000b21620003da565b5b62000b308782880162000a1b565b91505092959194509250565b7f4e487b7100000000000000000000000000000000000000000000000000000000600052603260045260246000fd5b7f4e487b7100000000000000000000000000000000000000000000000000000000600052601160045260246000fd5b600062000ba78262000572565b91507fffffffffffffffffffffffffffffffffffffffffffffffffffffffffffffffff82141562000bdd5762000bdc62000b6b565b5b600182019050919050565b7f4e487b7100000000000000000000000000000000000000000000000000000000600052602260045260246000fd5b6000600282049050600182168062000c3057607f821691505b6020821081141562000c475762000c4662000be8565b5b50919050565b6111a58062000c5d6000396000f3fe608060405234801561001057600080fd5b50600436106100625760003560e01c806313d743bc146100675780633bc5de30146100855780634892e8e8146100a35780636d8012b7146100c157806394094420146100dd578063dd6133b5146100f9575b600080fd5b61006f610117565b60405161007c9190610c3d565b60405180910390f35b61008d6102ab565b60405161009a9190610d47565b60405180910390f35b6100ab610650565b6040516100b89190610e2b565b60405180910390f35b6100db60048036038101906100d6919061107c565b610729565b005b6100f760048036038101906100f291906110c5565b610743565b005b610101610760565b60405161010e9190610e2b565b60405180910390f35b61011f610839565b600a60405180604001604052908160008201606480602002604051908101604052809291906000905b82821015610294578382600202016040518060400160405290816000820180546101719061113d565b80601f016020809104026020016040519081016040528092919081815260200182805461019d9061113d565b80156101ea5780601f106101bf576101008083540402835291602001916101ea565b820191906000526020600020905b8154815290600101906020018083116101cd57829003601f168201915b505050505081526020016001820180546102039061113d565b80601f016020809104026020016040519081016040528092919081815260200182805461022f9061113d565b801561027c5780601f106102515761010080835404028352916020019161027c565b820191906000526020600020905b81548152906001019060200180831161025f57829003601f168201915b50505050508152505081526020019060010190610148565b50505050815260200160c882015481525050905090565b6102b3610859565b6001604051806101200160405290816000820180546102d19061113d565b80601f01602080910402602001604051908101604052809291908181526020018280546102fd9061113d565b801561034a5780601f1061031f5761010080835404028352916020019161034a565b820191906000526020600020905b81548152906001019060200180831161032d57829003601f168201915b505050505081526020016001820180546103639061113d565b80601f016020809104026020016040519081016040528092919081815260200182805461038f9061113d565b80156103dc5780601f106103b1576101008083540402835291602001916103dc565b820191906000526020600020905b8154815290600101906020018083116103bf57829003601f168201915b505050505081526020016002820180546103f59061113d565b80601f01602080910402602001604051908101604052809291908181526020018280546104219061113d565b801561046e5780601f106104435761010080835404028352916020019161046e565b820191906000526020600020905b81548152906001019060200180831161045157829003601f168201915b505050505081526020016003820180546104879061113d565b80601f01602080910402602001604051908101604052809291908181526020018280546104b39061113d565b80156105005780601f106104d557610100808354040283529160200191610500565b820191906000526020600020905b8154815290600101906020018083116104e357829003601f168201915b50505050508152602001600482015481526020016005820180546105239061113d565b80601f016020809104026020016040519081016040528092919081815260200182805461054f9061113d565b801561059c5780601f106105715761010080835404028352916020019161059c565b820191906000526020600020905b81548152906001019060200180831161057f57829003601f168201915b505050505081526020016006820180546105b59061113d565b80601f01602080910402602001604051908101604052809291908181526020018280546105e19061113d565b801561062e5780601f106106035761010080835404028352916020019161062e565b820191906000526020600020905b81548152906001019060200180831161061157829003601f168201915b5050505050815260200160078201548152602001600882015481525050905090565b606060d4805480602002602001604051908101604052809291908181526020016000905b828210156107205783829060005260206000200180546106939061113d565b80601f01602080910402602001604051908101604052809291908181526020018280546106bf9061113d565b801561070c5780601f106106e15761010080835404028352916020019161070c565b820191906000526020600020905b8154815290600101906020018083116106ef57829003601f168201915b505050505081526020019060010190610674565b50505050905090565b8060d4908051906020019061073f9291906108a5565b5050565b806001600601908051906020019061075c929190610905565b5050565b606060d3805480602002602001604051908101604052809291908181526020016000905b828210156108305783829060005260206000200180546107a39061113d565b80601f01602080910402602001604051908101604052809291908181526020018280546107cf9061113d565b801561081c5780601f106107f15761010080835404028352916020019161081c565b820191906000526020600020905b8154815290600101906020018083116107ff57829003601f168201915b505050505081526020019060010190610784565b50505050905090565b604051806040016040528061084c61098b565b8152602001600081525090565b6040518061012001604052806060815260200160608152602001606081526020016060815260200160008152602001606081526020016060815260200160008152602001600081525090565b8280548282559060005260206000209081019282156108f4579160200282015b828111156108f35782518290805190602001906108e3929190610905565b50916020019190600101906108c5565b5b50905061090191906109b9565b5090565b8280546109119061113d565b90600052602060002090601f016020900481019282610933576000855561097a565b82601f1061094c57805160ff191683800117855561097a565b8280016001018555821561097a579182015b8281111561097957825182559160200191906001019061095e565b5b50905061098791906109dd565b5090565b60405180610c8001604052806064905b6109a36109fa565b81526020019060019003908161099b5790505090565b5b808211156109d957600081816109d09190610a14565b506001016109ba565b5090565b5b808211156109f65760008160009055506001016109de565b5090565b604051806040016040528060608152602001606081525090565b508054610a209061113d565b6000825580601f10610a325750610a51565b601f016020900490600052602060002090810190610a5091906109dd565b5b50565b600060649050919050565b600081905092915050565b6000819050919050565b600081519050919050565b600082825260208201905092915050565b60005b83811015610aae578082015181840152602081019050610a93565b83811115610abd576000848401525b50505050565b6000601f19601f8301169050919050565b6000610adf82610a74565b610ae98185610a7f565b9350610af9818560208601610a90565b610b0281610ac3565b840191505092915050565b60006040830160008301518482036000860152610b2a8282610ad4565b91505060208301518482036020860152610b448282610ad4565b9150508091505092915050565b6000610b5d8383610b0d565b905092915050565b6000602082019050919050565b6000610b7d82610a54565b610b878185610a5f565b935083602082028501610b9985610a6a565b8060005b85811015610bd55784840389528151610bb68582610b51565b9450610bc183610b65565b925060208a01995050600181019050610b9d565b50829750879550505050505092915050565b6000819050919050565b610bfa81610be7565b82525050565b60006040830160008301518482036000860152610c1d8282610b72565b9150506020830151610c326020860182610bf1565b508091505092915050565b60006020820190508181036000830152610c578184610c00565b905092915050565b6000610120830160008301518482036000860152610c7d8282610ad4565b91505060208301518482036020860152610c978282610ad4565b91505060408301518482036040860152610cb18282610ad4565b91505060608301518482036060860152610ccb8282610ad4565b9150506080830151610ce06080860182610bf1565b5060a083015184820360a0860152610cf88282610ad4565b91505060c083015184820360c0860152610d128282610ad4565b91505060e0830151610d2760e0860182610bf1565b50610100830151610d3c610100860182610bf1565b508091505092915050565b60006020820190508181036000830152610d618184610c5f565b905092915050565b600081519050919050565b600082825260208201905092915050565b6000819050602082019050919050565b6000610da18383610ad4565b905092915050565b6000602082019050919050565b6000610dc182610d69565b610dcb8185610d74565b935083602082028501610ddd85610d85565b8060005b85811015610e195784840389528151610dfa8582610d95565b9450610e0583610da9565b925060208a01995050600181019050610de1565b50829750879550505050505092915050565b60006020820190508181036000830152610e458184610db6565b905092915050565b6000604051905090565b600080fd5b600080fd5b600080fd5b7f4e487b7100000000000000000000000000000000000000000000000000000000600052604160045260246000fd5b610e9e82610ac3565b810181811067ffffffffffffffff82111715610ebd57610ebc610e66565b5b80604052505050565b6000610ed0610e4d565b9050610edc8282610e95565b919050565b600067ffffffffffffffff821115610efc57610efb610e66565b5b602082029050602081019050919050565b600080fd5b600080fd5b600067ffffffffffffffff821115610f3257610f31610e66565b5b610f3b82610ac3565b9050602081019050919050565b82818337600083830152505050565b6000610f6a610f6584610f17565b610ec6565b905082815260208101848484011115610f8657610f85610f12565b5b610f91848285610f48565b509392505050565b600082601f830112610fae57610fad610e61565b5b8135610fbe848260208601610f57565b91505092915050565b6000610fda610fd584610ee1565b610ec6565b90508083825260208201905060208402830185811115610ffd57610ffc610f0d565b5b835b8181101561104457803567ffffffffffffffff81111561102257611021610e61565b5b80860161102f8982610f99565b85526020850194505050602081019050610fff565b5050509392505050565b600082601f83011261106357611062610e61565b5b8135611073848260208601610fc7565b91505092915050565b60006020828403121561109257611091610e57565b5b600082013567ffffffffffffffff8111156110b0576110af610e5c565b5b6110bc8482850161104e565b91505092915050565b6000602082840312156110db576110da610e57565b5b600082013567ffffffffffffffff8111156110f9576110f8610e5c565b5b61110584828501610f99565b91505092915050565b7f4e487b7100000000000000000000000000000000000000000000000000000000600052602260045260246000fd5b6000600282049050600182168061115557607f821691505b602082108114156111695761116861110e565b5b5091905056fea264697066735822122019d5960956d1720568d692281efd10a87a80c56481f5c2ca20550eebc69128bb64736f6c634300080b0033a264697066735822122036cc9979647e704a36d98383b670b16a14020700ae062878fe5785f1748bb61d64736f6c634300080b0033",
  "immutableReferences": {},
  "source": "// SPDX-License-Identifier: MIT\npragma solidity >=0.6.0;\npragma experimental ABIEncoderV2;\n\nimport \"./DataStruct.sol\";\nimport \"./EsToken.sol\";\n\n\ncontract CadastralContract{\n    mapping(string => EsToken) nowEstateList;\n    uint esCount;\n    uint totalCount;\n    uint flag;\n    string [] temp;\n    uint tes;\n\n    constructor() {\n        esCount = 0;\n        totalCount = 0;\n        flag = 0;\n    }\n\n    event eventSplit(\n        string [] parentId,\n        string [] childId,\n        string changeDate,\n        uint operationId,\n        uint operationType\n    );\n\n    event eventCreate(\n        EventCreateParam param,\n        uint operationId,\n        uint operationType\n    );\n\n    event eventMerge(\n        string childId,\n        string [] parentId,\n        string changeDate,\n        uint operationId,\n        uint operationType\n    );\n\n    event eventDelete(\n        string Id,\n        string begDate,\n        string endDate,\n        uint operationId,\n        uint operationType\n    );\n\n    function create(\n        FunctionCreateParam memory param,\n        uint operationId,\n        uint operationType\n    ) \n        public  \n        payable\n    {\n        EsToken estate = new EsToken(param.id, param.data, param.poly, param.pa);\n        nowEstateList[param.id] = estate;\n        esCount += 1;\n        totalCount += 1;\n        if(flag == 0){\n            emit eventCreate(\n                EventCreateParam(\n                    param.id,\n                    param.data.begDate,\n                    param.data.endDate,\n                    param.data.county,\n                    param.data.townShip,\n                    param.data.reason,\n                    param.data.changeTag,\n                    param.poly.pList,\n                    param.poly.numOfPoint,\n                    param.functional,\n                    param.other\n                ),\n                operationId,\n                operationType\n            );\n        }\n    }\n\n\n    function deleteEst(\n        string memory id,\n        string memory begDate,\n        string memory endDate,\n        uint operationId,\n        uint operationType\n    ) \n        public\n        payable\n    {\n        esCount -=1;\n        emit eventDelete(\n            id, \n            begDate, \n            endDate,\n            operationId,\n            operationType\n        );\n    }\n\n\n    function split(\n        string [] memory sId,\n        string [] memory newIdList,\n        Data [] memory newDataList,\n        Polygon [] memory polygonList,\n        uint numOfnewEstate,\n        uint functional,\n        uint operationId,\n        uint operationType\n    )\n        public\n        payable\n    {\n        EsToken estate = nowEstateList[sId[0]];\n        estate.setEndDate(newDataList[0].begDate);\n        estate.setChildren(newIdList);\n\n        for(uint i = 0;i < numOfnewEstate;i++){\n            create(\n                FunctionCreateParam(\n                    newIdList[i], \n                    newDataList[i], \n                    polygonList[i], \n                    temp, \n                    functional, \n                    sId\n                ),\n                operationId,\n                operationType\n            );\n        }\n\n        emit eventSplit(\n            sId,\n            newIdList,\n            newDataList[0].begDate,\n            operationId,\n            operationType    \n        );\n    }\n\n    function merge(\n        string [] memory mIdList,\n        string memory newId,\n        Data memory data,\n        Polygon memory polygon,\n        uint numOfMergeEstate,\n        uint functional,\n        uint operationId,\n        uint operationType\n    ) \n        public\n        payable\n    {\n        EsToken estate;\n        tes = numOfMergeEstate;\n        for(uint i = 0;i < numOfMergeEstate;i++){\n            estate = nowEstateList[mIdList[i]];\n            estate.setEndDate(data.begDate);\n            estate.setChildren(temp);\n        }\n        create(\n            FunctionCreateParam(\n                newId, \n                data, \n                polygon, \n                mIdList, \n                functional, \n                mIdList\n            ),\n            operationId,\n            operationType\n        );\n        emit eventMerge(\n            newId,\n            mIdList,\n            data.begDate,\n            operationId,\n            operationType    \n        );\n    }\n\n    // function getEstateAddress(string memory id) public view returns(address){\n    //     string memory tmp = \"\";\n    //     if(keccak256(abi.encodePacked(changeIdList[id])) != keccak256(abi.encodePacked(tmp))){\n    //         return address(nowEstateList[changeIdList[id]]);\n    //     }\n    //     else{\n    //         return address(nowEstateList[id]);\n    //     }\n    // }\n    function getEstateData(string memory Id)\n        public \n        view \n        returns(\n            Data memory,\n            Polygon memory,\n            string [] memory,\n            string [] memory\n        )\n    {\n        EsToken estate = nowEstateList[Id];\n        Data memory data = estate.getData();\n        Polygon memory poly = estate.getPolygon();\n        string [] memory pa = estate.getParents();\n        string [] memory chi = estate.getChildren();\n        return (\n            data,\n            poly,\n            pa,\n            chi\n        );\n    }    \n}",
  "sourcePath": "/home/mozixreality/Documents/Project/Estate-BlockChain/contracts/CadastralContract.sol",
  "compiler": {
    "name": "solc",
    "version": "0.8.11+commit.d7f03943.Emscripten.clang"
  },
  "schemaVersion": "3.4.9",
  "updatedAt": "2022-08-26T04:07:41.423Z",
  "networkType": "ethereum",
  "devdoc": {
    "kind": "dev",
    "methods": {},
    "version": 1
  },
  "userdoc": {
    "kind": "user",
    "methods": {},
    "version": 1
  }
}