{
  "contractName": "EsToken",
  "abi": [
    {
      "inputs": [
        {
          "internalType": "string",
          "name": "id",
          "type": "string"
        },
        {
          "components": [
            {
              "internalType": "string",
              "name": "pcno",
              "type": "string"
            },
            {
              "internalType": "string",
              "name": "pmno",
              "type": "string"
            },
            {
              "internalType": "string",
              "name": "scno",
              "type": "string"
            },
            {
              "internalType": "string",
              "name": "county",
              "type": "string"
            },
            {
              "internalType": "uint256",
              "name": "townShip",
              "type": "uint256"
            },
            {
              "internalType": "string",
              "name": "begDate",
              "type": "string"
            },
            {
              "internalType": "string",
              "name": "endDate",
              "type": "string"
            },
            {
              "internalType": "uint256",
              "name": "reason",
              "type": "uint256"
            },
            {
              "internalType": "uint256",
              "name": "changeTag",
              "type": "uint256"
            }
          ],
          "internalType": "struct Data",
          "name": "d",
          "type": "tuple"
        },
        {
          "components": [
            {
              "components": [
                {
                  "internalType": "string",
                  "name": "x",
                  "type": "string"
                },
                {
                  "internalType": "string",
                  "name": "y",
                  "type": "string"
                }
              ],
              "internalType": "struct Point[100]",
              "name": "pList",
              "type": "tuple[100]"
            },
            {
              "internalType": "uint256",
              "name": "numOfPoint",
              "type": "uint256"
            }
          ],
          "internalType": "struct Polygon",
          "name": "poly",
          "type": "tuple"
        },
        {
          "internalType": "string[]",
          "name": "pa",
          "type": "string[]"
        }
      ],
      "stateMutability": "nonpayable",
      "type": "constructor"
    },
    {
      "inputs": [
        {
          "internalType": "string",
          "name": "endD",
          "type": "string"
        }
      ],
      "name": "setEndDate",
      "outputs": [],
      "stateMutability": "nonpayable",
      "type": "function"
    },
    {
      "inputs": [
        {
          "internalType": "string[]",
          "name": "chi",
          "type": "string[]"
        }
      ],
      "name": "setChildren",
      "outputs": [],
      "stateMutability": "nonpayable",
      "type": "function"
    },
    {
      "inputs": [],
      "name": "getData",
      "outputs": [
        {
          "components": [
            {
              "internalType": "string",
              "name": "pcno",
              "type": "string"
            },
            {
              "internalType": "string",
              "name": "pmno",
              "type": "string"
            },
            {
              "internalType": "string",
              "name": "scno",
              "type": "string"
            },
            {
              "internalType": "string",
              "name": "county",
              "type": "string"
            },
            {
              "internalType": "uint256",
              "name": "townShip",
              "type": "uint256"
            },
            {
              "internalType": "string",
              "name": "begDate",
              "type": "string"
            },
            {
              "internalType": "string",
              "name": "endDate",
              "type": "string"
            },
            {
              "internalType": "uint256",
              "name": "reason",
              "type": "uint256"
            },
            {
              "internalType": "uint256",
              "name": "changeTag",
              "type": "uint256"
            }
          ],
          "internalType": "struct Data",
          "name": "",
          "type": "tuple"
        }
      ],
      "stateMutability": "view",
      "type": "function"
    },
    {
      "inputs": [],
      "name": "getPolygon",
      "outputs": [
        {
          "components": [
            {
              "components": [
                {
                  "internalType": "string",
                  "name": "x",
                  "type": "string"
                },
                {
                  "internalType": "string",
                  "name": "y",
                  "type": "string"
                }
              ],
              "internalType": "struct Point[100]",
              "name": "pList",
              "type": "tuple[100]"
            },
            {
              "internalType": "uint256",
              "name": "numOfPoint",
              "type": "uint256"
            }
          ],
          "internalType": "struct Polygon",
          "name": "",
          "type": "tuple"
        }
      ],
      "stateMutability": "view",
      "type": "function"
    },
    {
      "inputs": [],
      "name": "getParents",
      "outputs": [
        {
          "internalType": "string[]",
          "name": "",
          "type": "string[]"
        }
      ],
      "stateMutability": "view",
      "type": "function"
    },
    {
      "inputs": [],
      "name": "getChildren",
      "outputs": [
        {
          "internalType": "string[]",
          "name": "",
          "type": "string[]"
        }
      ],
      "stateMutability": "view",
      "type": "function"
    }
  ],
  "bytecode": "0x60806040523480156200001157600080fd5b5060405162001e0238038062001e02833981810160405281019062000037919062000a4e565b8260000151600160000190805190602001906200005692919062000246565b508260400151600160020190805190602001906200007692919062000246565b5082602001516001800190805190602001906200009592919062000246565b50826060015160016003019080519060200190620000b592919062000246565b5082608001516001600401819055508260a0015160016005019080519060200190620000e392919062000246565b508260c00151600160060190805190602001906200010392919062000246565b508260e0015160016007018190555082610100015160016008018190555060005b8260200151811015620001fb57826000015181606481106200014b576200014a62000b3c565b5b602002015160000151600a60000182606481106200016e576200016d62000b3c565b5b6002020160000190805190602001906200018a92919062000246565b5082600001518160648110620001a557620001a462000b3c565b5b602002015160200151600a6000018260648110620001c857620001c762000b3c565b5b600202016001019080519060200190620001e492919062000246565b508080620001f29062000b9a565b91505062000124565b508160200151600a60c801819055508060d3908051906020019062000222929190620002d7565b5083600090805190602001906200023b92919062000246565b505050505062000c4d565b828054620002549062000c17565b90600052602060002090601f016020900481019282620002785760008555620002c4565b82601f106200029357805160ff1916838001178555620002c4565b82800160010185558215620002c4579182015b82811115620002c3578251825591602001919060010190620002a6565b5b509050620002d391906200033e565b5090565b8280548282559060005260206000209081019282156200032b579160200282015b828111156200032a5782518290805190602001906200031992919062000246565b5091602001919060010190620002f8565b5b5090506200033a91906200035d565b5090565b5b80821115620003595760008160009055506001016200033f565b5090565b5b8082111562000381576000818162000377919062000385565b506001016200035e565b5090565b508054620003939062000c17565b6000825580601f10620003a75750620003c8565b601f016020900490600052602060002090810190620003c791906200033e565b5b50565b6000604051905090565b600080fd5b600080fd5b600080fd5b600080fd5b6000601f19601f8301169050919050565b7f4e487b7100000000000000000000000000000000000000000000000000000000600052604160045260246000fd5b6200043482620003e9565b810181811067ffffffffffffffff82111715620004565762000455620003fa565b5b80604052505050565b60006200046b620003cb565b905062000479828262000429565b919050565b600067ffffffffffffffff8211156200049c576200049b620003fa565b5b620004a782620003e9565b9050602081019050919050565b60005b83811015620004d4578082015181840152602081019050620004b7565b83811115620004e4576000848401525b50505050565b600062000501620004fb846200047e565b6200045f565b90508281526020810184848401111562000520576200051f620003e4565b5b6200052d848285620004b4565b509392505050565b600082601f8301126200054d576200054c620003df565b5b81516200055f848260208601620004ea565b91505092915050565b600080fd5b600080fd5b6000819050919050565b620005878162000572565b81146200059357600080fd5b50565b600081519050620005a7816200057c565b92915050565b60006101208284031215620005c757620005c662000568565b5b620005d46101206200045f565b9050600082015167ffffffffffffffff811115620005f757620005f66200056d565b5b620006058482850162000535565b600083015250602082015167ffffffffffffffff8111156200062c576200062b6200056d565b5b6200063a8482850162000535565b602083015250604082015167ffffffffffffffff8111156200066157620006606200056d565b5b6200066f8482850162000535565b604083015250606082015167ffffffffffffffff8111156200069657620006956200056d565b5b620006a48482850162000535565b6060830152506080620006ba8482850162000596565b60808301525060a082015167ffffffffffffffff811115620006e157620006e06200056d565b5b620006ef8482850162000535565b60a08301525060c082015167ffffffffffffffff8111156200071657620007156200056d565b5b620007248482850162000535565b60c08301525060e06200073a8482850162000596565b60e083015250610100620007518482850162000596565b6101008301525092915050565b600067ffffffffffffffff8211156200077c576200077b620003fa565b5b602082029050919050565b600080fd5b600060408284031215620007a557620007a462000568565b5b620007b160406200045f565b9050600082015167ffffffffffffffff811115620007d457620007d36200056d565b5b620007e28482850162000535565b600083015250602082015167ffffffffffffffff8111156200080957620008086200056d565b5b620008178482850162000535565b60208301525092915050565b60006200083a62000834846200075e565b6200045f565b9050806020840283018581111562000857576200085662000787565b5b835b81811015620008a557805167ffffffffffffffff81111562000880576200087f620003df565b5b8086016200088f89826200078c565b8552602085019450505060208101905062000859565b5050509392505050565b600082601f830112620008c757620008c6620003df565b5b6064620008d684828562000823565b91505092915050565b600060408284031215620008f857620008f762000568565b5b6200090460406200045f565b9050600082015167ffffffffffffffff8111156200092757620009266200056d565b5b6200093584828501620008af565b60008301525060206200094b8482850162000596565b60208301525092915050565b600067ffffffffffffffff821115620009755762000974620003fa565b5b602082029050602081019050919050565b60006200099d620009978462000957565b6200045f565b90508083825260208201905060208402830185811115620009c357620009c262000787565b5b835b8181101562000a1157805167ffffffffffffffff811115620009ec57620009eb620003df565b5b808601620009fb898262000535565b85526020850194505050602081019050620009c5565b5050509392505050565b600082601f83011262000a335762000a32620003df565b5b815162000a4584826020860162000986565b91505092915050565b6000806000806080858703121562000a6b5762000a6a620003d5565b5b600085015167ffffffffffffffff81111562000a8c5762000a8b620003da565b5b62000a9a8782880162000535565b945050602085015167ffffffffffffffff81111562000abe5762000abd620003da565b5b62000acc87828801620005ad565b935050604085015167ffffffffffffffff81111562000af05762000aef620003da565b5b62000afe87828801620008df565b925050606085015167ffffffffffffffff81111562000b225762000b21620003da565b5b62000b308782880162000a1b565b91505092959194509250565b7f4e487b7100000000000000000000000000000000000000000000000000000000600052603260045260246000fd5b7f4e487b7100000000000000000000000000000000000000000000000000000000600052601160045260246000fd5b600062000ba78262000572565b91507fffffffffffffffffffffffffffffffffffffffffffffffffffffffffffffffff82141562000bdd5762000bdc62000b6b565b5b600182019050919050565b7f4e487b7100000000000000000000000000000000000000000000000000000000600052602260045260246000fd5b6000600282049050600182168062000c3057607f821691505b6020821081141562000c475762000c4662000be8565b5b50919050565b6111a58062000c5d6000396000f3fe608060405234801561001057600080fd5b50600436106100625760003560e01c806313d743bc146100675780633bc5de30146100855780634892e8e8146100a35780636d8012b7146100c157806394094420146100dd578063dd6133b5146100f9575b600080fd5b61006f610117565b60405161007c9190610c3d565b60405180910390f35b61008d6102ab565b60405161009a9190610d47565b60405180910390f35b6100ab610650565b6040516100b89190610e2b565b60405180910390f35b6100db60048036038101906100d6919061107c565b610729565b005b6100f760048036038101906100f291906110c5565b610743565b005b610101610760565b60405161010e9190610e2b565b60405180910390f35b61011f610839565b600a60405180604001604052908160008201606480602002604051908101604052809291906000905b82821015610294578382600202016040518060400160405290816000820180546101719061113d565b80601f016020809104026020016040519081016040528092919081815260200182805461019d9061113d565b80156101ea5780601f106101bf576101008083540402835291602001916101ea565b820191906000526020600020905b8154815290600101906020018083116101cd57829003601f168201915b505050505081526020016001820180546102039061113d565b80601f016020809104026020016040519081016040528092919081815260200182805461022f9061113d565b801561027c5780601f106102515761010080835404028352916020019161027c565b820191906000526020600020905b81548152906001019060200180831161025f57829003601f168201915b50505050508152505081526020019060010190610148565b50505050815260200160c882015481525050905090565b6102b3610859565b6001604051806101200160405290816000820180546102d19061113d565b80601f01602080910402602001604051908101604052809291908181526020018280546102fd9061113d565b801561034a5780601f1061031f5761010080835404028352916020019161034a565b820191906000526020600020905b81548152906001019060200180831161032d57829003601f168201915b505050505081526020016001820180546103639061113d565b80601f016020809104026020016040519081016040528092919081815260200182805461038f9061113d565b80156103dc5780601f106103b1576101008083540402835291602001916103dc565b820191906000526020600020905b8154815290600101906020018083116103bf57829003601f168201915b505050505081526020016002820180546103f59061113d565b80601f01602080910402602001604051908101604052809291908181526020018280546104219061113d565b801561046e5780601f106104435761010080835404028352916020019161046e565b820191906000526020600020905b81548152906001019060200180831161045157829003601f168201915b505050505081526020016003820180546104879061113d565b80601f01602080910402602001604051908101604052809291908181526020018280546104b39061113d565b80156105005780601f106104d557610100808354040283529160200191610500565b820191906000526020600020905b8154815290600101906020018083116104e357829003601f168201915b50505050508152602001600482015481526020016005820180546105239061113d565b80601f016020809104026020016040519081016040528092919081815260200182805461054f9061113d565b801561059c5780601f106105715761010080835404028352916020019161059c565b820191906000526020600020905b81548152906001019060200180831161057f57829003601f168201915b505050505081526020016006820180546105b59061113d565b80601f01602080910402602001604051908101604052809291908181526020018280546105e19061113d565b801561062e5780601f106106035761010080835404028352916020019161062e565b820191906000526020600020905b81548152906001019060200180831161061157829003601f168201915b5050505050815260200160078201548152602001600882015481525050905090565b606060d4805480602002602001604051908101604052809291908181526020016000905b828210156107205783829060005260206000200180546106939061113d565b80601f01602080910402602001604051908101604052809291908181526020018280546106bf9061113d565b801561070c5780601f106106e15761010080835404028352916020019161070c565b820191906000526020600020905b8154815290600101906020018083116106ef57829003601f168201915b505050505081526020019060010190610674565b50505050905090565b8060d4908051906020019061073f9291906108a5565b5050565b806001600601908051906020019061075c929190610905565b5050565b606060d3805480602002602001604051908101604052809291908181526020016000905b828210156108305783829060005260206000200180546107a39061113d565b80601f01602080910402602001604051908101604052809291908181526020018280546107cf9061113d565b801561081c5780601f106107f15761010080835404028352916020019161081c565b820191906000526020600020905b8154815290600101906020018083116107ff57829003601f168201915b505050505081526020019060010190610784565b50505050905090565b604051806040016040528061084c61098b565b8152602001600081525090565b6040518061012001604052806060815260200160608152602001606081526020016060815260200160008152602001606081526020016060815260200160008152602001600081525090565b8280548282559060005260206000209081019282156108f4579160200282015b828111156108f35782518290805190602001906108e3929190610905565b50916020019190600101906108c5565b5b50905061090191906109b9565b5090565b8280546109119061113d565b90600052602060002090601f016020900481019282610933576000855561097a565b82601f1061094c57805160ff191683800117855561097a565b8280016001018555821561097a579182015b8281111561097957825182559160200191906001019061095e565b5b50905061098791906109dd565b5090565b60405180610c8001604052806064905b6109a36109fa565b81526020019060019003908161099b5790505090565b5b808211156109d957600081816109d09190610a14565b506001016109ba565b5090565b5b808211156109f65760008160009055506001016109de565b5090565b604051806040016040528060608152602001606081525090565b508054610a209061113d565b6000825580601f10610a325750610a51565b601f016020900490600052602060002090810190610a5091906109dd565b5b50565b600060649050919050565b600081905092915050565b6000819050919050565b600081519050919050565b600082825260208201905092915050565b60005b83811015610aae578082015181840152602081019050610a93565b83811115610abd576000848401525b50505050565b6000601f19601f8301169050919050565b6000610adf82610a74565b610ae98185610a7f565b9350610af9818560208601610a90565b610b0281610ac3565b840191505092915050565b60006040830160008301518482036000860152610b2a8282610ad4565b91505060208301518482036020860152610b448282610ad4565b9150508091505092915050565b6000610b5d8383610b0d565b905092915050565b6000602082019050919050565b6000610b7d82610a54565b610b878185610a5f565b935083602082028501610b9985610a6a565b8060005b85811015610bd55784840389528151610bb68582610b51565b9450610bc183610b65565b925060208a01995050600181019050610b9d565b50829750879550505050505092915050565b6000819050919050565b610bfa81610be7565b82525050565b60006040830160008301518482036000860152610c1d8282610b72565b9150506020830151610c326020860182610bf1565b508091505092915050565b60006020820190508181036000830152610c578184610c00565b905092915050565b6000610120830160008301518482036000860152610c7d8282610ad4565b91505060208301518482036020860152610c978282610ad4565b91505060408301518482036040860152610cb18282610ad4565b91505060608301518482036060860152610ccb8282610ad4565b9150506080830151610ce06080860182610bf1565b5060a083015184820360a0860152610cf88282610ad4565b91505060c083015184820360c0860152610d128282610ad4565b91505060e0830151610d2760e0860182610bf1565b50610100830151610d3c610100860182610bf1565b508091505092915050565b60006020820190508181036000830152610d618184610c5f565b905092915050565b600081519050919050565b600082825260208201905092915050565b6000819050602082019050919050565b6000610da18383610ad4565b905092915050565b6000602082019050919050565b6000610dc182610d69565b610dcb8185610d74565b935083602082028501610ddd85610d85565b8060005b85811015610e195784840389528151610dfa8582610d95565b9450610e0583610da9565b925060208a01995050600181019050610de1565b50829750879550505050505092915050565b60006020820190508181036000830152610e458184610db6565b905092915050565b6000604051905090565b600080fd5b600080fd5b600080fd5b7f4e487b7100000000000000000000000000000000000000000000000000000000600052604160045260246000fd5b610e9e82610ac3565b810181811067ffffffffffffffff82111715610ebd57610ebc610e66565b5b80604052505050565b6000610ed0610e4d565b9050610edc8282610e95565b919050565b600067ffffffffffffffff821115610efc57610efb610e66565b5b602082029050602081019050919050565b600080fd5b600080fd5b600067ffffffffffffffff821115610f3257610f31610e66565b5b610f3b82610ac3565b9050602081019050919050565b82818337600083830152505050565b6000610f6a610f6584610f17565b610ec6565b905082815260208101848484011115610f8657610f85610f12565b5b610f91848285610f48565b509392505050565b600082601f830112610fae57610fad610e61565b5b8135610fbe848260208601610f57565b91505092915050565b6000610fda610fd584610ee1565b610ec6565b90508083825260208201905060208402830185811115610ffd57610ffc610f0d565b5b835b8181101561104457803567ffffffffffffffff81111561102257611021610e61565b5b80860161102f8982610f99565b85526020850194505050602081019050610fff565b5050509392505050565b600082601f83011261106357611062610e61565b5b8135611073848260208601610fc7565b91505092915050565b60006020828403121561109257611091610e57565b5b600082013567ffffffffffffffff8111156110b0576110af610e5c565b5b6110bc8482850161104e565b91505092915050565b6000602082840312156110db576110da610e57565b5b600082013567ffffffffffffffff8111156110f9576110f8610e5c565b5b61110584828501610f99565b91505092915050565b7f4e487b7100000000000000000000000000000000000000000000000000000000600052602260045260246000fd5b6000600282049050600182168061115557607f821691505b602082108114156111695761116861110e565b5b5091905056fea2646970667358221220502d8db8760fc0c43fa7e1e433de116d8e422eba9742eda0ff181b81eafd834964736f6c634300080b0033",
  "immutableReferences": {},
  "source": "// SPDX-License-Identifier: MIT\npragma solidity >=0.6.0;\npragma experimental ABIEncoderV2;\nimport \"./DataStruct.sol\";\n\n\ncontract EsToken {\n    string Id;\n    Data data;\n    Polygon polygon;\n    string [] parents;\n    string [] children;\n\n    constructor(string memory id,Data memory d,Polygon memory poly,string [] memory pa) public{\n        data.pcno = d.pcno;\n        data.scno = d.scno;\n        data.pmno = d.pmno;\n        data.county = d.county;\n        data.townShip = d.townShip;\n        data.begDate = d.begDate;\n        data.endDate = d.endDate;\n        data.reason = d.reason;\n        data.changeTag = d.changeTag;\n        for(uint i = 0;i < poly.numOfPoint;i++){\n            polygon.pList[i].x = poly.pList[i].x;\n            polygon.pList[i].y = poly.pList[i].y;\n        }\n        polygon.numOfPoint = poly.numOfPoint;\n        parents = pa;\n        Id = id;\n    }\n    function setEndDate(string memory endD) public {\n        data.endDate = endD;\n    }\n    function setChildren(string [] memory chi) public {\n        children = chi;\n    }\n\n    function getData() public view returns(Data memory){\n        return data;\n    }\n    function getPolygon() public view returns(Polygon memory){\n        return polygon;\n    }\n    function getParents() public view returns(string [] memory){\n        return parents;\n    }\n    function getChildren() public view returns(string [] memory){\n        return children;\n    }\n}\n",
  "sourcePath": "/home/mozixreality/Documents/Collage/Project/estate_blockchain/contracts/EsToken.sol",
  "compiler": {
    "name": "solc",
    "version": "0.8.11+commit.d7f03943.Emscripten.clang"
  },
  "schemaVersion": "3.4.5",
  "updatedAt": "2022-04-26T11:30:08.032Z",
  "devdoc": {
    "kind": "dev",
    "methods": {},
    "version": 1
  },
  "userdoc": {
    "kind": "user",
    "methods": {},
    "version": 1
  }
}