{
  "contractName": "EsToken",
  "abi": [
    {
      "inputs": [
        {
          "internalType": "string",
          "name": "id",
          "type": "string"
        },
        {
          "components": [
            {
              "internalType": "string",
              "name": "pcno",
              "type": "string"
            },
            {
              "internalType": "string",
              "name": "pmno",
              "type": "string"
            },
            {
              "internalType": "string",
              "name": "scno",
              "type": "string"
            },
            {
              "internalType": "string",
              "name": "county",
              "type": "string"
            },
            {
              "internalType": "uint256",
              "name": "townShip",
              "type": "uint256"
            },
            {
              "internalType": "string",
              "name": "begDate",
              "type": "string"
            },
            {
              "internalType": "string",
              "name": "endDate",
              "type": "string"
            },
            {
              "internalType": "uint256",
              "name": "reason",
              "type": "uint256"
            },
            {
              "internalType": "uint256",
              "name": "changeTag",
              "type": "uint256"
            }
          ],
          "internalType": "struct Data",
          "name": "d",
          "type": "tuple"
        },
        {
          "components": [
            {
              "components": [
                {
                  "internalType": "string",
                  "name": "x",
                  "type": "string"
                },
                {
                  "internalType": "string",
                  "name": "y",
                  "type": "string"
                }
              ],
              "internalType": "struct Point[100]",
              "name": "pList",
              "type": "tuple[100]"
            },
            {
              "internalType": "uint256",
              "name": "numOfPoint",
              "type": "uint256"
            }
          ],
          "internalType": "struct Polygon",
          "name": "poly",
          "type": "tuple"
        },
        {
          "internalType": "string[]",
          "name": "pa",
          "type": "string[]"
        }
      ],
      "stateMutability": "nonpayable",
      "type": "constructor"
    },
    {
      "inputs": [
        {
          "internalType": "string",
          "name": "endD",
          "type": "string"
        }
      ],
      "name": "setEndDate",
      "outputs": [],
      "stateMutability": "nonpayable",
      "type": "function"
    },
    {
      "inputs": [
        {
          "internalType": "string[]",
          "name": "chi",
          "type": "string[]"
        }
      ],
      "name": "setChildren",
      "outputs": [],
      "stateMutability": "nonpayable",
      "type": "function"
    },
    {
      "inputs": [],
      "name": "getData",
      "outputs": [
        {
          "components": [
            {
              "internalType": "string",
              "name": "pcno",
              "type": "string"
            },
            {
              "internalType": "string",
              "name": "pmno",
              "type": "string"
            },
            {
              "internalType": "string",
              "name": "scno",
              "type": "string"
            },
            {
              "internalType": "string",
              "name": "county",
              "type": "string"
            },
            {
              "internalType": "uint256",
              "name": "townShip",
              "type": "uint256"
            },
            {
              "internalType": "string",
              "name": "begDate",
              "type": "string"
            },
            {
              "internalType": "string",
              "name": "endDate",
              "type": "string"
            },
            {
              "internalType": "uint256",
              "name": "reason",
              "type": "uint256"
            },
            {
              "internalType": "uint256",
              "name": "changeTag",
              "type": "uint256"
            }
          ],
          "internalType": "struct Data",
          "name": "",
          "type": "tuple"
        }
      ],
      "stateMutability": "view",
      "type": "function"
    },
    {
      "inputs": [],
      "name": "getPolygon",
      "outputs": [
        {
          "components": [
            {
              "components": [
                {
                  "internalType": "string",
                  "name": "x",
                  "type": "string"
                },
                {
                  "internalType": "string",
                  "name": "y",
                  "type": "string"
                }
              ],
              "internalType": "struct Point[100]",
              "name": "pList",
              "type": "tuple[100]"
            },
            {
              "internalType": "uint256",
              "name": "numOfPoint",
              "type": "uint256"
            }
          ],
          "internalType": "struct Polygon",
          "name": "",
          "type": "tuple"
        }
      ],
      "stateMutability": "view",
      "type": "function"
    },
    {
      "inputs": [],
      "name": "getParents",
      "outputs": [
        {
          "internalType": "string[]",
          "name": "",
          "type": "string[]"
        }
      ],
      "stateMutability": "view",
      "type": "function"
    },
    {
      "inputs": [],
      "name": "getChildren",
      "outputs": [
        {
          "internalType": "string[]",
          "name": "",
          "type": "string[]"
        }
      ],
      "stateMutability": "view",
      "type": "function"
    }
  ],
  "bytecode": "0x60806040523480156200001157600080fd5b5060405162001c8638038062001c86833981810160405262000037919081019062000869565b826000015160016000019080519060200190620000569291906200021d565b50826040015160016002019080519060200190620000769291906200021d565b508260200151600180019080519060200190620000959291906200021d565b50826060015160016003019080519060200190620000b59291906200021d565b5082608001516001600401819055508260a0015160016005019080519060200190620000e39291906200021d565b508260c0015160016006019080519060200190620001039291906200021d565b508260e0015160016007018190555082610100015160016008018190555060008090505b8260200151811015620001d257826000015181606481106200014557fe5b602002015160000151600a60000182606481106200015f57fe5b6002020160000190805190602001906200017b9291906200021d565b50826000015181606481106200018d57fe5b602002015160200151600a6000018260648110620001a757fe5b600202016001019080519060200190620001c39291906200021d565b50808060010191505062000127565b508160200151600a60c801819055508060d39080519060200190620001f9929190620002a4565b508360009080519060200190620002129291906200021d565b505050505062000a67565b828054600181600116156101000203166002900490600052602060002090601f016020900481019282601f106200026057805160ff191683800117855562000291565b8280016001018555821562000291579182015b828111156200029057825182559160200191906001019062000273565b5b509050620002a091906200030b565b5090565b828054828255906000526020600020908101928215620002f8579160200282015b82811115620002f7578251829080519060200190620002e692919062000333565b5091602001919060010190620002c5565b5b509050620003079190620003ba565b5090565b6200033091905b808211156200032c57600081600090555060010162000312565b5090565b90565b828054600181600116156101000203166002900490600052602060002090601f016020900481019282601f106200037657805160ff1916838001178555620003a7565b82800160010185558215620003a7579182015b82811115620003a657825182559160200191906001019062000389565b5b509050620003b691906200030b565b5090565b620003e891905b80821115620003e45760008181620003da9190620003eb565b50600101620003c1565b5090565b90565b50805460018160011615610100020316600290046000825580601f1062000413575062000434565b601f0160209004906000526020600020908101906200043391906200030b565b5b50565b600082601f8301126200044957600080fd5b8151620004606200045a8262000967565b62000939565b9150818183526020840193506020810190508360005b83811015620004aa57815186016200048f888262000522565b84526020840193506020830192505060018101905062000476565b5050505092915050565b600082601f830112620004c657600080fd5b6064620004dd620004d78262000990565b62000939565b9150818360005b83811015620005185781518601620004fd888262000761565b845260208401935060208301925050600181019050620004e4565b5050505092915050565b600082601f8301126200053457600080fd5b81516200054b6200054582620009b3565b62000939565b915080825260208301602083018583830111156200056857600080fd5b6200057583828462000a17565b50505092915050565b600082601f8301126200059057600080fd5b8151620005a7620005a182620009e0565b62000939565b91508082526020830160208301858383011115620005c457600080fd5b620005d183828462000a17565b50505092915050565b60006101208284031215620005ee57600080fd5b620005fb61012062000939565b9050600082015167ffffffffffffffff8111156200061857600080fd5b620006268482850162000522565b600083015250602082015167ffffffffffffffff8111156200064757600080fd5b620006558482850162000522565b602083015250604082015167ffffffffffffffff8111156200067657600080fd5b620006848482850162000522565b604083015250606082015167ffffffffffffffff811115620006a557600080fd5b620006b38482850162000522565b6060830152506080620006c98482850162000852565b60808301525060a082015167ffffffffffffffff811115620006ea57600080fd5b620006f88482850162000522565b60a08301525060c082015167ffffffffffffffff8111156200071957600080fd5b620007278482850162000522565b60c08301525060e06200073d8482850162000852565b60e083015250610100620007548482850162000852565b6101008301525092915050565b6000604082840312156200077457600080fd5b62000780604062000939565b9050600082015167ffffffffffffffff8111156200079d57600080fd5b620007ab8482850162000522565b600083015250602082015167ffffffffffffffff811115620007cc57600080fd5b620007da8482850162000522565b60208301525092915050565b600060408284031215620007f957600080fd5b62000805604062000939565b9050600082015167ffffffffffffffff8111156200082257600080fd5b6200083084828501620004b4565b6000830152506020620008468482850162000852565b60208301525092915050565b600081519050620008638162000a4d565b92915050565b600080600080608085870312156200088057600080fd5b600085015167ffffffffffffffff8111156200089b57600080fd5b620008a9878288016200057e565b945050602085015167ffffffffffffffff811115620008c757600080fd5b620008d587828801620005da565b935050604085015167ffffffffffffffff811115620008f357600080fd5b6200090187828801620007e6565b925050606085015167ffffffffffffffff8111156200091f57600080fd5b6200092d8782880162000437565b91505092959194509250565b6000604051905081810181811067ffffffffffffffff821117156200095d57600080fd5b8060405250919050565b600067ffffffffffffffff8211156200097f57600080fd5b602082029050602081019050919050565b600067ffffffffffffffff821115620009a857600080fd5b602082029050919050565b600067ffffffffffffffff821115620009cb57600080fd5b601f19601f8301169050602081019050919050565b600067ffffffffffffffff821115620009f857600080fd5b601f19601f8301169050602081019050919050565b6000819050919050565b60005b8381101562000a3757808201518184015260208101905062000a1a565b8381111562000a47576000848401525b50505050565b62000a588162000a0d565b811462000a6457600080fd5b50565b61120f8062000a776000396000f3fe608060405234801561001057600080fd5b50600436106100625760003560e01c806313d743bc146100675780633bc5de30146100855780634892e8e8146100a35780636d8012b7146100c157806394094420146100dd578063dd6133b5146100f9575b600080fd5b61006f610117565b60405161007c919061102b565b60405180910390f35b61008d6102cb565b60405161009a9190611009565b60405180910390f35b6100ab6106d0565b6040516100b89190610fe7565b60405180910390f35b6100db60048036036100d69190810190610ca2565b6107b9565b005b6100f760048036036100f29190810190610ce3565b6107d3565b005b6101016107f0565b60405161010e9190610fe7565b60405180910390f35b61011f6108d9565b600a60405180604001604052908160008201606480602002604051908101604052809291906000905b828210156102b457838260020201604051806040016040529081600082018054600181600116156101000203166002900480601f0160208091040260200160405190810160405280929190818152602001828054600181600116156101000203166002900480156101fa5780601f106101cf576101008083540402835291602001916101fa565b820191906000526020600020905b8154815290600101906020018083116101dd57829003601f168201915b50505050508152602001600182018054600181600116156101000203166002900480601f01602080910402602001604051908101604052809291908181526020018280546001816001161561010002031660029004801561029c5780601f106102715761010080835404028352916020019161029c565b820191906000526020600020905b81548152906001019060200180831161027f57829003601f168201915b50505050508152505081526020019060010190610148565b50505050815260200160c882015481525050905090565b6102d36108f9565b600160405180610120016040529081600082018054600181600116156101000203166002900480601f01602080910402602001604051908101604052809291908181526020018280546001816001161561010002031660029004801561037a5780601f1061034f5761010080835404028352916020019161037a565b820191906000526020600020905b81548152906001019060200180831161035d57829003601f168201915b50505050508152602001600182018054600181600116156101000203166002900480601f01602080910402602001604051908101604052809291908181526020018280546001816001161561010002031660029004801561041c5780601f106103f15761010080835404028352916020019161041c565b820191906000526020600020905b8154815290600101906020018083116103ff57829003601f168201915b50505050508152602001600282018054600181600116156101000203166002900480601f0160208091040260200160405190810160405280929190818152602001828054600181600116156101000203166002900480156104be5780601f10610493576101008083540402835291602001916104be565b820191906000526020600020905b8154815290600101906020018083116104a157829003601f168201915b50505050508152602001600382018054600181600116156101000203166002900480601f0160208091040260200160405190810160405280929190818152602001828054600181600116156101000203166002900480156105605780601f1061053557610100808354040283529160200191610560565b820191906000526020600020905b81548152906001019060200180831161054357829003601f168201915b5050505050815260200160048201548152602001600582018054600181600116156101000203166002900480601f01602080910402602001604051908101604052809291908181526020018280546001816001161561010002031660029004801561060c5780601f106105e15761010080835404028352916020019161060c565b820191906000526020600020905b8154815290600101906020018083116105ef57829003601f168201915b50505050508152602001600682018054600181600116156101000203166002900480601f0160208091040260200160405190810160405280929190818152602001828054600181600116156101000203166002900480156106ae5780601f10610683576101008083540402835291602001916106ae565b820191906000526020600020905b81548152906001019060200180831161069157829003601f168201915b5050505050815260200160078201548152602001600882015481525050905090565b606060d4805480602002602001604051908101604052809291908181526020016000905b828210156107b0578382906000526020600020018054600181600116156101000203166002900480601f01602080910402602001604051908101604052809291908181526020018280546001816001161561010002031660029004801561079c5780601f106107715761010080835404028352916020019161079c565b820191906000526020600020905b81548152906001019060200180831161077f57829003601f168201915b5050505050815260200190600101906106f4565b50505050905090565b8060d490805190602001906107cf929190610945565b5050565b80600160060190805190602001906107ec9291906109a5565b5050565b606060d3805480602002602001604051908101604052809291908181526020016000905b828210156108d0578382906000526020600020018054600181600116156101000203166002900480601f0160208091040260200160405190810160405280929190818152602001828054600181600116156101000203166002900480156108bc5780601f10610891576101008083540402835291602001916108bc565b820191906000526020600020905b81548152906001019060200180831161089f57829003601f168201915b505050505081526020019060010190610814565b50505050905090565b60405180604001604052806108ec610a25565b8152602001600081525090565b6040518061012001604052806060815260200160608152602001606081526020016060815260200160008152602001606081526020016060815260200160008152602001600081525090565b828054828255906000526020600020908101928215610994579160200282015b82811115610993578251829080519060200190610983929190610a53565b5091602001919060010190610965565b5b5090506109a19190610ad3565b5090565b828054600181600116156101000203166002900490600052602060002090601f016020900481019282601f106109e657805160ff1916838001178555610a14565b82800160010185558215610a14579182015b82811115610a135782518255916020019190600101906109f8565b5b509050610a219190610aff565b5090565b60405180610c8001604052806064905b610a3d610b24565b815260200190600190039081610a355790505090565b828054600181600116156101000203166002900490600052602060002090601f016020900481019282601f10610a9457805160ff1916838001178555610ac2565b82800160010185558215610ac2579182015b82811115610ac1578251825591602001919060010190610aa6565b5b509050610acf9190610aff565b5090565b610afc91905b80821115610af85760008181610aef9190610b3e565b50600101610ad9565b5090565b90565b610b2191905b80821115610b1d576000816000905550600101610b05565b5090565b90565b604051806040016040528060608152602001606081525090565b50805460018160011615610100020316600290046000825580601f10610b645750610b83565b601f016020900490600052602060002090810190610b829190610aff565b5b50565b600082601f830112610b9757600080fd5b8135610baa610ba58261107a565b61104d565b9150818183526020840193506020810190508360005b83811015610bf05781358601610bd68882610bfa565b845260208401935060208301925050600181019050610bc0565b5050505092915050565b600082601f830112610c0b57600080fd5b8135610c1e610c19826110a2565b61104d565b91508082526020830160208301858383011115610c3a57600080fd5b610c45838284611186565b50505092915050565b600082601f830112610c5f57600080fd5b8135610c72610c6d826110ce565b61104d565b91508082526020830160208301858383011115610c8e57600080fd5b610c99838284611186565b50505092915050565b600060208284031215610cb457600080fd5b600082013567ffffffffffffffff811115610cce57600080fd5b610cda84828501610b86565b91505092915050565b600060208284031215610cf557600080fd5b600082013567ffffffffffffffff811115610d0f57600080fd5b610d1b84828501610c4e565b91505092915050565b6000610d308383610e36565b905092915050565b6000610d448383610f57565b905092915050565b6000610d5782611114565b610d61818561114f565b935083602082028501610d73856110fa565b8060005b85811015610daf5784840389528151610d908582610d24565b9450610d9b83611135565b925060208a01995050600181019050610d77565b50829750879550505050505092915050565b6000610dcc8261111f565b610dd68185611160565b935083602082028501610de88561110a565b8060005b85811015610e245784840389528151610e058582610d38565b9450610e1083611142565b925060208a01995050600181019050610dec565b50829750879550505050505092915050565b6000610e418261112a565b610e4b818561116b565b9350610e5b818560208601611195565b610e64816111c8565b840191505092915050565b6000610120830160008301518482036000860152610e8d8282610e36565b91505060208301518482036020860152610ea78282610e36565b91505060408301518482036040860152610ec18282610e36565b91505060608301518482036060860152610edb8282610e36565b9150506080830151610ef06080860182610fd8565b5060a083015184820360a0860152610f088282610e36565b91505060c083015184820360c0860152610f228282610e36565b91505060e0830151610f3760e0860182610fd8565b50610100830151610f4c610100860182610fd8565b508091505092915050565b60006040830160008301518482036000860152610f748282610e36565b91505060208301518482036020860152610f8e8282610e36565b9150508091505092915050565b60006040830160008301518482036000860152610fb88282610dc1565b9150506020830151610fcd6020860182610fd8565b508091505092915050565b610fe18161117c565b82525050565b600060208201905081810360008301526110018184610d4c565b905092915050565b600060208201905081810360008301526110238184610e6f565b905092915050565b600060208201905081810360008301526110458184610f9b565b905092915050565b6000604051905081810181811067ffffffffffffffff8211171561107057600080fd5b8060405250919050565b600067ffffffffffffffff82111561109157600080fd5b602082029050602081019050919050565b600067ffffffffffffffff8211156110b957600080fd5b601f19601f8301169050602081019050919050565b600067ffffffffffffffff8211156110e557600080fd5b601f19601f8301169050602081019050919050565b6000819050602082019050919050565b6000819050919050565b600081519050919050565b600060649050919050565b600081519050919050565b6000602082019050919050565b6000602082019050919050565b600082825260208201905092915050565b600081905092915050565b600082825260208201905092915050565b6000819050919050565b82818337600083830152505050565b60005b838110156111b3578082015181840152602081019050611198565b838111156111c2576000848401525b50505050565b6000601f19601f830116905091905056fea264697066735822122016d9b1a7c73dbe206796d27fc79286575d64f65a05a8e1cda1b5f4a3bdad0db064736f6c63430006000033",
  "source": "// SPDX-License-Identifier: MIT\npragma solidity >=0.6.0;\npragma experimental ABIEncoderV2;\nimport \"./DataStruct.sol\";\n\n\ncontract EsToken {\n    string Id;\n    Data data;\n    Polygon polygon;\n    string [] parents;\n    string [] children;\n\n    constructor(string memory id,Data memory d,Polygon memory poly,string [] memory pa) public{\n        data.pcno = d.pcno;\n        data.scno = d.scno;\n        data.pmno = d.pmno;\n        data.county = d.county;\n        data.townShip = d.townShip;\n        data.begDate = d.begDate;\n        data.endDate = d.endDate;\n        data.reason = d.reason;\n        data.changeTag = d.changeTag;\n        for(uint i = 0;i < poly.numOfPoint;i++){\n            polygon.pList[i].x = poly.pList[i].x;\n            polygon.pList[i].y = poly.pList[i].y;\n        }\n        polygon.numOfPoint = poly.numOfPoint;\n        parents = pa;\n        Id = id;\n    }\n    function setEndDate(string memory endD) public {\n        data.endDate = endD;\n    }\n    function setChildren(string [] memory chi) public {\n        children = chi;\n    }\n\n    function getData() public view returns(Data memory){\n        return data;\n    }\n    function getPolygon() public view returns(Polygon memory){\n        return polygon;\n    }\n    function getParents() public view returns(string [] memory){\n        return parents;\n    }\n    function getChildren() public view returns(string [] memory){\n        return children;\n    }\n}\n",
  "sourcePath": "/Users/weilun/Desktop/helen/privatechain/estate_chain/contracts/EsToken.sol",
  "compiler": {
    "name": "solc",
    "version": "0.6.0+commit.26b70077.Emscripten.clang"
  },
  "schemaVersion": "3.3.4",
  "updatedAt": "2022-01-11T15:24:58.811Z",
  "devdoc": {
    "methods": {}
  },
  "userdoc": {
    "methods": {}
  }
}